{"abi":[{"type":"function","name":"UPGRADE_INTERFACE_VERSION","inputs":[],"outputs":[{"name":"","type":"string","internalType":"string"}],"stateMutability":"view"},{"type":"function","name":"addMargin","inputs":[{"name":"oType","type":"uint8","internalType":"enum IRaven.OType"},{"name":"slot","type":"uint8","internalType":"uint8"},{"name":"marginToAdd","type":"uint256","internalType":"uint256"}],"outputs":[],"stateMutability":"nonpayable"},{"type":"function","name":"admin","inputs":[],"outputs":[{"name":"","type":"address","internalType":"address"}],"stateMutability":"view"},{"type":"function","name":"adminPerc","inputs":[],"outputs":[{"name":"","type":"uint256","internalType":"uint256"}],"stateMutability":"view"},{"type":"function","name":"allShare","inputs":[{"name":"optionId","type":"bytes32","internalType":"bytes32"}],"outputs":[{"name":"share","type":"uint256","internalType":"uint256"}],"stateMutability":"view"},{"type":"function","name":"allValue","inputs":[{"name":"optionId","type":"bytes32","internalType":"bytes32"}],"outputs":[{"name":"value","type":"uint256","internalType":"uint256"}],"stateMutability":"view"},{"type":"function","name":"allowance","inputs":[{"name":"owner","type":"address","internalType":"address"},{"name":"spender","type":"address","internalType":"address"}],"outputs":[{"name":"","type":"uint256","internalType":"uint256"}],"stateMutability":"view"},{"type":"function","name":"approve","inputs":[{"name":"spender","type":"address","internalType":"address"},{"name":"value","type":"uint256","internalType":"uint256"}],"outputs":[{"name":"","type":"bool","internalType":"bool"}],"stateMutability":"nonpayable"},{"type":"function","name":"balanceOf","inputs":[{"name":"account","type":"address","internalType":"address"}],"outputs":[{"name":"","type":"uint256","internalType":"uint256"}],"stateMutability":"view"},{"type":"function","name":"basePerc","inputs":[],"outputs":[{"name":"","type":"uint256","internalType":"uint256"}],"stateMutability":"view"},{"type":"function","name":"baseSharePrice","inputs":[],"outputs":[{"name":"","type":"uint256","internalType":"uint256"}],"stateMutability":"view"},{"type":"function","name":"decimals","inputs":[],"outputs":[{"name":"","type":"uint8","internalType":"uint8"}],"stateMutability":"view"},{"type":"function","name":"enableLevg","inputs":[{"name":"enabled","type":"bool","internalType":"bool"}],"outputs":[],"stateMutability":"nonpayable"},{"type":"function","name":"ethPrices","inputs":[{"name":"round","type":"uint256","internalType":"uint256"}],"outputs":[{"name":"ethPrice","type":"uint256","internalType":"uint256"}],"stateMutability":"view"},{"type":"function","name":"expiration","inputs":[],"outputs":[{"name":"","type":"uint256","internalType":"uint256"}],"stateMutability":"view"},{"type":"function","name":"forwarder","inputs":[],"outputs":[{"name":"","type":"address","internalType":"address"}],"stateMutability":"view"},{"type":"function","name":"globalRound","inputs":[],"outputs":[{"name":"","type":"uint256","internalType":"uint256"}],"stateMutability":"view"},{"type":"function","name":"incenVTokenPerc","inputs":[],"outputs":[{"name":"","type":"uint256","internalType":"uint256"}],"stateMutability":"view"},{"type":"function","name":"incenWindow","inputs":[],"outputs":[{"name":"","type":"uint256","internalType":"uint256"}],"stateMutability":"view"},{"type":"function","name":"initialize","inputs":[{"name":"owner_","type":"address","internalType":"address"},{"name":"name_","type":"string","internalType":"string"},{"name":"symbol_","type":"string","internalType":"string"},{"name":"cp","type":"tuple","internalType":"struct IRaven.ConstructParams","components":[{"name":"Admin","type":"address","internalType":"address"},{"name":"Forwarder","type":"address","internalType":"address"},{"name":"Usdt","type":"address","internalType":"address"},{"name":"DataFeedAddress","type":"address","internalType":"address"},{"name":"PubVaultAddress","type":"address","internalType":"address"},{"name":"BaseSharePrice","type":"uint256","internalType":"uint256"},{"name":"RoundWindow","type":"uint256","internalType":"uint256"},{"name":"IncenWindow","type":"uint256","internalType":"uint256"},{"name":"Expiration","type":"uint256","internalType":"uint256"},{"name":"TimeFactor","type":"uint256","internalType":"uint256"},{"name":"PriceFactor","type":"uint256","internalType":"uint256"},{"name":"StrikeSpacing","type":"uint256","internalType":"uint256"},{"name":"MaxLeverage","type":"uint256","internalType":"uint256"},{"name":"BasePerc","type":"uint256","internalType":"uint256"},{"name":"WinPerc","type":"uint256","internalType":"uint256"},{"name":"WinnerPerc","type":"uint256","internalType":"uint256"},{"name":"AdminPerc","type":"uint256","internalType":"uint256"},{"name":"LqdtAdminFeePerc","type":"uint256","internalType":"uint256"},{"name":"LqdtVaultFeePerc","type":"uint256","internalType":"uint256"},{"name":"IncenVTokenPerc","type":"uint256","internalType":"uint256"},{"name":"LiquidationVTokenPerc","type":"uint256","internalType":"uint256"},{"name":"UsdtDecimals","type":"uint8","internalType":"uint8"},{"name":"VSlots","type":"uint8","internalType":"uint8"}]}],"outputs":[],"stateMutability":"nonpayable"},{"type":"function","name":"isLevgEnabled","inputs":[],"outputs":[{"name":"","type":"bool","internalType":"bool"}],"stateMutability":"view"},{"type":"function","name":"lastStrikeBlock","inputs":[],"outputs":[{"name":"","type":"uint256","internalType":"uint256"}],"stateMutability":"view"},{"type":"function","name":"lastStrikeTime","inputs":[],"outputs":[{"name":"","type":"uint256","internalType":"uint256"}],"stateMutability":"view"},{"type":"function","name":"levgPositions","inputs":[{"name":"positionId","type":"bytes32","internalType":"bytes32"}],"outputs":[{"name":"Share","type":"uint256","internalType":"uint256"},{"name":"Value","type":"uint256","internalType":"uint256"},{"name":"Margin","type":"uint256","internalType":"uint256"},{"name":"Leverage","type":"uint256","internalType":"uint256"},{"name":"OpenTime","type":"uint256","internalType":"uint256"}],"stateMutability":"view"},{"type":"function","name":"liquidationCall","inputs":[{"name":"oType","type":"uint8","internalType":"enum IRaven.OType"},{"name":"slot","type":"uint8","internalType":"uint8"},{"name":"user","type":"address","internalType":"address"},{"name":"callShare","type":"uint256","internalType":"uint256"}],"outputs":[],"stateMutability":"nonpayable"},{"type":"function","name":"liquidationVTokenPerc","inputs":[],"outputs":[{"name":"","type":"uint256","internalType":"uint256"}],"stateMutability":"view"},{"type":"function","name":"lqdtAdminFeePerc","inputs":[],"outputs":[{"name":"","type":"uint256","internalType":"uint256"}],"stateMutability":"view"},{"type":"function","name":"lqdtVaultFeePerc","inputs":[],"outputs":[{"name":"","type":"uint256","internalType":"uint256"}],"stateMutability":"view"},{"type":"function","name":"maxLeverage","inputs":[],"outputs":[{"name":"","type":"uint256","internalType":"uint256"}],"stateMutability":"view"},{"type":"function","name":"name","inputs":[],"outputs":[{"name":"","type":"string","internalType":"string"}],"stateMutability":"view"},{"type":"function","name":"openPositionLevg","inputs":[{"name":"oType","type":"uint8","internalType":"enum IRaven.OType"},{"name":"slot","type":"uint8","internalType":"uint8"},{"name":"shares","type":"uint256","internalType":"uint256"},{"name":"leverage","type":"uint256","internalType":"uint256"}],"outputs":[],"stateMutability":"nonpayable"},{"type":"function","name":"openPositionSpot","inputs":[{"name":"oType","type":"uint8","internalType":"enum IRaven.OType"},{"name":"slot","type":"uint8","internalType":"uint8"},{"name":"shares","type":"uint256","internalType":"uint256"}],"outputs":[],"stateMutability":"nonpayable"},{"type":"function","name":"owner","inputs":[],"outputs":[{"name":"","type":"address","internalType":"address"}],"stateMutability":"view"},{"type":"function","name":"priceFactor","inputs":[],"outputs":[{"name":"","type":"uint256","internalType":"uint256"}],"stateMutability":"view"},{"type":"function","name":"proxiableUUID","inputs":[],"outputs":[{"name":"","type":"bytes32","internalType":"bytes32"}],"stateMutability":"view"},{"type":"function","name":"pubVault","inputs":[],"outputs":[{"name":"","type":"address","internalType":"contract IPubVault"}],"stateMutability":"view"},{"type":"function","name":"redeemLevgBatch","inputs":[{"name":"redeemRound","type":"uint256","internalType":"uint256"},{"name":"oTypes","type":"uint8[]","internalType":"enum IRaven.OType[]"},{"name":"slots","type":"uint8[]","internalType":"uint8[]"}],"outputs":[],"stateMutability":"nonpayable"},{"type":"function","name":"redeemSpotBatch","inputs":[{"name":"redeemRound","type":"uint256","internalType":"uint256"},{"name":"oTypes","type":"uint8[]","internalType":"enum IRaven.OType[]"},{"name":"slots","type":"uint8[]","internalType":"uint8[]"}],"outputs":[],"stateMutability":"nonpayable"},{"type":"function","name":"renounceOwnership","inputs":[],"outputs":[],"stateMutability":"nonpayable"},{"type":"function","name":"roundWindow","inputs":[],"outputs":[{"name":"","type":"uint256","internalType":"uint256"}],"stateMutability":"view"},{"type":"function","name":"spotPositions","inputs":[{"name":"positionId","type":"bytes32","internalType":"bytes32"}],"outputs":[{"name":"Share","type":"uint256","internalType":"uint256"},{"name":"Value","type":"uint256","internalType":"uint256"}],"stateMutability":"view"},{"type":"function","name":"strike","inputs":[],"outputs":[],"stateMutability":"nonpayable"},{"type":"function","name":"strikeSpacing","inputs":[],"outputs":[{"name":"","type":"uint256","internalType":"uint256"}],"stateMutability":"view"},{"type":"function","name":"strikes","inputs":[{"name":"round","type":"uint256","internalType":"uint256"},{"name":"slot","type":"uint8","internalType":"uint8"}],"outputs":[{"name":"strike","type":"uint256","internalType":"uint256"}],"stateMutability":"view"},{"type":"function","name":"symbol","inputs":[],"outputs":[{"name":"","type":"string","internalType":"string"}],"stateMutability":"view"},{"type":"function","name":"timeFactor","inputs":[],"outputs":[{"name":"","type":"uint256","internalType":"uint256"}],"stateMutability":"view"},{"type":"function","name":"totalSupply","inputs":[],"outputs":[{"name":"","type":"uint256","internalType":"uint256"}],"stateMutability":"view"},{"type":"function","name":"transfer","inputs":[{"name":"to","type":"address","internalType":"address"},{"name":"value","type":"uint256","internalType":"uint256"}],"outputs":[{"name":"","type":"bool","internalType":"bool"}],"stateMutability":"nonpayable"},{"type":"function","name":"transferFrom","inputs":[{"name":"from","type":"address","internalType":"address"},{"name":"to","type":"address","internalType":"address"},{"name":"value","type":"uint256","internalType":"uint256"}],"outputs":[{"name":"","type":"bool","internalType":"bool"}],"stateMutability":"nonpayable"},{"type":"function","name":"transferOwnership","inputs":[{"name":"newOwner","type":"address","internalType":"address"}],"outputs":[],"stateMutability":"nonpayable"},{"type":"function","name":"updateForwarder","inputs":[{"name":"newForwarder","type":"address","internalType":"address"}],"outputs":[],"stateMutability":"nonpayable"},{"type":"function","name":"updateParams","inputs":[{"name":"cp","type":"tuple","internalType":"struct IRaven.ConstructParams","components":[{"name":"Admin","type":"address","internalType":"address"},{"name":"Forwarder","type":"address","internalType":"address"},{"name":"Usdt","type":"address","internalType":"address"},{"name":"DataFeedAddress","type":"address","internalType":"address"},{"name":"PubVaultAddress","type":"address","internalType":"address"},{"name":"BaseSharePrice","type":"uint256","internalType":"uint256"},{"name":"RoundWindow","type":"uint256","internalType":"uint256"},{"name":"IncenWindow","type":"uint256","internalType":"uint256"},{"name":"Expiration","type":"uint256","internalType":"uint256"},{"name":"TimeFactor","type":"uint256","internalType":"uint256"},{"name":"PriceFactor","type":"uint256","internalType":"uint256"},{"name":"StrikeSpacing","type":"uint256","internalType":"uint256"},{"name":"MaxLeverage","type":"uint256","internalType":"uint256"},{"name":"BasePerc","type":"uint256","internalType":"uint256"},{"name":"WinPerc","type":"uint256","internalType":"uint256"},{"name":"WinnerPerc","type":"uint256","internalType":"uint256"},{"name":"AdminPerc","type":"uint256","internalType":"uint256"},{"name":"LqdtAdminFeePerc","type":"uint256","internalType":"uint256"},{"name":"LqdtVaultFeePerc","type":"uint256","internalType":"uint256"},{"name":"IncenVTokenPerc","type":"uint256","internalType":"uint256"},{"name":"LiquidationVTokenPerc","type":"uint256","internalType":"uint256"},{"name":"UsdtDecimals","type":"uint8","internalType":"uint8"},{"name":"VSlots","type":"uint8","internalType":"uint8"}]}],"outputs":[],"stateMutability":"nonpayable"},{"type":"function","name":"upgradeToAndCall","inputs":[{"name":"newImplementation","type":"address","internalType":"address"},{"name":"data","type":"bytes","internalType":"bytes"}],"outputs":[],"stateMutability":"payable"},{"type":"function","name":"usdt","inputs":[],"outputs":[{"name":"","type":"address","internalType":"address"}],"stateMutability":"view"},{"type":"function","name":"usdtDecimals","inputs":[],"outputs":[{"name":"","type":"uint8","internalType":"uint8"}],"stateMutability":"view"},{"type":"function","name":"vSlots","inputs":[],"outputs":[{"name":"","type":"uint8","internalType":"uint8"}],"stateMutability":"view"},{"type":"function","name":"winPerc","inputs":[],"outputs":[{"name":"","type":"uint256","internalType":"uint256"}],"stateMutability":"view"},{"type":"function","name":"winnerPerc","inputs":[],"outputs":[{"name":"","type":"uint256","internalType":"uint256"}],"stateMutability":"view"},{"type":"event","name":"Approval","inputs":[{"name":"owner","type":"address","indexed":true,"internalType":"address"},{"name":"spender","type":"address","indexed":true,"internalType":"address"},{"name":"value","type":"uint256","indexed":false,"internalType":"uint256"}],"anonymous":false},{"type":"event","name":"Initialized","inputs":[{"name":"version","type":"uint64","indexed":false,"internalType":"uint64"}],"anonymous":false},{"type":"event","name":"LiquidationUpdated","inputs":[{"name":"user","type":"address","indexed":false,"internalType":"address"},{"name":"oType","type":"uint8","indexed":false,"internalType":"enum IRaven.OType"},{"name":"slot","type":"uint8","indexed":false,"internalType":"uint8"},{"name":"lvgValue","type":"uint256","indexed":false,"internalType":"uint256"},{"name":"newShare","type":"uint256","indexed":false,"internalType":"uint256"},{"name":"newMargin","type":"uint256","indexed":false,"internalType":"uint256"},{"name":"openTime","type":"uint256","indexed":false,"internalType":"uint256"},{"name":"updateBlock","type":"uint256","indexed":false,"internalType":"uint256"}],"anonymous":false},{"type":"event","name":"OwnershipTransferred","inputs":[{"name":"previousOwner","type":"address","indexed":true,"internalType":"address"},{"name":"newOwner","type":"address","indexed":true,"internalType":"address"}],"anonymous":false},{"type":"event","name":"Transfer","inputs":[{"name":"from","type":"address","indexed":true,"internalType":"address"},{"name":"to","type":"address","indexed":true,"internalType":"address"},{"name":"value","type":"uint256","indexed":false,"internalType":"uint256"}],"anonymous":false},{"type":"event","name":"Upgraded","inputs":[{"name":"implementation","type":"address","indexed":true,"internalType":"address"}],"anonymous":false},{"type":"error","name":"AddressEmptyCode","inputs":[{"name":"target","type":"address","internalType":"address"}]},{"type":"error","name":"ERC1967InvalidImplementation","inputs":[{"name":"implementation","type":"address","internalType":"address"}]},{"type":"error","name":"ERC1967NonPayable","inputs":[]},{"type":"error","name":"ERC20InsufficientAllowance","inputs":[{"name":"spender","type":"address","internalType":"address"},{"name":"allowance","type":"uint256","internalType":"uint256"},{"name":"needed","type":"uint256","internalType":"uint256"}]},{"type":"error","name":"ERC20InsufficientBalance","inputs":[{"name":"sender","type":"address","internalType":"address"},{"name":"balance","type":"uint256","internalType":"uint256"},{"name":"needed","type":"uint256","internalType":"uint256"}]},{"type":"error","name":"ERC20InvalidApprover","inputs":[{"name":"approver","type":"address","internalType":"address"}]},{"type":"error","name":"ERC20InvalidReceiver","inputs":[{"name":"receiver","type":"address","internalType":"address"}]},{"type":"error","name":"ERC20InvalidSender","inputs":[{"name":"sender","type":"address","internalType":"address"}]},{"type":"error","name":"ERC20InvalidSpender","inputs":[{"name":"spender","type":"address","internalType":"address"}]},{"type":"error","name":"FailedInnerCall","inputs":[]},{"type":"error","name":"InvalidInitialization","inputs":[]},{"type":"error","name":"NotInitializing","inputs":[]},{"type":"error","name":"OwnableInvalidOwner","inputs":[{"name":"owner","type":"address","internalType":"address"}]},{"type":"error","name":"OwnableUnauthorizedAccount","inputs":[{"name":"account","type":"address","internalType":"address"}]},{"type":"error","name":"UUPSUnauthorizedCallContext","inputs":[]},{"type":"error","name":"UUPSUnsupportedProxiableUUID","inputs":[{"name":"slot","type":"bytes32","internalType":"bytes32"}]}],"bytecode":{"object":"0x60a06040523060805234801561001457600080fd5b506080516146e861003e60003960008181611fb201528181611fdb015261211c01526146e86000f3fe6080604052600436106103815760003560e01c806373efbf39116101d1578063b844745611610102578063dd738ef1116100a0578063f645d4f91161006f578063f645d4f914610a9e578063f851a44014610abe578063fadd6b0914610ade578063fbee2d8c14610afe57600080fd5b8063dd738ef114610a32578063dfb2866d14610a48578063dfeb1c4d14610a5e578063f2fde38b14610a7e57600080fd5b8063c9fe85d9116100dc578063c9fe85d9146109bc578063d91db8d5146109dc578063dcee2a26146109fc578063dd62ed3e14610a1257600080fd5b8063b844745614610970578063ba17128b14610986578063c3f67ce21461099c57600080fd5b806382543b321161016f578063a9059cbb11610149578063a9059cbb146108f4578063ad3cb1cc14610914578063ad8f500814610945578063ae3302c21461095a57600080fd5b806382543b32146108885780638da5cb5b146108a257806395d89b41146108df57600080fd5b806377e0970b116101ab57806377e0970b146108265780637bc95d841461083c5780638156538e1461085c578063822daf601461087257600080fd5b806373efbf39146107c35780637401ecf7146107e357806377049fc11461081057600080fd5b80632f48ab7d116102b65780634ff4107111610254578063679e5aa311610223578063679e5aa31461074e5780636a708ecc1461076e57806370a082311461078e578063715018a6146107ae57600080fd5b80634ff41071146106e057806352d1902d146106f65780635eb9d2851461070b57806367327fdc1461072157600080fd5b806334db3b9c1161029057806334db3b9c146106585780633e0e1f471461066e5780634665096d146106b75780634f1ef286146106cd57600080fd5b80632f48ab7d1461060e578063313ce5671461062e5780633386a39a1461064257600080fd5b80631bf751ef1161032357806326b91f5b116102fd57806326b91f5b1461056c578063276b28b514610582578063287fb37c146105c15780632a698bed146105e157600080fd5b80631bf751ef146104f95780632291237e1461052a57806323b872dd1461054c57600080fd5b8063151b8e661161035f578063151b8e6614610405578063178e7a6e1461043d578063180613bf146104af57806318160ddd146104c557600080fd5b806306fdde0314610386578063095ea7b3146103b15780631031a063146103e1575b600080fd5b34801561039257600080fd5b5061039b610b14565b6040516103a89190613a91565b60405180910390f35b3480156103bd57600080fd5b506103d16103cc366004613ae0565b610bd7565b60405190151581526020016103a8565b3480156103ed57600080fd5b506103f760045481565b6040519081526020016103a8565b34801561041157600080fd5b506103f7610420366004613b24565b601c60209081526000928352604080842090915290825290205481565b34801561044957600080fd5b50610487610458366004613b54565b601960205260009081526040902080546001820154600283015460038401546004909401549293919290919085565b604080519586526020860194909452928401919091526060830152608082015260a0016103a8565b3480156104bb57600080fd5b506103f760135481565b3480156104d157600080fd5b507f52c63247e1f47db19d5ce0460030c497f067ca4cebf71ba98eeadabe20bace02546103f7565b34801561050557600080fd5b5060165461051890610100900460ff1681565b60405160ff90911681526020016103a8565b34801561053657600080fd5b5061054a610545366004613b6d565b610bf1565b005b34801561055857600080fd5b506103d1610567366004613b88565b610c2a565b34801561057857600080fd5b506103f7600e5481565b34801561058e57600080fd5b506016546105a990630100000090046001600160a01b031681565b6040516001600160a01b0390911681526020016103a8565b3480156105cd57600080fd5b5061054a6105dc366004613df0565b610c50565b3480156105ed57600080fd5b506103f76105fc366004613b54565b601d6020526000908152604090205481565b34801561061a57600080fd5b506002546105a9906001600160a01b031681565b34801561063a57600080fd5b506012610518565b34801561064e57600080fd5b506103f7600f5481565b34801561066457600080fd5b506103f760035481565b34801561067a57600080fd5b506106a2610689366004613b54565b6018602052600090815260409020805460019091015482565b604080519283526020830191909152016103a8565b3480156106c357600080fd5b506103f760065481565b61054a6106db366004613e77565b610eac565b3480156106ec57600080fd5b506103f760095481565b34801561070257600080fd5b506103f7610ecb565b34801561071757600080fd5b506103f760125481565b34801561072d57600080fd5b506103f761073c366004613b54565b601a6020526000908152604090205481565b34801561075a57600080fd5b5061054a610769366004613ee8565b610ee8565b34801561077a57600080fd5b5061054a610789366004613fc8565b61121d565b34801561079a57600080fd5b506103f76107a9366004613b6d565b611359565b3480156107ba57600080fd5b5061054a611381565b3480156107cf57600080fd5b5061054a6107de366004614093565b611395565b3480156107ef57600080fd5b506103f76107fe366004613b54565b601b6020526000908152604090205481565b34801561081c57600080fd5b506103f7600b5481565b34801561083257600080fd5b506103f760055481565b34801561084857600080fd5b5061054a610857366004613fc8565b6117a2565b34801561086857600080fd5b506103f760145481565b34801561087e57600080fd5b506103f760075481565b34801561089457600080fd5b506016546105189060ff1681565b3480156108ae57600080fd5b507f9016d09d72d40fdae2fd8ceac6b6234c7706214fd39c1cd1e609a0528c199300546001600160a01b03166105a9565b3480156108eb57600080fd5b5061039b6118b9565b34801561090057600080fd5b506103d161090f366004613ae0565b6118f8565b34801561092057600080fd5b5061039b604051806040016040528060058152602001640352e302e360dc1b81525081565b34801561095157600080fd5b5061054a611906565b34801561096657600080fd5b506103f7600a5481565b34801561097c57600080fd5b506103f7600d5481565b34801561099257600080fd5b506103f7600c5481565b3480156109a857600080fd5b5061054a6109b73660046140e0565b6119e4565b3480156109c857600080fd5b5061054a6109d736600461411f565b611b14565b3480156109e857600080fd5b5061054a6109f73660046140e0565b611c62565b348015610a0857600080fd5b506103f760115481565b348015610a1e57600080fd5b506103f7610a2d36600461413c565b611def565b348015610a3e57600080fd5b506103f760105481565b348015610a5457600080fd5b506103f760085481565b348015610a6a57600080fd5b5061054a610a7936600461417d565b611e39565b348015610a8a57600080fd5b5061054a610a99366004613b6d565b611e6c565b348015610aaa57600080fd5b506001546105a9906001600160a01b031681565b348015610aca57600080fd5b506000546105a9906001600160a01b031681565b348015610aea57600080fd5b506016546103d19062010000900460ff1681565b348015610b0a57600080fd5b506103f760155481565b7f52c63247e1f47db19d5ce0460030c497f067ca4cebf71ba98eeadabe20bace03805460609160008051602061467383398151915291610b539061419a565b80601f0160208091040260200160405190810160405280929190818152602001828054610b7f9061419a565b8015610bcc5780601f10610ba157610100808354040283529160200191610bcc565b820191906000526020600020905b815481529060010190602001808311610baf57829003601f168201915b505050505091505090565b600033610be5818585611eaa565b60019150505b92915050565b6000546001600160a01b03163314610c0857600080fd5b600180546001600160a01b0319166001600160a01b0392909216919091179055565b600033610c38858285611eb7565b610c43858585611f1d565b60019150505b9392505050565b7ff0c57e16840df040f15088dc2f81fe391c3923bec73e23a9662efc9c229c6a008054600160401b810460ff16159067ffffffffffffffff16600081158015610c965750825b905060008267ffffffffffffffff166001148015610cb35750303b155b905081158015610cc1575080155b15610cdf5760405163f92ee8a960e01b815260040160405180910390fd5b845467ffffffffffffffff191660011785558315610d0957845460ff60401b1916600160401b1785555b610d1289611f7c565b610d1c8888611f8d565b610d24611f9f565b8551600080546001600160a01b03199081166001600160a01b03938416179091556020880151600180548316918416919091179055604088015160028054831691841691909117905560a088015160035560c088015160045560e088015160055561010080890151600655610120890151600755610140890151600855610160890151600955610180890151600a556101a0890151600b556101c0890151600c556101e0890151600d55610200890151600e55610220890151600f556102408901516010556102608901516011556102808901516012556102a0890151601680546102c08c015160608d0151601780549097169088161790955560808c015160ff93841661ffff199092169190911792909416909202176301000000600160b81b031916630100000092909316919091029190911790558315610ea157845460ff60401b19168555604051600181527fc7f505b2f371ae2175ee4913f4499e1f2633a7b5936321eed1cdaeb6115181d29060200160405180910390a15b505050505050505050565b610eb4611fa7565b610ebd8261204c565b610ec78282612054565b5050565b6000610ed5612111565b5060008051602061469383398151915290565b60165462010000900460ff16610f385760405162461bcd60e51b815260206004820152601060248201526f13195d99c8139bdd08195b98589b195960821b60448201526064015b60405180910390fd5b6000610f47601354858761215a565b90506000610f558233612190565b9050610f6184846121d5565b610f9d5760405162461bcd60e51b815260206004820152600d60248201526c1d995c9a599e4819985a5b1959609a1b6044820152606401610f2f565b600080610faa88886122be565b90925090506000610fbb83886141e4565b90506000610fc98783614211565b610fd4906001614225565b90506000610fe28284614238565b6016546040516308288d8f60e21b8152919250630100000090046001600160a01b0316906320a2363c9061101d90849060009060040161427f565b602060405180830381865afa15801561103a573d6000803e3d6000fd5b505050506040513d601f19601f8201168201806040525081019061105e919061429c565b61109e5760405162461bcd60e51b81526020600482015260116024820152703737ba1032b737bab3b41036b0b933b4b760791b6044820152606401610f2f565b6016546040516328ff4f1f60e11b81526004810183905263010000009091046001600160a01b0316906351fe9e3e90602401600060405180830381600087803b1580156110ea57600080fd5b505af11580156110fe573d6000803e3d6000fd5b5050505060006040518060e001604052808981526020018b81526020018581526020018481526020018a8152602001336001600160a01b03168152602001861515815250905061114d816125fe565b600254611165906001600160a01b031633308661290b565b6000601960008981526020019081526020016000206040518060a00160405290816000820154815260200160018201548152602001600282015481526020016003820154815260200160048201548152505090507fa66d549e27248adf5541ac239251a5f6c8117072e7ed07991b3fff58eb218b0c338e8e8460200151856000015186604001518760800151436040516112069897969594939291906142b9565b60405180910390a150505050505050505050505050565b60008311801561122e575060135483105b6112715760405162461bcd60e51b81526020600482015260146024820152731a5b9d985b1a59081c995919595b481c9bdd5b9960621b6044820152606401610f2f565b80518251146112bb5760405162461bcd60e51b81526020600482015260166024820152750c4c2e8c6d040d8cadccee8d040dcdee840dac2e8c6d60531b6044820152606401610f2f565b600033815b83518160ff16101561133457600061131287878460ff16815181106112e7576112e761430b565b6020026020010151878560ff16815181106113045761130461430b565b602002602001015186612a15565b905061131e8185614225565b935050808061132c90614321565b9150506112c0565b50811561135257600254611352906001600160a01b03168284612b79565b5050505050565b6001600160a01b03166000908152600080516020614673833981519152602052604090205490565b611389612c72565b6113936000612ccd565b565b600b546012546113a590836141e4565b6113af9190614211565b6113bb6012600a614424565b6113c433611359565b6113ce9190614211565b101561141c5760405162461bcd60e51b815260206004820152601960248201527f6e6f7420656e6f7567682076546f6b656e2062616c616e6365000000000000006044820152606401610f2f565b600080600061142c878787612d3e565b9250925092508261147f5760405162461bcd60e51b815260206004820152601860248201527f696e76616c6964206c69717569646174696f6e2063616c6c00000000000000006044820152606401610f2f565b808411156114c45760405162461bcd60e51b8152602060048201526012602482015271696e76616c69642063616c6c20736861726560701b6044820152606401610f2f565b60006114d3601354888a61215a565b905060006114e18288612190565b60008181526019602052604081208054600182015493945090926115079188918b612e8e565b601654602082015160405163b866d19360e01b81526004810191909152919250630100000090046001600160a01b03169063b866d19390602401600060405180830381600087803b15801561155b57600080fd5b505af115801561156f573d6000803e3d6000fd5b5050505080604001518260020154101561158a57600061159e565b8060400151826002015461159e9190614238565b600283015581548811156115b35760006115c0565b81546115c0908990614238565b82558051600183015410156115d65760006115e7565b805160018301546115e79190614238565b60018301556000848152601a6020526040902054881115611609576000611623565b6000848152601a6020526040902054611623908990614238565b6000858152601a60209081526040808320939093558351601b90915291902054101561165057600061166b565b80516000858152601b602052604090205461166b9190614238565b6000858152601b6020526040908190209190915560025460808301516060840151928401516116bc936001600160a01b03909316923392916116ad9190614238565b6116b79190614238565b612b79565b60025460165460808301516116e5926001600160a01b0390811692630100000090041690612b79565b6002546000546060830151611707926001600160a01b03908116921690612b79565b611740336117176012600a614424565b600b54601254611727908d6141e4565b6117319190614211565b61173b91906141e4565b612f7b565b7fa66d549e27248adf5541ac239251a5f6c8117072e7ed07991b3fff58eb218b0c898c8c85600101548660000154876002015488600401544360405161178d9897969594939291906142b9565b60405180910390a15050505050505050505050565b6000831180156117b3575060135483105b6117f65760405162461bcd60e51b81526020600482015260146024820152731a5b9d985b1a59081c995919595b481c9bdd5b9960621b6044820152606401610f2f565b80518251146118405760405162461bcd60e51b81526020600482015260166024820152750c4c2e8c6d040d8cadccee8d040dcdee840dac2e8c6d60531b6044820152606401610f2f565b600033815b83518160ff16101561133457600061189787878460ff168151811061186c5761186c61430b565b6020026020010151878560ff16815181106118895761188961430b565b602002602001015186612fb1565b90506118a38185614225565b93505080806118b190614321565b915050611845565b7f52c63247e1f47db19d5ce0460030c497f067ca4cebf71ba98eeadabe20bace04805460609160008051602061467383398151915291610b539061419a565b600033610be5818585611f1d565b6001546001600160a01b031633148061192957506000546001600160a01b031633145b6119665760405162461bcd60e51b815260206004820152600e60248201526d34b73b30b634b21031b0b63632b960911b6044820152606401610f2f565b60008061197161306f565b6013546000908152601d602052604081208390554260145543601555919350915061199b83613172565b6013805491925060006119ad83614433565b91905055506119bc8383613303565b80156119df576002546000546119df916001600160a01b03908116911683612b79565b505050565b60008111611a285760405162461bcd60e51b8152602060048201526011602482015270696e76616c6964207368617265206e756d60781b6044820152606401610f2f565b600454601454611a389042614238565b1115611a865760405162461bcd60e51b815260206004820152601b60248201527f6f70656e20706f736974696f6e2077696e646f7720636c6f73656400000000006044820152606401610f2f565b6000611a95601354848661215a565b90506000611aa385856122be565b5090506000611ab282856141e4565b6040805160e08101825285815260208101879052908101829052600060608201819052600160808301523360a083015260c0820152909150611af3816125fe565b600254611b0b906001600160a01b031633308561290b565b50505050505050565b6000546001600160a01b03163314611b2b57600080fd5b8051600080546001600160a01b03199081166001600160a01b03938416179091556020830151600180548316918416919091179055604083015160028054831691841691909117905560a083015160035560c083015160045560e083015160055561010080840151600655610120840151600755610140840151600855610160840151600955610180840151600a556101a0840151600b556101c0840151600c556101e0840151600d55610200840151600e55610220840151600f556102408401516010556102608401516011556102808401516012556102a0840151601680546102c08701516060880151601780549097169088161790955560809096015160ff92831661ffff199097169690961791909316909102176301000000600160b81b03191663010000009390921692909202179055565b6000611c71601354848661215a565b90506000611c7f8233612190565b6000818152601960205260409020805491925090611cd15760405162461bcd60e51b815260206004820152600f60248201526e373790363b33903837b9b4ba34b7b760891b6044820152606401610f2f565b6000611cdd87876122be565b9150508015611d6657600654601454611cf69190614225565b611d1883600401548460010154888660020154611d139190614225565b6133e4565b1115611d665760405162461bcd60e51b815260206004820152601b60248201527f4c7164742074696d65206578636565642065787069726174696f6e00000000006044820152606401610f2f565b84826002016000828254611d7a9190614225565b9091555050600254611d97906001600160a01b031633308861290b565b60018201548254600284015460048501546040517fa66d549e27248adf5541ac239251a5f6c8117072e7ed07991b3fff58eb218b0c94611dde9433948e948e9443906142b9565b60405180910390a150505050505050565b6001600160a01b0391821660009081527f52c63247e1f47db19d5ce0460030c497f067ca4cebf71ba98eeadabe20bace016020908152604080832093909416825291909152205490565b6000546001600160a01b03163314611e5057600080fd5b60168054911515620100000262ff000019909216919091179055565b611e74612c72565b6001600160a01b038116611e9e57604051631e4fbdf760e01b815260006004820152602401610f2f565b611ea781612ccd565b50565b6119df8383836001613409565b6000611ec38484611def565b90506000198114611f175781811015611f0857604051637dc7a0d960e11b81526001600160a01b03841660048201526024810182905260448101839052606401610f2f565b611f1784848484036000613409565b50505050565b6001600160a01b038316611f4757604051634b637e8f60e11b815260006004820152602401610f2f565b6001600160a01b038216611f715760405163ec442f0560e01b815260006004820152602401610f2f565b6119df8383836134f0565b611f8461362e565b611ea781613677565b611f9561362e565b610ec7828261367f565b61139361362e565b306001600160a01b037f000000000000000000000000000000000000000000000000000000000000000016148061202e57507f00000000000000000000000000000000000000000000000000000000000000006001600160a01b0316612022600080516020614693833981519152546001600160a01b031690565b6001600160a01b031614155b156113935760405163703e46dd60e11b815260040160405180910390fd5b611ea7612c72565b816001600160a01b03166352d1902d6040518163ffffffff1660e01b8152600401602060405180830381865afa9250505080156120ae575060408051601f3d908101601f191682019092526120ab9181019061444c565b60015b6120d657604051634c9c8ce360e01b81526001600160a01b0383166004820152602401610f2f565b600080516020614693833981519152811461210757604051632a87526960e21b815260048101829052602401610f2f565b6119df83836136d0565b306001600160a01b037f000000000000000000000000000000000000000000000000000000000000000016146113935760405163703e46dd60e11b815260040160405180910390fd5b600083838360405160200161217193929190614465565b6040516020818303038152906040528051906020012090509392505050565b600082826040516020016121b79291909182526001600160a01b0316602082015260400190565b60405160208183030381529060405280519060200120905092915050565b60008083116122165760405162461bcd60e51b815260206004820152600d60248201526c696e76616c696420736861726560981b6044820152606401610f2f565b6001821180156122285750600a548211155b6122675760405162461bcd60e51b815260206004820152601060248201526f696e76616c6964206c6576657261676560801b6044820152606401610f2f565b6004546014546122779042614238565b11156122b55760405162461bcd60e51b815260206004820152600d60248201526c1dda5b991bddc818db1bdcd959609a1b6044820152606401610f2f565b50600192915050565b6000806014546000036122d757505060035460006125f7565b6000806122e261306f565b6013546000908152601c6020908152604080832060ff8b16845290915281205460075460065494965092945092909161231a91614211565b9050600081600754601454426123309190614238565b61233a9190614211565b6123449190614225565b9050600061235385600a614424565b60085461236091906141e4565b90506000600854856123729190614211565b90506000600854886123849190614211565b9050600086891161239e576123998988614238565b6123a8565b6123a8878a614238565b905060008d60018111156123be576123be61424b565b036124da5788871080156123d25750838110155b1561243657836123e3600288614424565b6123ed90856141e4565b6123f791906141e4565b81612403600288614424565b8460035461241191906141e4565b61241b91906141e4565b61242591906141e4565b61242f9190614211565b9a506124d0565b88871180156124455750838110155b156124765780612456600288614424565b61246090856141e4565b61246a91906141e4565b84612403600288614424565b61248160c888614211565b61248c60c88b614211565b612497600289614424565b6124a2600289614424565b6003546124af91906141e4565b6124b99190614211565b6124c39190614225565b6124cd9190614238565b9a505b88871199506125ed565b88871180156124e95750838110155b1561254d57836124fa600288614424565b61250490846141e4565b61250e91906141e4565b8161251a600288614424565b8560035461252891906141e4565b61253291906141e4565b61253c91906141e4565b6125469190614211565b9a506125e7565b888710801561255c5750838110155b1561258d578061256d600288614424565b61257790846141e4565b61258191906141e4565b8461251a600288614424565b61259860c88a614211565b6125a360c889614211565b6125ae600289614424565b6125b9600289614424565b6003546125c691906141e4565b6125d09190614211565b6125da9190614225565b6125e49190614238565b9a505b88871099505b5050505050505050505b9250929050565b8060200151601a60008360000151815260200190815260200160002060008282546126299190614225565b909155505060408082015182516000908152601b602052918220805491929091612654908490614225565b9091555050805160a082015160009161266c91612190565b905081608001516001036126d657602080830151600083815260189092526040822080549192909161269f908490614225565b9091555050604080830151600083815260186020529182206001018054919290916126cb908490614225565b9091555061289d9050565b6000818152601960209081526040808320815160a0810183528154815260018201549381018490526002820154818401526003820154606082015260049091015460808201529085015190929161272d9190614225565b90506000846060015183604001516127459190614225565b90506000836060015160001461278c57856060015184604001516127699190614225565b8660400151856020015161277d9190614225565b6127879190614211565b612792565b85608001515b9050600084608001516000146127ac5784608001516127ae565b425b90508660c0015115612823576006546014546127ca9190614225565b6127d58286866133e4565b11156128235760405162461bcd60e51b815260206004820152601b60248201527f4c7164742074696d65206578636565642065787069726174696f6e00000000006044820152606401610f2f565b6040518060a00160405280886020015187600001516128429190614225565b8152602080820196909652604080820195909552606080820194909452608090810192909252600087815260198652849020815181559481015160018601559283015160028501559082015160038401550151600490910155505b60006005546014546128af9190614225565b4211156128c05782602001516128df565b600b5460115484602001516128d591906141e4565b6128df9190614211565b90506119df8360a001516128f1601290565b6128fc90600a614424565b61290690846141e4565b613726565b604080516001600160a01b0385811660248301528481166044830152606480830185905283518084039091018152608490920183526020820180516001600160e01b03166323b872dd60e01b179052915160009283929088169161296f919061448c565b6000604051808303816000865af19150503d80600081146129ac576040519150601f19603f3d011682016040523d82523d6000602084013e6129b1565b606091505b50915091508180156129db5750805115806129db5750808060200190518101906129db919061429c565b612a0d5760405162461bcd60e51b815260206004820152600360248201526229aa2360e91b6044820152606401610f2f565b505050505050565b600080612a2386858761215a565b90506000612a318285612190565b60008181526019602052604090206002810154600182015492935090911115612ad3576016546002820154600183015463010000009092046001600160a01b03169163b866d19391612a8291614238565b6040518263ffffffff1660e01b8152600401612aa091815260200190565b600060405180830381600087803b158015612aba57600080fd5b505af1158015612ace573d6000803e3d6000fd5b505050505b6000888152601d60205260408120548190612af1908b908a9061375c565b91509150806001811115612b0757612b0761424b565b896001811115612b1957612b1961424b565b03612b305750506000908190559250612b71915050565b6000612b3d8b8a8561215a565b90506000612b4c8c8b8561215a565b9050612b6285600001548660020154848461379b565b60009095555092955050505050505b949350505050565b604080516001600160a01b038481166024830152604480830185905283518084039091018152606490920183526020820180516001600160e01b031663a9059cbb60e01b1790529151600092839290871691612bd5919061448c565b6000604051808303816000865af19150503d8060008114612c12576040519150601f19603f3d011682016040523d82523d6000602084013e612c17565b606091505b5091509150818015612c41575080511580612c41575080806020019051810190612c41919061429c565b6113525760405162461bcd60e51b815260206004820152600260248201526114d560f21b6044820152606401610f2f565b33612ca47f9016d09d72d40fdae2fd8ceac6b6234c7706214fd39c1cd1e609a0528c199300546001600160a01b031690565b6001600160a01b0316146113935760405163118cdaa760e01b8152336004820152602401610f2f565b7f9016d09d72d40fdae2fd8ceac6b6234c7706214fd39c1cd1e609a0528c19930080546001600160a01b031981166001600160a01b03848116918217845560405192169182907f8be0079c531659141344cd1fd0a4f28419497f9722a3daafe3b4186f6b6457e090600090a3505050565b600080600080612d5a612d54601354888a61215a565b86612190565b600081815260196020908152604091829020825160a081018452815480825260018301549382019390935260028201549381019390935260038101546060840152600401546080830152919250901580612db657506020810151155b80612dc357506040810151155b80612dd057506080810151155b15612de75760008060009450945094505050612e85565b6000612e008260800151836020015184604001516133e4565b9050804211612e1c576000806000955095509550505050612e85565b6000612e2661306f565b506013546000908152601c6020908152604080832060ff8e168452909152902054909150612e558b83836137cb565b15612e745750505060408101519051600195509093509150612e859050565b600080600097509750975050505050505b93509350939050565b612ec06040518060a0016040528060008152602001600081526020016000815260200160008152602001600081525090565b600084612ecd84866141e4565b612ed79190614211565b9050600085612ee685896141e4565b612ef09190614211565b9050600081831015612f03576000612f0d565b612f0d8284614238565b90506000600b54600f5484612f2291906141e4565b612f2c9190614211565b90506000600b5460105485612f4191906141e4565b612f4b9190614211565b6040805160a081018252968752602087019490945292850193909352606084015260808301525095945050505050565b6001600160a01b038216612fa557604051634b637e8f60e11b815260006004820152602401610f2f565b610ec7826000836134f0565b6000806000612fd48786601d60008b81526020019081526020016000205461375c565b915091506000612fe588878561215a565b90506000612ff489888561215a565b905060006130038a898b61215a565b905060006130118289612190565b600081815260186020526040902090915061305b8760018111156130375761303761424b565b8c60018111156130495761304961424b565b14826000015483600101548888613816565b60009091559b9a5050505050505050505050565b6000806000601760009054906101000a90046001600160a01b03166001600160a01b031663feaf968c6040518163ffffffff1660e01b815260040160a060405180830381865afa1580156130c7573d6000803e3d6000fd5b505050506040513d601f19601f820116820180604052508101906130eb91906144c2565b50505091505080601760009054906101000a90046001600160a01b03166001600160a01b031663313ce5676040518163ffffffff1660e01b8152600401602060405180830381865afa158015613145573d6000803e3d6000fd5b505050506040513d601f19601f820116820180604052508101906131699190614512565b92509250509091565b600060135460000361318357919050565b60005b60165460ff610100909104811690821610156132fd5760006131ab601354838661375c565b91505060006131bd601354848461215a565b90506000601660039054906101000a90046001600160a01b03166001600160a01b031663568914126040518163ffffffff1660e01b8152600401602060405180830381865afa158015613214573d6000803e3d6000fd5b505050506040513d601f19601f82011682018060405250810190613238919061444c565b11156132a757601660039054906101000a90046001600160a01b03166001600160a01b031663d135cc4b6040518163ffffffff1660e01b8152600401600060405180830381600087803b15801561328e57600080fd5b505af11580156132a2573d6000803e3d6000fd5b505050505b600b546132b490806141e4565b600e54600c546000848152601b60205260409020546132d391906141e4565b6132dd91906141e4565b6132e79190614211565b6132f19085614225565b93505050600101613186565b50919050565b60165460009060029061332090600190610100900460ff1661452f565b61332a9190614548565b60ff1660095461333a91906141e4565b6009548061334985600a614424565b6133539087614211565b61335d9190614211565b61336791906141e4565b6133719190614238565b905060005b60165460ff61010090910481169082161015611f175761339783600a614424565b8160ff166009546133a891906141e4565b6133b29084614225565b6133bc91906141e4565b6013546000908152601c6020908152604080832060ff86168452909152902055600101613376565b600082826006546133f591906141e4565b6133ff9190614211565b612b719085614225565b6000805160206146738339815191526001600160a01b0385166134425760405163e602df0560e01b815260006004820152602401610f2f565b6001600160a01b03841661346c57604051634a1406b160e11b815260006004820152602401610f2f565b6001600160a01b0380861660009081526001830160209081526040808320938816835292905220839055811561135257836001600160a01b0316856001600160a01b03167f8c5be1e5ebec7d5bd14f71427d1e84f3dd0314c0f7b2291e5b200ac8c7c3b925856040516134e191815260200190565b60405180910390a35050505050565b6000805160206146738339815191526001600160a01b03841661352c57818160020160008282546135219190614225565b9091555061359e9050565b6001600160a01b0384166000908152602082905260409020548281101561357f5760405163391434e360e21b81526001600160a01b03861660048201526024810182905260448101849052606401610f2f565b6001600160a01b03851660009081526020839052604090209083900390555b6001600160a01b0383166135bc5760028101805483900390556135db565b6001600160a01b03831660009081526020829052604090208054830190555b826001600160a01b0316846001600160a01b03167fddf252ad1be2c89b69c2b068fc378daa952ba7f163c4a11628f55a4df523b3ef8460405161362091815260200190565b60405180910390a350505050565b7ff0c57e16840df040f15088dc2f81fe391c3923bec73e23a9662efc9c229c6a0054600160401b900460ff1661139357604051631afcd79f60e31b815260040160405180910390fd5b611e7461362e565b61368761362e565b6000805160206146738339815191527f52c63247e1f47db19d5ce0460030c497f067ca4cebf71ba98eeadabe20bace036136c184826145b2565b5060048101611f1783826145b2565b6136d982613875565b6040516001600160a01b038316907fbc7cd75a20ee27fd9adebab32041f755214dbc6bffa90cc0225b39da2e5c2d3b90600090a280511561371e576119df82826138da565b610ec7613947565b6001600160a01b0382166137505760405163ec442f0560e01b815260006004820152602401610f2f565b610ec7600083836134f0565b6000838152601c6020908152604080832060ff861684529091528120548190831161378a576001600061378f565b600060015b90969095509350505050565b6000846000036137ad57506000612b71565b6137b8858484613966565b6137c29085614225565b95945050505050565b6000808460018111156137e0576137e061424b565b1480156137ed5750818311155b80612b71575060018460018111156138075761380761424b565b148015612b7157505010919050565b600084600003613828575060006137c2565b8561385657600b54600c5461383d9082614238565b61384790866141e4565b6138519190614211565b61386b565b613861858484613966565b61386b9085614225565b9695505050505050565b806001600160a01b03163b6000036138ab57604051634c9c8ce360e01b81526001600160a01b0382166004820152602401610f2f565b60008051602061469383398151915280546001600160a01b0319166001600160a01b0392909216919091179055565b6060600080846001600160a01b0316846040516138f7919061448c565b600060405180830381855af49150503d8060008114613932576040519150601f19603f3d011682016040523d82523d6000602084013e613937565b606091505b50915091506137c28583836139e8565b34156113935760405163b398979f60e01b815260040160405180910390fd5b6000828152601a6020526040812054810361398357506000610c49565b6000838152601a6020526040902054600b5461399f90806141e4565b6139a991906141e4565b600d54600c546000858152601b60205260409020548792916139ca916141e4565b6139d491906141e4565b6139de91906141e4565b612b719190614211565b6060826139fd576139f882613a44565b610c49565b8151158015613a1457506001600160a01b0384163b155b15613a3d57604051639996b31560e01b81526001600160a01b0385166004820152602401610f2f565b5080610c49565b805115613a545780518082602001fd5b604051630a12f52160e11b815260040160405180910390fd5b60005b83811015613a88578181015183820152602001613a70565b50506000910152565b6020815260008251806020840152613ab0816040850160208701613a6d565b601f01601f19169190910160400192915050565b80356001600160a01b0381168114613adb57600080fd5b919050565b60008060408385031215613af357600080fd5b613afc83613ac4565b946020939093013593505050565b60ff81168114611ea757600080fd5b8035613adb81613b0a565b60008060408385031215613b3757600080fd5b823591506020830135613b4981613b0a565b809150509250929050565b600060208284031215613b6657600080fd5b5035919050565b600060208284031215613b7f57600080fd5b610c4982613ac4565b600080600060608486031215613b9d57600080fd5b613ba684613ac4565b9250613bb460208501613ac4565b9150604084013590509250925092565b634e487b7160e01b600052604160045260246000fd5b6040516102e0810167ffffffffffffffff81118282101715613bfe57613bfe613bc4565b60405290565b604051601f8201601f1916810167ffffffffffffffff81118282101715613c2d57613c2d613bc4565b604052919050565b600067ffffffffffffffff831115613c4f57613c4f613bc4565b613c62601f8401601f1916602001613c04565b9050828152838383011115613c7657600080fd5b828260208301376000602084830101529392505050565b600082601f830112613c9e57600080fd5b610c4983833560208501613c35565b60006102e08284031215613cc057600080fd5b613cc8613bda565b9050613cd382613ac4565b8152613ce160208301613ac4565b6020820152613cf260408301613ac4565b6040820152613d0360608301613ac4565b6060820152613d1460808301613ac4565b608082015260a0828101359082015260c0808301359082015260e08083013590820152610100808301359082015261012080830135908201526101408083013590820152610160808301359082015261018080830135908201526101a080830135908201526101c080830135908201526101e08083013590820152610200808301359082015261022080830135908201526102408083013590820152610260808301359082015261028080830135908201526102a0613dd4818401613b19565b908201526102c0613de6838201613b19565b9082015292915050565b6000806000806103408587031215613e0757600080fd5b613e1085613ac4565b9350602085013567ffffffffffffffff80821115613e2d57600080fd5b613e3988838901613c8d565b94506040870135915080821115613e4f57600080fd5b50613e5c87828801613c8d565b925050613e6c8660608701613cad565b905092959194509250565b60008060408385031215613e8a57600080fd5b613e9383613ac4565b9150602083013567ffffffffffffffff811115613eaf57600080fd5b8301601f81018513613ec057600080fd5b613ecf85823560208401613c35565b9150509250929050565b803560028110613adb57600080fd5b60008060008060808587031215613efe57600080fd5b613f0785613ed9565b93506020850135613f1781613b0a565b93969395505050506040820135916060013590565b600067ffffffffffffffff821115613f4657613f46613bc4565b5060051b60200190565b600082601f830112613f6157600080fd5b81356020613f76613f7183613f2c565b613c04565b8083825260208201915060208460051b870101935086841115613f9857600080fd5b602086015b84811015613fbd578035613fb081613b0a565b8352918301918301613f9d565b509695505050505050565b600080600060608486031215613fdd57600080fd5b8335925060208085013567ffffffffffffffff80821115613ffd57600080fd5b818701915087601f83011261401157600080fd5b813561401f613f7182613f2c565b81815260059190911b8301840190848101908a83111561403e57600080fd5b938501935b828510156140635761405485613ed9565b82529385019390850190614043565b96505050604087013592508083111561407b57600080fd5b505061408986828701613f50565b9150509250925092565b600080600080608085870312156140a957600080fd5b6140b285613ed9565b935060208501356140c281613b0a565b92506140d060408601613ac4565b9396929550929360600135925050565b6000806000606084860312156140f557600080fd5b6140fe84613ed9565b9250602084013561410e81613b0a565b929592945050506040919091013590565b60006102e0828403121561413257600080fd5b610c498383613cad565b6000806040838503121561414f57600080fd5b61415883613ac4565b915061416660208401613ac4565b90509250929050565b8015158114611ea757600080fd5b60006020828403121561418f57600080fd5b8135610c498161416f565b600181811c908216806141ae57607f821691505b6020821081036132fd57634e487b7160e01b600052602260045260246000fd5b634e487b7160e01b600052601160045260246000fd5b8082028115828204841417610beb57610beb6141ce565b634e487b7160e01b600052601260045260246000fd5b600082614220576142206141fb565b500490565b80820180821115610beb57610beb6141ce565b81810381811115610beb57610beb6141ce565b634e487b7160e01b600052602160045260246000fd5b60028110611ea757634e487b7160e01b600052602160045260246000fd5b8281526040810161428f83614261565b8260208301529392505050565b6000602082840312156142ae57600080fd5b8151610c498161416f565b6001600160a01b038916815261010081016142d389614261565b602082019890985260ff9690961660408701526060860194909452608085019290925260a084015260c083015260e090910152919050565b634e487b7160e01b600052603260045260246000fd5b600060ff821660ff8103614337576143376141ce565b60010192915050565b600181815b8085111561437b578160001904821115614361576143616141ce565b8085161561436e57918102915b93841c9390800290614345565b509250929050565b60008261439257506001610beb565b8161439f57506000610beb565b81600181146143b557600281146143bf576143db565b6001915050610beb565b60ff8411156143d0576143d06141ce565b50506001821b610beb565b5060208310610133831016604e8410600b84101617156143fe575081810a610beb565b6144088383614340565b806000190482111561441c5761441c6141ce565b029392505050565b6000610c4960ff841683614383565b600060018201614445576144456141ce565b5060010190565b60006020828403121561445e57600080fd5b5051919050565b83815260ff831660208201526060810161447e83614261565b826040830152949350505050565b6000825161449e818460208701613a6d565b9190910192915050565b805169ffffffffffffffffffff81168114613adb57600080fd5b600080600080600060a086880312156144da57600080fd5b6144e3866144a8565b9450602086015193506040860151925060608601519150614506608087016144a8565b90509295509295909350565b60006020828403121561452457600080fd5b8151610c4981613b0a565b60ff8281168282160390811115610beb57610beb6141ce565b600060ff83168061455b5761455b6141fb565b8060ff84160491505092915050565b601f8211156119df576000816000526020600020601f850160051c810160208610156145935750805b601f850160051c820191505b81811015612a0d5782815560010161459f565b815167ffffffffffffffff8111156145cc576145cc613bc4565b6145e0816145da845461419a565b8461456a565b602080601f83116001811461461557600084156145fd5750858301515b600019600386901b1c1916600185901b178555612a0d565b600085815260208120601f198616915b8281101561464457888601518255948401946001909101908401614625565b50858210156146625787850151600019600388901b60f8161c191681555b5050505050600190811b0190555056fe52c63247e1f47db19d5ce0460030c497f067ca4cebf71ba98eeadabe20bace00360894a13ba1a3210667c828492db98dca3e2076cc3735a920a3ca505d382bbca26469706673582212207970e88865238575cdd6ec81df3561490b70bede5d914fbc1a67c42220c5438164736f6c63430008180033","linkReferences":{}},"methodIdentifiers":{"UPGRADE_INTERFACE_VERSION()":"ad3cb1cc","addMargin(uint8,uint8,uint256)":"d91db8d5","admin()":"f851a440","adminPerc()":"26b91f5b","allShare(bytes32)":"67327fdc","allValue(bytes32)":"7401ecf7","allowance(address,address)":"dd62ed3e","approve(address,uint256)":"095ea7b3","balanceOf(address)":"70a08231","basePerc()":"77049fc1","baseSharePrice()":"34db3b9c","decimals()":"313ce567","enableLevg(bool)":"dfeb1c4d","ethPrices(uint256)":"2a698bed","expiration()":"4665096d","forwarder()":"f645d4f9","globalRound()":"180613bf","incenVTokenPerc()":"dcee2a26","incenWindow()":"77e0970b","initialize(address,string,string,(address,address,address,address,address,uint256,uint256,uint256,uint256,uint256,uint256,uint256,uint256,uint256,uint256,uint256,uint256,uint256,uint256,uint256,uint256,uint8,uint8))":"287fb37c","isLevgEnabled()":"fadd6b09","lastStrikeBlock()":"fbee2d8c","lastStrikeTime()":"8156538e","levgPositions(bytes32)":"178e7a6e","liquidationCall(uint8,uint8,address,uint256)":"73efbf39","liquidationVTokenPerc()":"5eb9d285","lqdtAdminFeePerc()":"3386a39a","lqdtVaultFeePerc()":"dd738ef1","maxLeverage()":"ae3302c2","name()":"06fdde03","openPositionLevg(uint8,uint8,uint256,uint256)":"679e5aa3","openPositionSpot(uint8,uint8,uint256)":"c3f67ce2","owner()":"8da5cb5b","priceFactor()":"dfb2866d","proxiableUUID()":"52d1902d","pubVault()":"276b28b5","redeemLevgBatch(uint256,uint8[],uint8[])":"6a708ecc","redeemSpotBatch(uint256,uint8[],uint8[])":"7bc95d84","renounceOwnership()":"715018a6","roundWindow()":"1031a063","spotPositions(bytes32)":"3e0e1f47","strike()":"ad8f5008","strikeSpacing()":"4ff41071","strikes(uint256,uint8)":"151b8e66","symbol()":"95d89b41","timeFactor()":"822daf60","totalSupply()":"18160ddd","transfer(address,uint256)":"a9059cbb","transferFrom(address,address,uint256)":"23b872dd","transferOwnership(address)":"f2fde38b","updateForwarder(address)":"2291237e","updateParams((address,address,address,address,address,uint256,uint256,uint256,uint256,uint256,uint256,uint256,uint256,uint256,uint256,uint256,uint256,uint256,uint256,uint256,uint256,uint8,uint8))":"c9fe85d9","upgradeToAndCall(address,bytes)":"4f1ef286","usdt()":"2f48ab7d","usdtDecimals()":"82543b32","vSlots()":"1bf751ef","winPerc()":"ba17128b","winnerPerc()":"b8447456"},"id":14}