{"abi":[{"type":"constructor","inputs":[],"stateMutability":"nonpayable"},{"type":"function","name":"UPGRADE_INTERFACE_VERSION","inputs":[],"outputs":[{"name":"","type":"string","internalType":"string"}],"stateMutability":"view"},{"type":"function","name":"addMargin","inputs":[{"name":"oType","type":"uint8","internalType":"enum IRaven.OType"},{"name":"slot","type":"uint8","internalType":"uint8"},{"name":"marginToAdd","type":"uint256","internalType":"uint256"}],"outputs":[],"stateMutability":"nonpayable"},{"type":"function","name":"admin","inputs":[],"outputs":[{"name":"","type":"address","internalType":"address"}],"stateMutability":"view"},{"type":"function","name":"adminPerc","inputs":[],"outputs":[{"name":"","type":"uint256","internalType":"uint256"}],"stateMutability":"view"},{"type":"function","name":"allShare","inputs":[{"name":"optionId","type":"bytes32","internalType":"bytes32"}],"outputs":[{"name":"share","type":"uint256","internalType":"uint256"}],"stateMutability":"view"},{"type":"function","name":"allValue","inputs":[{"name":"optionId","type":"bytes32","internalType":"bytes32"}],"outputs":[{"name":"value","type":"uint256","internalType":"uint256"}],"stateMutability":"view"},{"type":"function","name":"allowance","inputs":[{"name":"owner","type":"address","internalType":"address"},{"name":"spender","type":"address","internalType":"address"}],"outputs":[{"name":"","type":"uint256","internalType":"uint256"}],"stateMutability":"view"},{"type":"function","name":"approve","inputs":[{"name":"spender","type":"address","internalType":"address"},{"name":"value","type":"uint256","internalType":"uint256"}],"outputs":[{"name":"","type":"bool","internalType":"bool"}],"stateMutability":"nonpayable"},{"type":"function","name":"balanceOf","inputs":[{"name":"account","type":"address","internalType":"address"}],"outputs":[{"name":"","type":"uint256","internalType":"uint256"}],"stateMutability":"view"},{"type":"function","name":"basePerc","inputs":[],"outputs":[{"name":"","type":"uint256","internalType":"uint256"}],"stateMutability":"view"},{"type":"function","name":"baseSharePrice","inputs":[],"outputs":[{"name":"","type":"uint256","internalType":"uint256"}],"stateMutability":"view"},{"type":"function","name":"controlOpenPos","inputs":[{"name":"isOpenPosEnabled_","type":"bool","internalType":"bool"}],"outputs":[],"stateMutability":"nonpayable"},{"type":"function","name":"decimals","inputs":[],"outputs":[{"name":"","type":"uint8","internalType":"uint8"}],"stateMutability":"view"},{"type":"function","name":"enableLevg","inputs":[{"name":"enabled","type":"bool","internalType":"bool"}],"outputs":[],"stateMutability":"nonpayable"},{"type":"function","name":"ethPrices","inputs":[{"name":"round","type":"uint256","internalType":"uint256"}],"outputs":[{"name":"ethPrice","type":"uint256","internalType":"uint256"}],"stateMutability":"view"},{"type":"function","name":"expiration","inputs":[],"outputs":[{"name":"","type":"uint256","internalType":"uint256"}],"stateMutability":"view"},{"type":"function","name":"forwarder","inputs":[],"outputs":[{"name":"","type":"address","internalType":"address"}],"stateMutability":"view"},{"type":"function","name":"globalRound","inputs":[],"outputs":[{"name":"","type":"uint256","internalType":"uint256"}],"stateMutability":"view"},{"type":"function","name":"incenVTokenPerc","inputs":[],"outputs":[{"name":"","type":"uint256","internalType":"uint256"}],"stateMutability":"view"},{"type":"function","name":"incenWindow","inputs":[],"outputs":[{"name":"","type":"uint256","internalType":"uint256"}],"stateMutability":"view"},{"type":"function","name":"initialize","inputs":[{"name":"owner_","type":"address","internalType":"address"},{"name":"name_","type":"string","internalType":"string"},{"name":"symbol_","type":"string","internalType":"string"},{"name":"cp","type":"tuple","internalType":"struct IRaven.ConstructParams","components":[{"name":"Admin","type":"address","internalType":"address"},{"name":"Forwarder","type":"address","internalType":"address"},{"name":"Usdt","type":"address","internalType":"address"},{"name":"DataFeedAddress","type":"address","internalType":"address"},{"name":"OracleAddress","type":"address","internalType":"address"},{"name":"PubVaultAddress","type":"address","internalType":"address"},{"name":"BaseSharePrice","type":"uint256","internalType":"uint256"},{"name":"RoundWindow","type":"uint256","internalType":"uint256"},{"name":"IncenWindow","type":"uint256","internalType":"uint256"},{"name":"Expiration","type":"uint256","internalType":"uint256"},{"name":"TimeFactor","type":"uint256","internalType":"uint256"},{"name":"PriceFactor","type":"uint256","internalType":"uint256"},{"name":"StrikeSpacing","type":"uint256","internalType":"uint256"},{"name":"MaxLeverage","type":"uint256","internalType":"uint256"},{"name":"BasePerc","type":"uint256","internalType":"uint256"},{"name":"WinPerc","type":"uint256","internalType":"uint256"},{"name":"WinnerPerc","type":"uint256","internalType":"uint256"},{"name":"AdminPerc","type":"uint256","internalType":"uint256"},{"name":"LqdtAdminFeePerc","type":"uint256","internalType":"uint256"},{"name":"LqdtVaultFeePerc","type":"uint256","internalType":"uint256"},{"name":"IncenVTokenPerc","type":"uint256","internalType":"uint256"},{"name":"LiquidationVTokenPerc","type":"uint256","internalType":"uint256"},{"name":"UsdtDecimals","type":"uint8","internalType":"uint8"},{"name":"VSlots","type":"uint8","internalType":"uint8"}]}],"outputs":[],"stateMutability":"nonpayable"},{"type":"function","name":"isLevgEnabled","inputs":[],"outputs":[{"name":"","type":"bool","internalType":"bool"}],"stateMutability":"view"},{"type":"function","name":"isOpenPosEnabled","inputs":[],"outputs":[{"name":"","type":"bool","internalType":"bool"}],"stateMutability":"view"},{"type":"function","name":"lastStrikeBlock","inputs":[],"outputs":[{"name":"","type":"uint256","internalType":"uint256"}],"stateMutability":"view"},{"type":"function","name":"lastStrikeTime","inputs":[],"outputs":[{"name":"","type":"uint256","internalType":"uint256"}],"stateMutability":"view"},{"type":"function","name":"levgPositions","inputs":[{"name":"positionId","type":"bytes32","internalType":"bytes32"}],"outputs":[{"name":"Share","type":"uint256","internalType":"uint256"},{"name":"Value","type":"uint256","internalType":"uint256"},{"name":"Margin","type":"uint256","internalType":"uint256"},{"name":"Leverage","type":"uint256","internalType":"uint256"},{"name":"OpenTime","type":"uint256","internalType":"uint256"}],"stateMutability":"view"},{"type":"function","name":"liquidationCall","inputs":[{"name":"oType","type":"uint8","internalType":"enum IRaven.OType"},{"name":"slot","type":"uint8","internalType":"uint8"},{"name":"user","type":"address","internalType":"address"},{"name":"callShare","type":"uint256","internalType":"uint256"}],"outputs":[],"stateMutability":"nonpayable"},{"type":"function","name":"liquidationVTokenPerc","inputs":[],"outputs":[{"name":"","type":"uint256","internalType":"uint256"}],"stateMutability":"view"},{"type":"function","name":"lqdtAdminFeePerc","inputs":[],"outputs":[{"name":"","type":"uint256","internalType":"uint256"}],"stateMutability":"view"},{"type":"function","name":"lqdtVaultFeePerc","inputs":[],"outputs":[{"name":"","type":"uint256","internalType":"uint256"}],"stateMutability":"view"},{"type":"function","name":"maxLeverage","inputs":[],"outputs":[{"name":"","type":"uint256","internalType":"uint256"}],"stateMutability":"view"},{"type":"function","name":"name","inputs":[],"outputs":[{"name":"","type":"string","internalType":"string"}],"stateMutability":"view"},{"type":"function","name":"openPositionLevg","inputs":[{"name":"oType","type":"uint8","internalType":"enum IRaven.OType"},{"name":"slot","type":"uint8","internalType":"uint8"},{"name":"shares","type":"uint256","internalType":"uint256"},{"name":"leverage","type":"uint256","internalType":"uint256"}],"outputs":[],"stateMutability":"nonpayable"},{"type":"function","name":"openPositionSpot","inputs":[{"name":"oType","type":"uint8","internalType":"enum IRaven.OType"},{"name":"slot","type":"uint8","internalType":"uint8"},{"name":"shares","type":"uint256","internalType":"uint256"}],"outputs":[],"stateMutability":"nonpayable"},{"type":"function","name":"oracle","inputs":[],"outputs":[{"name":"","type":"address","internalType":"contract IOracle"}],"stateMutability":"view"},{"type":"function","name":"owner","inputs":[],"outputs":[{"name":"","type":"address","internalType":"address"}],"stateMutability":"view"},{"type":"function","name":"priceFactor","inputs":[],"outputs":[{"name":"","type":"uint256","internalType":"uint256"}],"stateMutability":"view"},{"type":"function","name":"proxiableUUID","inputs":[],"outputs":[{"name":"","type":"bytes32","internalType":"bytes32"}],"stateMutability":"view"},{"type":"function","name":"pubVault","inputs":[],"outputs":[{"name":"","type":"address","internalType":"contract IPubVault"}],"stateMutability":"view"},{"type":"function","name":"redeemLevgBatch","inputs":[{"name":"redeemRound","type":"uint256","internalType":"uint256"},{"name":"oTypes","type":"uint8[]","internalType":"enum IRaven.OType[]"},{"name":"slots","type":"uint8[]","internalType":"uint8[]"}],"outputs":[],"stateMutability":"nonpayable"},{"type":"function","name":"redeemSpotBatch","inputs":[{"name":"redeemRound","type":"uint256","internalType":"uint256"},{"name":"oTypes","type":"uint8[]","internalType":"enum IRaven.OType[]"},{"name":"slots","type":"uint8[]","internalType":"uint8[]"}],"outputs":[],"stateMutability":"nonpayable"},{"type":"function","name":"renounceOwnership","inputs":[],"outputs":[],"stateMutability":"nonpayable"},{"type":"function","name":"roundWindow","inputs":[],"outputs":[{"name":"","type":"uint256","internalType":"uint256"}],"stateMutability":"view"},{"type":"function","name":"spotPositions","inputs":[{"name":"positionId","type":"bytes32","internalType":"bytes32"}],"outputs":[{"name":"Share","type":"uint256","internalType":"uint256"},{"name":"Value","type":"uint256","internalType":"uint256"}],"stateMutability":"view"},{"type":"function","name":"strike","inputs":[],"outputs":[],"stateMutability":"nonpayable"},{"type":"function","name":"strikeRecovery","inputs":[{"name":"ethPriceNow","type":"uint256","internalType":"uint256"},{"name":"decimal","type":"uint8","internalType":"uint8"},{"name":"actualLastStrikeTime","type":"uint256","internalType":"uint256"},{"name":"actualLastStrikeBlock","type":"uint256","internalType":"uint256"}],"outputs":[],"stateMutability":"nonpayable"},{"type":"function","name":"strikeSpacing","inputs":[],"outputs":[{"name":"","type":"uint256","internalType":"uint256"}],"stateMutability":"view"},{"type":"function","name":"strikes","inputs":[{"name":"round","type":"uint256","internalType":"uint256"},{"name":"slot","type":"uint8","internalType":"uint8"}],"outputs":[{"name":"strike","type":"uint256","internalType":"uint256"}],"stateMutability":"view"},{"type":"function","name":"symbol","inputs":[],"outputs":[{"name":"","type":"string","internalType":"string"}],"stateMutability":"view"},{"type":"function","name":"timeFactor","inputs":[],"outputs":[{"name":"","type":"uint256","internalType":"uint256"}],"stateMutability":"view"},{"type":"function","name":"totalSupply","inputs":[],"outputs":[{"name":"","type":"uint256","internalType":"uint256"}],"stateMutability":"view"},{"type":"function","name":"transfer","inputs":[{"name":"to","type":"address","internalType":"address"},{"name":"value","type":"uint256","internalType":"uint256"}],"outputs":[{"name":"","type":"bool","internalType":"bool"}],"stateMutability":"nonpayable"},{"type":"function","name":"transferFrom","inputs":[{"name":"from","type":"address","internalType":"address"},{"name":"to","type":"address","internalType":"address"},{"name":"value","type":"uint256","internalType":"uint256"}],"outputs":[{"name":"","type":"bool","internalType":"bool"}],"stateMutability":"nonpayable"},{"type":"function","name":"transferOwnership","inputs":[{"name":"newOwner","type":"address","internalType":"address"}],"outputs":[],"stateMutability":"nonpayable"},{"type":"function","name":"updateForwarder","inputs":[{"name":"newForwarder","type":"address","internalType":"address"}],"outputs":[],"stateMutability":"nonpayable"},{"type":"function","name":"updateParams","inputs":[{"name":"cp","type":"tuple","internalType":"struct IRaven.ConstructParams","components":[{"name":"Admin","type":"address","internalType":"address"},{"name":"Forwarder","type":"address","internalType":"address"},{"name":"Usdt","type":"address","internalType":"address"},{"name":"DataFeedAddress","type":"address","internalType":"address"},{"name":"OracleAddress","type":"address","internalType":"address"},{"name":"PubVaultAddress","type":"address","internalType":"address"},{"name":"BaseSharePrice","type":"uint256","internalType":"uint256"},{"name":"RoundWindow","type":"uint256","internalType":"uint256"},{"name":"IncenWindow","type":"uint256","internalType":"uint256"},{"name":"Expiration","type":"uint256","internalType":"uint256"},{"name":"TimeFactor","type":"uint256","internalType":"uint256"},{"name":"PriceFactor","type":"uint256","internalType":"uint256"},{"name":"StrikeSpacing","type":"uint256","internalType":"uint256"},{"name":"MaxLeverage","type":"uint256","internalType":"uint256"},{"name":"BasePerc","type":"uint256","internalType":"uint256"},{"name":"WinPerc","type":"uint256","internalType":"uint256"},{"name":"WinnerPerc","type":"uint256","internalType":"uint256"},{"name":"AdminPerc","type":"uint256","internalType":"uint256"},{"name":"LqdtAdminFeePerc","type":"uint256","internalType":"uint256"},{"name":"LqdtVaultFeePerc","type":"uint256","internalType":"uint256"},{"name":"IncenVTokenPerc","type":"uint256","internalType":"uint256"},{"name":"LiquidationVTokenPerc","type":"uint256","internalType":"uint256"},{"name":"UsdtDecimals","type":"uint8","internalType":"uint8"},{"name":"VSlots","type":"uint8","internalType":"uint8"}]}],"outputs":[],"stateMutability":"nonpayable"},{"type":"function","name":"upgradeToAndCall","inputs":[{"name":"newImplementation","type":"address","internalType":"address"},{"name":"data","type":"bytes","internalType":"bytes"}],"outputs":[],"stateMutability":"payable"},{"type":"function","name":"usdt","inputs":[],"outputs":[{"name":"","type":"address","internalType":"address"}],"stateMutability":"view"},{"type":"function","name":"usdtDecimals","inputs":[],"outputs":[{"name":"","type":"uint8","internalType":"uint8"}],"stateMutability":"view"},{"type":"function","name":"vSlots","inputs":[],"outputs":[{"name":"","type":"uint8","internalType":"uint8"}],"stateMutability":"view"},{"type":"function","name":"winPerc","inputs":[],"outputs":[{"name":"","type":"uint256","internalType":"uint256"}],"stateMutability":"view"},{"type":"function","name":"winnerPerc","inputs":[],"outputs":[{"name":"","type":"uint256","internalType":"uint256"}],"stateMutability":"view"},{"type":"event","name":"Approval","inputs":[{"name":"owner","type":"address","indexed":true,"internalType":"address"},{"name":"spender","type":"address","indexed":true,"internalType":"address"},{"name":"value","type":"uint256","indexed":false,"internalType":"uint256"}],"anonymous":false},{"type":"event","name":"Initialized","inputs":[{"name":"version","type":"uint64","indexed":false,"internalType":"uint64"}],"anonymous":false},{"type":"event","name":"LiquidationUpdated","inputs":[{"name":"user","type":"address","indexed":false,"internalType":"address"},{"name":"oType","type":"uint8","indexed":false,"internalType":"enum IRaven.OType"},{"name":"slot","type":"uint8","indexed":false,"internalType":"uint8"},{"name":"lvgValue","type":"uint256","indexed":false,"internalType":"uint256"},{"name":"newShare","type":"uint256","indexed":false,"internalType":"uint256"},{"name":"newMargin","type":"uint256","indexed":false,"internalType":"uint256"},{"name":"openTime","type":"uint256","indexed":false,"internalType":"uint256"},{"name":"updateBlock","type":"uint256","indexed":false,"internalType":"uint256"}],"anonymous":false},{"type":"event","name":"OwnershipTransferred","inputs":[{"name":"previousOwner","type":"address","indexed":true,"internalType":"address"},{"name":"newOwner","type":"address","indexed":true,"internalType":"address"}],"anonymous":false},{"type":"event","name":"Transfer","inputs":[{"name":"from","type":"address","indexed":true,"internalType":"address"},{"name":"to","type":"address","indexed":true,"internalType":"address"},{"name":"value","type":"uint256","indexed":false,"internalType":"uint256"}],"anonymous":false},{"type":"event","name":"Upgraded","inputs":[{"name":"implementation","type":"address","indexed":true,"internalType":"address"}],"anonymous":false},{"type":"event","name":"WithdrawVault","inputs":[{"name":"amountWithdraw","type":"uint256","indexed":false,"internalType":"uint256"},{"name":"roundWithdraw","type":"uint256","indexed":false,"internalType":"uint256"}],"anonymous":false},{"type":"error","name":"AddressEmptyCode","inputs":[{"name":"target","type":"address","internalType":"address"}]},{"type":"error","name":"ERC1967InvalidImplementation","inputs":[{"name":"implementation","type":"address","internalType":"address"}]},{"type":"error","name":"ERC1967NonPayable","inputs":[]},{"type":"error","name":"ERC20InsufficientAllowance","inputs":[{"name":"spender","type":"address","internalType":"address"},{"name":"allowance","type":"uint256","internalType":"uint256"},{"name":"needed","type":"uint256","internalType":"uint256"}]},{"type":"error","name":"ERC20InsufficientBalance","inputs":[{"name":"sender","type":"address","internalType":"address"},{"name":"balance","type":"uint256","internalType":"uint256"},{"name":"needed","type":"uint256","internalType":"uint256"}]},{"type":"error","name":"ERC20InvalidApprover","inputs":[{"name":"approver","type":"address","internalType":"address"}]},{"type":"error","name":"ERC20InvalidReceiver","inputs":[{"name":"receiver","type":"address","internalType":"address"}]},{"type":"error","name":"ERC20InvalidSender","inputs":[{"name":"sender","type":"address","internalType":"address"}]},{"type":"error","name":"ERC20InvalidSpender","inputs":[{"name":"spender","type":"address","internalType":"address"}]},{"type":"error","name":"FailedInnerCall","inputs":[]},{"type":"error","name":"InvalidInitialization","inputs":[]},{"type":"error","name":"NotInitializing","inputs":[]},{"type":"error","name":"OwnableInvalidOwner","inputs":[{"name":"owner","type":"address","internalType":"address"}]},{"type":"error","name":"OwnableUnauthorizedAccount","inputs":[{"name":"account","type":"address","internalType":"address"}]},{"type":"error","name":"UUPSUnauthorizedCallContext","inputs":[]},{"type":"error","name":"UUPSUnsupportedProxiableUUID","inputs":[{"name":"slot","type":"bytes32","internalType":"bytes32"}]}],"bytecode":{"object":"0x60a0604052306080523480156200001557600080fd5b506200002062000026565b620000da565b7ff0c57e16840df040f15088dc2f81fe391c3923bec73e23a9662efc9c229c6a00805468010000000000000000900460ff1615620000775760405163f92ee8a960e01b815260040160405180910390fd5b80546001600160401b0390811614620000d75780546001600160401b0319166001600160401b0390811782556040519081527fc7f505b2f371ae2175ee4913f4499e1f2633a7b5936321eed1cdaeb6115181d29060200160405180910390a15b50565b608051614c22620001046000396000818161242e0152818161245701526125980152614c226000f3fe6080604052600436106103ad5760003560e01c80637401ecf7116101e7578063b4a2b08c1161010d578063dd738ef1116100a0578063f645d4f91161006f578063f645d4f914610b4a578063f851a44014610b6a578063fadd6b0914610b8a578063fbee2d8c14610bab57600080fd5b8063dd738ef114610ade578063dfb2866d14610af4578063dfeb1c4d14610b0a578063f2fde38b14610b2a57600080fd5b8063c3f67ce2116100dc578063c3f67ce214610a68578063d91db8d514610a88578063dcee2a2614610aa8578063dd62ed3e14610abe57600080fd5b8063b4a2b08c146109fc578063b844745614610a1c578063ba17128b14610a32578063beee470c14610a4857600080fd5b806382543b3211610185578063a9059cbb11610154578063a9059cbb14610980578063ad3cb1cc146109a0578063ad8f5008146109d1578063ae3302c2146109e657600080fd5b806382543b32146108f457806383e7a34d1461090e5780638da5cb5b1461092e57806395d89b411461096b57600080fd5b80637bc95d84116101c15780637bc95d84146108885780637dc0d1d0146108a85780638156538e146108c8578063822daf60146108de57600080fd5b80637401ecf71461082f57806377049fc11461085c57806377e0970b1461087257600080fd5b8063313ce567116102d75780635eb9d2851161026a5780636a708ecc116102395780636a708ecc146107ba57806370a08231146107da578063715018a6146107fa57806373efbf391461080f57600080fd5b80635eb9d2851461073757806367327fdc1461074d578063679e5aa31461077a57806368a8a7431461079a57600080fd5b80634665096d116102a65780634665096d146106e35780634f1ef286146106f95780634ff410711461070c57806352d1902d1461072257600080fd5b8063313ce5671461065a5780633386a39a1461066e57806334db3b9c146106845780633e0e1f471461069a57600080fd5b80631bf751ef1161034f578063276b28b51161031e578063276b28b5146105ae5780632a698bed146105ed5780632f48ab7d1461061a578063301af5341461063a57600080fd5b80631bf751ef146105255780632291237e1461055657806323b872dd1461057857806326b91f5b1461059857600080fd5b8063151b8e661161038b578063151b8e6614610431578063178e7a6e14610469578063180613bf146104db57806318160ddd146104f157600080fd5b806306fdde03146103b2578063095ea7b3146103dd5780631031a0631461040d575b600080fd5b3480156103be57600080fd5b506103c7610bc1565b6040516103d49190613f64565b60405180910390f35b3480156103e957600080fd5b506103fd6103f8366004613fb3565b610c84565b60405190151581526020016103d4565b34801561041957600080fd5b5061042360045481565b6040519081526020016103d4565b34801561043d57600080fd5b5061042361044c366004613ff7565b601d60209081526000928352604080842090915290825290205481565b34801561047557600080fd5b506104b3610484366004614027565b601a60205260009081526040902080546001820154600283015460038401546004909401549293919290919085565b604080519586526020860194909452928401919091526060830152608082015260a0016103d4565b3480156104e757600080fd5b5061042360135481565b3480156104fd57600080fd5b507f52c63247e1f47db19d5ce0460030c497f067ca4cebf71ba98eeadabe20bace0254610423565b34801561053157600080fd5b5060165461054490610100900460ff1681565b60405160ff90911681526020016103d4565b34801561056257600080fd5b50610576610571366004614040565b610c9e565b005b34801561058457600080fd5b506103fd61059336600461405b565b610d49565b3480156105a457600080fd5b50610423600e5481565b3480156105ba57600080fd5b506016546105d590600160201b90046001600160a01b031681565b6040516001600160a01b0390911681526020016103d4565b3480156105f957600080fd5b50610423610608366004614027565b601e6020526000908152604090205481565b34801561062657600080fd5b506002546105d5906001600160a01b031681565b34801561064657600080fd5b506105766106553660046140a5565b610d6f565b34801561066657600080fd5b506012610544565b34801561067a57600080fd5b50610423600f5481565b34801561069057600080fd5b5061042360035481565b3480156106a657600080fd5b506106ce6106b5366004614027565b6019602052600090815260409020805460019091015482565b604080519283526020830191909152016103d4565b3480156106ef57600080fd5b5061042360065481565b61057661070736600461418b565b610db5565b34801561071857600080fd5b5061042360095481565b34801561072e57600080fd5b50610423610dd4565b34801561074357600080fd5b5061042360125481565b34801561075957600080fd5b50610423610768366004614027565b601b6020526000908152604090205481565b34801561078657600080fd5b506105766107953660046141fc565b610df1565b3480156107a657600080fd5b506016546103fd9062010000900460ff1681565b3480156107c657600080fd5b506105766107d53660046142dc565b611173565b3480156107e657600080fd5b506104236107f5366004614040565b6112af565b34801561080657600080fd5b506105766112d7565b34801561081b57600080fd5b5061057661082a3660046143a7565b6112eb565b34801561083b57600080fd5b5061042361084a366004614027565b601c6020526000908152604090205481565b34801561086857600080fd5b50610423600b5481565b34801561087e57600080fd5b5061042360055481565b34801561089457600080fd5b506105766108a33660046142dc565b6116f8565b3480156108b457600080fd5b506017546105d5906001600160a01b031681565b3480156108d457600080fd5b5061042360145481565b3480156108ea57600080fd5b5061042360075481565b34801561090057600080fd5b506016546105449060ff1681565b34801561091a57600080fd5b50610576610929366004614569565b61180f565b34801561093a57600080fd5b507f9016d09d72d40fdae2fd8ceac6b6234c7706214fd39c1cd1e609a0528c199300546001600160a01b03166105d5565b34801561097757600080fd5b506103c7611c50565b34801561098c57600080fd5b506103fd61099b366004613fb3565b611c8f565b3480156109ac57600080fd5b506103c7604051806040016040528060058152602001640352e302e360dc1b81525081565b3480156109dd57600080fd5b50610576611c9d565b3480156109f257600080fd5b50610423600a5481565b348015610a0857600080fd5b50610576610a173660046145f0565b611d7b565b348015610a2857600080fd5b50610423600d5481565b348015610a3e57600080fd5b50610423600c5481565b348015610a5457600080fd5b50610576610a6336600461460d565b611ede565b348015610a7457600080fd5b50610576610a83366004614635565b611f73565b348015610a9457600080fd5b50610576610aa3366004614635565b6120f4565b348015610ab457600080fd5b5061042360115481565b348015610aca57600080fd5b50610423610ad9366004614674565b612281565b348015610aea57600080fd5b5061042360105481565b348015610b0057600080fd5b5061042360085481565b348015610b1657600080fd5b50610576610b253660046140a5565b6122cb565b348015610b3657600080fd5b50610576610b45366004614040565b612313565b348015610b5657600080fd5b506001546105d5906001600160a01b031681565b348015610b7657600080fd5b506000546105d5906001600160a01b031681565b348015610b9657600080fd5b506016546103fd906301000000900460ff1681565b348015610bb757600080fd5b5061042360155481565b7f52c63247e1f47db19d5ce0460030c497f067ca4cebf71ba98eeadabe20bace038054606091600080516020614bad83398151915291610c00906146a7565b80601f0160208091040260200160405190810160405280929190818152602001828054610c2c906146a7565b8015610c795780601f10610c4e57610100808354040283529160200191610c79565b820191906000526020600020905b815481529060010190602001808311610c5c57829003601f168201915b505050505091505090565b600033610c92818585612351565b60019150505b92915050565b6000546001600160a01b03163314610cd15760405162461bcd60e51b8152600401610cc8906146db565b60405180910390fd5b6001600160a01b038116610d275760405162461bcd60e51b815260206004820152601f60248201527f696e76616c6964206e6577466f727761726465722061646472657373283029006044820152606401610cc8565b600180546001600160a01b0319166001600160a01b0392909216919091179055565b600033610d5785828561235e565b610d628585856123c4565b60019150505b9392505050565b6000546001600160a01b03163314610d995760405162461bcd60e51b8152600401610cc8906146db565b60168054911515620100000262ff000019909216919091179055565b610dbd612423565b610dc6826124c8565b610dd082826124d0565b5050565b6000610dde61258d565b50600080516020614bcd83398151915290565b60165462010000900460ff16610e425760405162461bcd60e51b81526020600482015260166024820152751bdc195b881c1bdcda5d1a5bdb88191a5cd8589b195960521b6044820152606401610cc8565b6016546301000000900460ff16610e8e5760405162461bcd60e51b815260206004820152601060248201526f13195d99c8139bdd08195b98589b195960821b6044820152606401610cc8565b6000610e9d60135485876125d6565b90506000610eab823361260c565b9050610eb78484612651565b610ef35760405162461bcd60e51b815260206004820152600d60248201526c1d995c9a599e4819985a5b1959609a1b6044820152606401610cc8565b600080610f00888861273a565b90925090506000610f11838861471e565b90506000610f1f878361474b565b610f2a90600161475f565b90506000610f388284614772565b6016546040516308288d8f60e21b8152919250600160201b90046001600160a01b0316906320a2363c90610f739084906000906004016147b9565b602060405180830381865afa158015610f90573d6000803e3d6000fd5b505050506040513d601f19601f82011682018060405250810190610fb491906147d6565b610ff45760405162461bcd60e51b81526020600482015260116024820152703737ba1032b737bab3b41036b0b933b4b760791b6044820152606401610cc8565b6016546040516328ff4f1f60e11b815260048101839052600160201b9091046001600160a01b0316906351fe9e3e90602401600060405180830381600087803b15801561104057600080fd5b505af1158015611054573d6000803e3d6000fd5b5050505060006040518060e001604052808981526020018b81526020018581526020018481526020018a8152602001336001600160a01b0316815260200186151581525090506110a381612a7a565b6002546110bb906001600160a01b0316333086612d5f565b6000601a60008981526020019081526020016000206040518060a00160405290816000820154815260200160018201548152602001600282015481526020016003820154815260200160048201548152505090507fa66d549e27248adf5541ac239251a5f6c8117072e7ed07991b3fff58eb218b0c338e8e84602001518560000151866040015187608001514360405161115c9897969594939291906147f3565b60405180910390a150505050505050505050505050565b600083118015611184575060135483105b6111c75760405162461bcd60e51b81526020600482015260146024820152731a5b9d985b1a59081c995919595b481c9bdd5b9960621b6044820152606401610cc8565b80518251146112115760405162461bcd60e51b81526020600482015260166024820152750c4c2e8c6d040d8cadccee8d040dcdee840dac2e8c6d60531b6044820152606401610cc8565b600033815b83518160ff16101561128a57600061126887878460ff168151811061123d5761123d614845565b6020026020010151878560ff168151811061125a5761125a614845565b602002602001015186612e69565b9050611274818561475f565b93505080806112829061485b565b915050611216565b5081156112a8576002546112a8906001600160a01b03168284612f3c565b5050505050565b6001600160a01b03166000908152600080516020614bad833981519152602052604090205490565b6112df613035565b6112e96000613090565b565b600b546012546112fb908361471e565b611305919061474b565b6113116012600a61495e565b61131a336112af565b611324919061474b565b10156113725760405162461bcd60e51b815260206004820152601960248201527f6e6f7420656e6f7567682076546f6b656e2062616c616e6365000000000000006044820152606401610cc8565b6000806000611382878787613101565b925092509250826113d55760405162461bcd60e51b815260206004820152601860248201527f696e76616c6964206c69717569646174696f6e2063616c6c00000000000000006044820152606401610cc8565b8084111561141a5760405162461bcd60e51b8152602060048201526012602482015271696e76616c69642063616c6c20736861726560701b6044820152606401610cc8565b6000611429601354888a6125d6565b90506000611437828861260c565b6000818152601a6020526040812080546001820154939450909261145d9188918b613251565b601654602082015160405163b866d19360e01b81526004810191909152919250600160201b90046001600160a01b03169063b866d19390602401600060405180830381600087803b1580156114b157600080fd5b505af11580156114c5573d6000803e3d6000fd5b505050508060400151826002015410156114e05760006114f4565b806040015182600201546114f49190614772565b60028301558154881115611509576000611516565b8154611516908990614772565b825580516001830154101561152c57600061153d565b8051600183015461153d9190614772565b60018301556000848152601b602052604090205488111561155f576000611579565b6000848152601b6020526040902054611579908990614772565b6000858152601b60209081526040808320939093558351601c9091529190205410156115a65760006115c1565b80516000858152601c60205260409020546115c19190614772565b6000858152601c602052604090819020919091556002546080830151606084015192840151611612936001600160a01b03909316923392916116039190614772565b61160d9190614772565b612f3c565b600254601654608083015161163b926001600160a01b0390811692600160201b90041690612f3c565b600254600054606083015161165d926001600160a01b03908116921690612f3c565b6116963361166d6012600a61495e565b600b5460125461167d908d61471e565b611687919061474b565b611691919061471e565b61333e565b7fa66d549e27248adf5541ac239251a5f6c8117072e7ed07991b3fff58eb218b0c898c8c8560010154866000015487600201548860040154436040516116e39897969594939291906147f3565b60405180910390a15050505050505050505050565b600083118015611709575060135483105b61174c5760405162461bcd60e51b81526020600482015260146024820152731a5b9d985b1a59081c995919595b481c9bdd5b9960621b6044820152606401610cc8565b80518251146117965760405162461bcd60e51b81526020600482015260166024820152750c4c2e8c6d040d8cadccee8d040dcdee840dac2e8c6d60531b6044820152606401610cc8565b600033815b83518160ff16101561128a5760006117ed87878460ff16815181106117c2576117c2614845565b6020026020010151878560ff16815181106117df576117df614845565b602002602001015186613374565b90506117f9818561475f565b93505080806118079061485b565b91505061179b565b7ff0c57e16840df040f15088dc2f81fe391c3923bec73e23a9662efc9c229c6a008054600160401b810460ff16159067ffffffffffffffff166000811580156118555750825b905060008267ffffffffffffffff1660011480156118725750303b155b905081158015611880575080155b1561189e5760405163f92ee8a960e01b815260040160405180910390fd5b845467ffffffffffffffff1916600117855583156118c857845460ff60401b1916600160401b1785555b85516001600160a01b031661191f5760405162461bcd60e51b815260206004820152601860248201527f696e76616c69642041646d696e206164647265737328302900000000000000006044820152606401610cc8565b60208601516001600160a01b03166119795760405162461bcd60e51b815260206004820152601c60248201527f696e76616c696420466f727761726465722061646472657373283029000000006044820152606401610cc8565b60408601516001600160a01b03166119d35760405162461bcd60e51b815260206004820152601760248201527f696e76616c6964205573647420616464726573732830290000000000000000006044820152606401610cc8565b60608601516001600160a01b0316611a385760405162461bcd60e51b815260206004820152602260248201527f696e76616c696420446174614665656441646472657373206164647265737328604482015261302960f01b6064820152608401610cc8565b60a08601516001600160a01b0316611a9d5760405162461bcd60e51b815260206004820152602260248201527f696e76616c6964205075625661756c7441646472657373206164647265737328604482015261302960f01b6064820152608401610cc8565b611aa689613432565b611ab08888613443565b611ab8613455565b8551600080546001600160a01b039283166001600160a01b03199182161790915560208801516001805491841691831691909117905560408801516002805491841691831691909117905560c088015160035560e0880151600455610100808901516005556101208901516006556101408901516007556101608901516008556101808901516009556101a0890151600a556101c0890151600b556101e0890151600c55610200890151600d55610220890151600e55610240890151600f556102608901516010556102808901516011556102a08901516012556102c0890151601680546102e08c015160608d01516018805491891691881691909117905560a08d01518716600160201b02640100000000600160c01b031960ff92831690960261ffff19909316919094161717929092161790556080880151601780549190931691161790558315611c4557845460ff60401b19168555604051600181527fc7f505b2f371ae2175ee4913f4499e1f2633a7b5936321eed1cdaeb6115181d29060200160405180910390a15b505050505050505050565b7f52c63247e1f47db19d5ce0460030c497f067ca4cebf71ba98eeadabe20bace048054606091600080516020614bad83398151915291610c00906146a7565b600033610c928185856123c4565b6001546001600160a01b0316331480611cc057506000546001600160a01b031633145b611cfd5760405162461bcd60e51b815260206004820152600e60248201526d34b73b30b634b21031b0b63632b960911b6044820152606401610cc8565b600080611d0861345d565b6013546000908152601e6020526040812083905542601455436015559193509150611d32836135e2565b601380549192506000611d448361496d565b9190505550611d5383836137d6565b8015611d7657600254600054611d76916001600160a01b03908116911683612f3c565b505050565b6000546001600160a01b03163314611da55760405162461bcd60e51b8152600401610cc8906146db565b8051600080546001600160a01b03199081166001600160a01b03938416179091556020830151600180548316918416919091179055604083015160028054831691841691909117905560c083015160035560e0830151600455610100808401516005556101208401516006556101408401516007556101608401516008556101808401516009556101a0840151600a556101c0840151600b556101e0840151600c55610200840151600d55610220840151600e55610240840151600f556102608401516010556102808401516011556102a08401516012556102c0840151601680546102e08701516060880151601880549097169088161790955560a09096015160ff92831661ffff19909716969096179190931690910217640100000000600160c01b031916600160201b9390921692909202179055565b6000546001600160a01b03163314611f085760405162461bcd60e51b8152600401610cc8906146db565b6013546000908152601e6020526040812085905560148390556015829055611f2f856135e2565b601380549192506000611f418361496d565b9190505550611f5085856137d6565b80156112a8576002546000546112a8916001600160a01b03908116911683612f3c565b60165462010000900460ff16611fc45760405162461bcd60e51b81526020600482015260166024820152751bdc195b881c1bdcda5d1a5bdb88191a5cd8589b195960521b6044820152606401610cc8565b600081116120085760405162461bcd60e51b8152602060048201526011602482015270696e76616c6964207368617265206e756d60781b6044820152606401610cc8565b6004546014546120189042614772565b11156120665760405162461bcd60e51b815260206004820152601b60248201527f6f70656e20706f736974696f6e2077696e646f7720636c6f73656400000000006044820152606401610cc8565b600061207560135484866125d6565b90506000612083858561273a565b5090506000612092828561471e565b6040805160e08101825285815260208101879052908101829052600060608201819052600160808301523360a083015260c08201529091506120d381612a7a565b6002546120eb906001600160a01b0316333085612d5f565b50505050505050565b600061210360135484866125d6565b90506000612111823361260c565b6000818152601a602052604090208054919250906121635760405162461bcd60e51b815260206004820152600f60248201526e373790363b33903837b9b4ba34b7b760891b6044820152606401610cc8565b600061216f878761273a565b91505080156121f857600654601454612188919061475f565b6121aa836004015484600101548886600201546121a5919061475f565b6138b7565b11156121f85760405162461bcd60e51b815260206004820152601b60248201527f4c7164742074696d65206578636565642065787069726174696f6e00000000006044820152606401610cc8565b8482600201600082825461220c919061475f565b9091555050600254612229906001600160a01b0316333088612d5f565b60018201548254600284015460048501546040517fa66d549e27248adf5541ac239251a5f6c8117072e7ed07991b3fff58eb218b0c946122709433948e948e9443906147f3565b60405180910390a150505050505050565b6001600160a01b0391821660009081527f52c63247e1f47db19d5ce0460030c497f067ca4cebf71ba98eeadabe20bace016020908152604080832093909416825291909152205490565b6000546001600160a01b031633146122f55760405162461bcd60e51b8152600401610cc8906146db565b6016805491151563010000000263ff00000019909216919091179055565b61231b613035565b6001600160a01b03811661234557604051631e4fbdf760e01b815260006004820152602401610cc8565b61234e81613090565b50565b611d7683838360016138dc565b600061236a8484612281565b905060001981146123be57818110156123af57604051637dc7a0d960e11b81526001600160a01b03841660048201526024810182905260448101839052606401610cc8565b6123be848484840360006138dc565b50505050565b6001600160a01b0383166123ee57604051634b637e8f60e11b815260006004820152602401610cc8565b6001600160a01b0382166124185760405163ec442f0560e01b815260006004820152602401610cc8565b611d768383836139c3565b306001600160a01b037f00000000000000000000000000000000000000000000000000000000000000001614806124aa57507f00000000000000000000000000000000000000000000000000000000000000006001600160a01b031661249e600080516020614bcd833981519152546001600160a01b031690565b6001600160a01b031614155b156112e95760405163703e46dd60e11b815260040160405180910390fd5b61234e613035565b816001600160a01b03166352d1902d6040518163ffffffff1660e01b8152600401602060405180830381865afa92505050801561252a575060408051601f3d908101601f1916820190925261252791810190614986565b60015b61255257604051634c9c8ce360e01b81526001600160a01b0383166004820152602401610cc8565b600080516020614bcd833981519152811461258357604051632a87526960e21b815260048101829052602401610cc8565b611d768383613b01565b306001600160a01b037f000000000000000000000000000000000000000000000000000000000000000016146112e95760405163703e46dd60e11b815260040160405180910390fd5b60008383836040516020016125ed9392919061499f565b6040516020818303038152906040528051906020012090509392505050565b600082826040516020016126339291909182526001600160a01b0316602082015260400190565b60405160208183030381529060405280519060200120905092915050565b60008083116126925760405162461bcd60e51b815260206004820152600d60248201526c696e76616c696420736861726560981b6044820152606401610cc8565b6001821180156126a45750600a548211155b6126e35760405162461bcd60e51b815260206004820152601060248201526f696e76616c6964206c6576657261676560801b6044820152606401610cc8565b6004546014546126f39042614772565b11156127315760405162461bcd60e51b815260206004820152600d60248201526c1dda5b991bddc818db1bdcd959609a1b6044820152606401610cc8565b50600192915050565b6000806014546000036127535750506003546000612a73565b60008061275e61345d565b6013546000908152601d6020908152604080832060ff8b1684529091528120546007546006549496509294509290916127969161474b565b9050600081600754601454426127ac9190614772565b6127b6919061474b565b6127c0919061475f565b905060006127cf85600a61495e565b6008546127dc919061471e565b90506000600854856127ee919061474b565b9050600060085488612800919061474b565b9050600086891161281a576128158988614772565b612824565b612824878a614772565b905060008d600181111561283a5761283a614785565b0361295657888710801561284e5750838110155b156128b2578361285f60028861495e565b612869908561471e565b612873919061471e565b8161287f60028861495e565b8460035461288d919061471e565b612897919061471e565b6128a1919061471e565b6128ab919061474b565b9a5061294c565b88871180156128c15750838110155b156128f257806128d260028861495e565b6128dc908561471e565b6128e6919061471e565b8461287f60028861495e565b6128fd60c88861474b565b61290860c88b61474b565b61291360028961495e565b61291e60028961495e565b60035461292b919061471e565b612935919061474b565b61293f919061475f565b6129499190614772565b9a505b8887119950612a69565b88871180156129655750838110155b156129c9578361297660028861495e565b612980908461471e565b61298a919061471e565b8161299660028861495e565b856003546129a4919061471e565b6129ae919061471e565b6129b8919061471e565b6129c2919061474b565b9a50612a63565b88871080156129d85750838110155b15612a0957806129e960028861495e565b6129f3908461471e565b6129fd919061471e565b8461299660028861495e565b612a1460c88a61474b565b612a1f60c88961474b565b612a2a60028961495e565b612a3560028961495e565b600354612a42919061471e565b612a4c919061474b565b612a56919061475f565b612a609190614772565b9a505b88871099505b5050505050505050505b9250929050565b8060200151601b6000836000015181526020019081526020016000206000828254612aa5919061475f565b909155505060408082015182516000908152601c602052918220805491929091612ad090849061475f565b9091555050805160a0820151600091612ae89161260c565b90508160800151600103612b52576020808301516000838152601990925260408220805491929091612b1b90849061475f565b909155505060408083015160008381526019602052918220600101805491929091612b4790849061475f565b90915550612cf19050565b6000818152601a60209081526040808320815160a08101835281548152600182015493810184905260028201548184015260038201546060820152600490910154608082015290850151909291612ba9919061475f565b9050600084606001518360400151612bc1919061475f565b905060008360600151600014612be057612bdb828461474b565b612be6565b85608001515b905060008460800151600014612c00578460800151612c02565b425b90508660c0015115612c7757600654601454612c1e919061475f565b612c298286866138b7565b1115612c775760405162461bcd60e51b815260206004820152601b60248201527f4c7164742074696d65206578636565642065787069726174696f6e00000000006044820152606401610cc8565b6040518060a0016040528088602001518760000151612c96919061475f565b81526020808201969096526040808201959095526060808201949094526080908101929092526000878152601a8652849020815181559481015160018601559283015160028501559082015160038401550151600490910155505b6000600554601454612d03919061475f565b421115612d14578260200151612d33565b600b546011548460200151612d29919061471e565b612d33919061474b565b9050611d768360a00151612d45601290565b612d5090600a61495e565b612d5a908461471e565b613b57565b604080516001600160a01b0385811660248301528481166044830152606480830185905283518084039091018152608490920183526020820180516001600160e01b03166323b872dd60e01b1790529151600092839290881691612dc391906149c6565b6000604051808303816000865af19150503d8060008114612e00576040519150601f19603f3d011682016040523d82523d6000602084013e612e05565b606091505b5091509150818015612e2f575080511580612e2f575080806020019051810190612e2f91906147d6565b612e615760405162461bcd60e51b815260206004820152600360248201526229aa2360e91b6044820152606401610cc8565b505050505050565b600080612e778685876125d6565b90506000612e85828561260c565b6000818152601a602090815260408083208b8452601e909252822054929350918190612eb4908b908a90613b8d565b91509150806001811115612eca57612eca614785565b896001811115612edc57612edc614785565b03612ef35750506000908190559250612f34915050565b6000612f008b8a856125d6565b90506000612f0f8c8b856125d6565b9050612f25856000015486600201548484613bcc565b60009095555092955050505050505b949350505050565b604080516001600160a01b038481166024830152604480830185905283518084039091018152606490920183526020820180516001600160e01b031663a9059cbb60e01b1790529151600092839290871691612f9891906149c6565b6000604051808303816000865af19150503d8060008114612fd5576040519150601f19603f3d011682016040523d82523d6000602084013e612fda565b606091505b509150915081801561300457508051158061300457508080602001905181019061300491906147d6565b6112a85760405162461bcd60e51b815260206004820152600260248201526114d560f21b6044820152606401610cc8565b336130677f9016d09d72d40fdae2fd8ceac6b6234c7706214fd39c1cd1e609a0528c199300546001600160a01b031690565b6001600160a01b0316146112e95760405163118cdaa760e01b8152336004820152602401610cc8565b7f9016d09d72d40fdae2fd8ceac6b6234c7706214fd39c1cd1e609a0528c19930080546001600160a01b031981166001600160a01b03848116918217845560405192169182907f8be0079c531659141344cd1fd0a4f28419497f9722a3daafe3b4186f6b6457e090600090a3505050565b60008060008061311d613117601354888a6125d6565b8661260c565b6000818152601a6020908152604091829020825160a08101845281548082526001830154938201939093526002820154938101939093526003810154606084015260040154608083015291925090158061317957506020810151155b8061318657506040810151155b8061319357506080810151155b156131aa5760008060009450945094505050613248565b60006131c38260800151836020015184604001516138b7565b90508042116131df576000806000955095509550505050613248565b60006131e961345d565b506013546000908152601d6020908152604080832060ff8e1684529091529020549091506132188b8383613bfc565b1561323757505050604081015190516001955090935091506132489050565b600080600097509750975050505050505b93509350939050565b6132836040518060a0016040528060008152602001600081526020016000815260200160008152602001600081525090565b600084613290848661471e565b61329a919061474b565b90506000856132a9858961471e565b6132b3919061474b565b90506000818310156132c65760006132d0565b6132d08284614772565b90506000600b54600f54846132e5919061471e565b6132ef919061474b565b90506000600b5460105485613304919061471e565b61330e919061474b565b6040805160a081018252968752602087019490945292850193909352606084015260808301525095945050505050565b6001600160a01b03821661336857604051634b637e8f60e11b815260006004820152602401610cc8565b610dd0826000836139c3565b60008060006133978786601e60008b815260200190815260200160002054613b8d565b9150915060006133a88887856125d6565b905060006133b78988856125d6565b905060006133c68a898b6125d6565b905060006133d4828961260c565b600081815260196020526040902090915061341e8760018111156133fa576133fa614785565b8c600181111561340c5761340c614785565b14826000015483600101548888613c47565b60009091559b9a5050505050505050505050565b61343a613ca6565b61234e81613cef565b61344b613ca6565b610dd08282613cf7565b6112e9613ca6565b6000806000601860009054906101000a90046001600160a01b03166001600160a01b031663feaf968c6040518163ffffffff1660e01b815260040160a060405180830381865afa1580156134b5573d6000803e3d6000fd5b505050506040513d601f19601f820116820180604052508101906134d991906149fc565b50505091505080600014806134ee5750806001145b1561356c5760175460408051634c6afee560e11b815290516000926001600160a01b0316916398d5fdca9160048083019260209291908290030181865afa15801561353d573d6000803e3d6000fd5b505050506040513d601f19601f820116820180604052508101906135619190614986565b946008945092505050565b6018546040805163313ce56760e01b8152905183926001600160a01b03169163313ce5679160048083019260209291908290030181865afa1580156135b5573d6000803e3d6000fd5b505050506040513d601f19601f820116820180604052508101906135d99190614a4c565b92509250509091565b60006013546000036135f657506000919050565b6000601660049054906101000a90046001600160a01b03166001600160a01b031663568914126040518163ffffffff1660e01b8152600401602060405180830381865afa15801561364b573d6000803e3d6000fd5b505050506040513d601f19601f8201168201806040525081019061366f9190614986565b111561373d576000601660049054906101000a90046001600160a01b03166001600160a01b031663d135cc4b6040518163ffffffff1660e01b81526004016020604051808303816000875af11580156136cc573d6000803e3d6000fd5b505050506040513d601f19601f820116820180604052508101906136f09190614986565b90507fe4b51ab478b930ac45dd473ae053cf59aeeba85e6763701d7e088ee28efc5ecc8160016013546137239190614772565b6040805192835260208301919091520160405180910390a1505b60005b60165460ff610100909104811690821610156137d05760006137656013548386613b8d565b915050600061377760135484846125d6565b600b54909150613787908061471e565b600e54600c546000848152601c60205260409020546137a6919061471e565b6137b0919061471e565b6137ba919061474b565b6137c4908561475f565b93505050600101613740565b50919050565b6016546000906002906137f390600190610100900460ff16614a69565b6137fd9190614a82565b60ff1660095461380d919061471e565b6009548061381c85600a61495e565b613826908761474b565b613830919061474b565b61383a919061471e565b6138449190614772565b905060005b60165460ff610100909104811690821610156123be5761386a83600a61495e565b8160ff1660095461387b919061471e565b613885908461475f565b61388f919061471e565b6013546000908152601d6020908152604080832060ff86168452909152902055600101613849565b600082826006546138c8919061471e565b6138d2919061474b565b612f34908561475f565b600080516020614bad8339815191526001600160a01b0385166139155760405163e602df0560e01b815260006004820152602401610cc8565b6001600160a01b03841661393f57604051634a1406b160e11b815260006004820152602401610cc8565b6001600160a01b038086166000908152600183016020908152604080832093881683529290522083905581156112a857836001600160a01b0316856001600160a01b03167f8c5be1e5ebec7d5bd14f71427d1e84f3dd0314c0f7b2291e5b200ac8c7c3b925856040516139b491815260200190565b60405180910390a35050505050565b600080516020614bad8339815191526001600160a01b0384166139ff57818160020160008282546139f4919061475f565b90915550613a719050565b6001600160a01b03841660009081526020829052604090205482811015613a525760405163391434e360e21b81526001600160a01b03861660048201526024810182905260448101849052606401610cc8565b6001600160a01b03851660009081526020839052604090209083900390555b6001600160a01b038316613a8f576002810180548390039055613aae565b6001600160a01b03831660009081526020829052604090208054830190555b826001600160a01b0316846001600160a01b03167fddf252ad1be2c89b69c2b068fc378daa952ba7f163c4a11628f55a4df523b3ef84604051613af391815260200190565b60405180910390a350505050565b613b0a82613d48565b6040516001600160a01b038316907fbc7cd75a20ee27fd9adebab32041f755214dbc6bffa90cc0225b39da2e5c2d3b90600090a2805115613b4f57611d768282613dad565b610dd0613e1a565b6001600160a01b038216613b815760405163ec442f0560e01b815260006004820152602401610cc8565b610dd0600083836139c3565b6000838152601d6020908152604080832060ff8616845290915281205481908311613bbb5760016000613bc0565b600060015b90969095509350505050565b600084600003613bde57506000612f34565b613be9858484613e39565b613bf3908561475f565b95945050505050565b600080846001811115613c1157613c11614785565b148015613c1e5750818311155b80612f3457506001846001811115613c3857613c38614785565b148015612f3457505010919050565b600084600003613c5957506000613bf3565b85613c8757600b54600c54613c6e9082614772565b613c78908661471e565b613c82919061474b565b613c9c565b613c92858484613e39565b613c9c908561475f565b9695505050505050565b7ff0c57e16840df040f15088dc2f81fe391c3923bec73e23a9662efc9c229c6a0054600160401b900460ff166112e957604051631afcd79f60e31b815260040160405180910390fd5b61231b613ca6565b613cff613ca6565b600080516020614bad8339815191527f52c63247e1f47db19d5ce0460030c497f067ca4cebf71ba98eeadabe20bace03613d398482614aec565b50600481016123be8382614aec565b806001600160a01b03163b600003613d7e57604051634c9c8ce360e01b81526001600160a01b0382166004820152602401610cc8565b600080516020614bcd83398151915280546001600160a01b0319166001600160a01b0392909216919091179055565b6060600080846001600160a01b031684604051613dca91906149c6565b600060405180830381855af49150503d8060008114613e05576040519150601f19603f3d011682016040523d82523d6000602084013e613e0a565b606091505b5091509150613bf3858383613ebb565b34156112e95760405163b398979f60e01b815260040160405180910390fd5b6000828152601b60205260408120548103613e5657506000610d68565b6000838152601b6020526040902054600b54613e72908061471e565b613e7c919061471e565b600d54600c546000858152601c6020526040902054879291613e9d9161471e565b613ea7919061471e565b613eb1919061471e565b612f34919061474b565b606082613ed057613ecb82613f17565b610d68565b8151158015613ee757506001600160a01b0384163b155b15613f1057604051639996b31560e01b81526001600160a01b0385166004820152602401610cc8565b5080610d68565b805115613f275780518082602001fd5b604051630a12f52160e11b815260040160405180910390fd5b60005b83811015613f5b578181015183820152602001613f43565b50506000910152565b6020815260008251806020840152613f83816040850160208701613f40565b601f01601f19169190910160400192915050565b80356001600160a01b0381168114613fae57600080fd5b919050565b60008060408385031215613fc657600080fd5b613fcf83613f97565b946020939093013593505050565b60ff8116811461234e57600080fd5b8035613fae81613fdd565b6000806040838503121561400a57600080fd5b82359150602083013561401c81613fdd565b809150509250929050565b60006020828403121561403957600080fd5b5035919050565b60006020828403121561405257600080fd5b610d6882613f97565b60008060006060848603121561407057600080fd5b61407984613f97565b925061408760208501613f97565b9150604084013590509250925092565b801515811461234e57600080fd5b6000602082840312156140b757600080fd5b8135610d6881614097565b634e487b7160e01b600052604160045260246000fd5b604051610300810167ffffffffffffffff811182821017156140fc576140fc6140c2565b60405290565b604051601f8201601f1916810167ffffffffffffffff8111828210171561412b5761412b6140c2565b604052919050565b600067ffffffffffffffff83111561414d5761414d6140c2565b614160601f8401601f1916602001614102565b905082815283838301111561417457600080fd5b828260208301376000602084830101529392505050565b6000806040838503121561419e57600080fd5b6141a783613f97565b9150602083013567ffffffffffffffff8111156141c357600080fd5b8301601f810185136141d457600080fd5b6141e385823560208401614133565b9150509250929050565b803560028110613fae57600080fd5b6000806000806080858703121561421257600080fd5b61421b856141ed565b9350602085013561422b81613fdd565b93969395505050506040820135916060013590565b600067ffffffffffffffff82111561425a5761425a6140c2565b5060051b60200190565b600082601f83011261427557600080fd5b8135602061428a61428583614240565b614102565b8083825260208201915060208460051b8701019350868411156142ac57600080fd5b602086015b848110156142d15780356142c481613fdd565b83529183019183016142b1565b509695505050505050565b6000806000606084860312156142f157600080fd5b8335925060208085013567ffffffffffffffff8082111561431157600080fd5b818701915087601f83011261432557600080fd5b813561433361428582614240565b81815260059190911b8301840190848101908a83111561435257600080fd5b938501935b8285101561437757614368856141ed565b82529385019390850190614357565b96505050604087013592508083111561438f57600080fd5b505061439d86828701614264565b9150509250925092565b600080600080608085870312156143bd57600080fd5b6143c6856141ed565b935060208501356143d681613fdd565b92506143e460408601613f97565b9396929550929360600135925050565b600082601f83011261440557600080fd5b610d6883833560208501614133565b6000610300828403121561442757600080fd5b61442f6140d8565b905061443a82613f97565b815261444860208301613f97565b602082015261445960408301613f97565b604082015261446a60608301613f97565b606082015261447b60808301613f97565b608082015261448c60a08301613f97565b60a082015260c0828101359082015260e08083013590820152610100808301359082015261012080830135908201526101408083013590820152610160808301359082015261018080830135908201526101a080830135908201526101c080830135908201526101e08083013590820152610200808301359082015261022080830135908201526102408083013590820152610260808301359082015261028080830135908201526102a080830135908201526102c061454d818401613fec565b908201526102e061455f838201613fec565b9082015292915050565b600080600080610360858703121561458057600080fd5b61458985613f97565b9350602085013567ffffffffffffffff808211156145a657600080fd5b6145b2888389016143f4565b945060408701359150808211156145c857600080fd5b506145d5878288016143f4565b9250506145e58660608701614414565b905092959194509250565b6000610300828403121561460357600080fd5b610d688383614414565b6000806000806080858703121561462357600080fd5b84359350602085013561422b81613fdd565b60008060006060848603121561464a57600080fd5b614653846141ed565b9250602084013561466381613fdd565b929592945050506040919091013590565b6000806040838503121561468757600080fd5b61469083613f97565b915061469e60208401613f97565b90509250929050565b600181811c908216806146bb57607f821691505b6020821081036137d057634e487b7160e01b600052602260045260246000fd5b60208082526013908201527231b0b63632b91034b9903737ba1030b236b4b760691b604082015260600190565b634e487b7160e01b600052601160045260246000fd5b8082028115828204841417610c9857610c98614708565b634e487b7160e01b600052601260045260246000fd5b60008261475a5761475a614735565b500490565b80820180821115610c9857610c98614708565b81810381811115610c9857610c98614708565b634e487b7160e01b600052602160045260246000fd5b6002811061234e57634e487b7160e01b600052602160045260246000fd5b828152604081016147c98361479b565b8260208301529392505050565b6000602082840312156147e857600080fd5b8151610d6881614097565b6001600160a01b0389168152610100810161480d8961479b565b602082019890985260ff9690961660408701526060860194909452608085019290925260a084015260c083015260e090910152919050565b634e487b7160e01b600052603260045260246000fd5b600060ff821660ff810361487157614871614708565b60010192915050565b600181815b808511156148b557816000190482111561489b5761489b614708565b808516156148a857918102915b93841c939080029061487f565b509250929050565b6000826148cc57506001610c98565b816148d957506000610c98565b81600181146148ef57600281146148f957614915565b6001915050610c98565b60ff84111561490a5761490a614708565b50506001821b610c98565b5060208310610133831016604e8410600b8410161715614938575081810a610c98565b614942838361487a565b806000190482111561495657614956614708565b029392505050565b6000610d6860ff8416836148bd565b60006001820161497f5761497f614708565b5060010190565b60006020828403121561499857600080fd5b5051919050565b83815260ff83166020820152606081016149b88361479b565b826040830152949350505050565b600082516149d8818460208701613f40565b9190910192915050565b805169ffffffffffffffffffff81168114613fae57600080fd5b600080600080600060a08688031215614a1457600080fd5b614a1d866149e2565b9450602086015193506040860151925060608601519150614a40608087016149e2565b90509295509295909350565b600060208284031215614a5e57600080fd5b8151610d6881613fdd565b60ff8281168282160390811115610c9857610c98614708565b600060ff831680614a9557614a95614735565b8060ff84160491505092915050565b601f821115611d76576000816000526020600020601f850160051c81016020861015614acd5750805b601f850160051c820191505b81811015612e6157828155600101614ad9565b815167ffffffffffffffff811115614b0657614b066140c2565b614b1a81614b1484546146a7565b84614aa4565b602080601f831160018114614b4f5760008415614b375750858301515b600019600386901b1c1916600185901b178555612e61565b600085815260208120601f198616915b82811015614b7e57888601518255948401946001909101908401614b5f565b5085821015614b9c5787850151600019600388901b60f8161c191681555b5050505050600190811b0190555056fe52c63247e1f47db19d5ce0460030c497f067ca4cebf71ba98eeadabe20bace00360894a13ba1a3210667c828492db98dca3e2076cc3735a920a3ca505d382bbca2646970667358221220f2c67be346935b460c1876b6be4b8828f4fdf35b30b3b93baa35f2dc7b3cbb3564736f6c63430008180033","linkReferences":{}},"methodIdentifiers":{"UPGRADE_INTERFACE_VERSION()":"ad3cb1cc","addMargin(uint8,uint8,uint256)":"d91db8d5","admin()":"f851a440","adminPerc()":"26b91f5b","allShare(bytes32)":"67327fdc","allValue(bytes32)":"7401ecf7","allowance(address,address)":"dd62ed3e","approve(address,uint256)":"095ea7b3","balanceOf(address)":"70a08231","basePerc()":"77049fc1","baseSharePrice()":"34db3b9c","controlOpenPos(bool)":"301af534","decimals()":"313ce567","enableLevg(bool)":"dfeb1c4d","ethPrices(uint256)":"2a698bed","expiration()":"4665096d","forwarder()":"f645d4f9","globalRound()":"180613bf","incenVTokenPerc()":"dcee2a26","incenWindow()":"77e0970b","initialize(address,string,string,(address,address,address,address,address,address,uint256,uint256,uint256,uint256,uint256,uint256,uint256,uint256,uint256,uint256,uint256,uint256,uint256,uint256,uint256,uint256,uint8,uint8))":"83e7a34d","isLevgEnabled()":"fadd6b09","isOpenPosEnabled()":"68a8a743","lastStrikeBlock()":"fbee2d8c","lastStrikeTime()":"8156538e","levgPositions(bytes32)":"178e7a6e","liquidationCall(uint8,uint8,address,uint256)":"73efbf39","liquidationVTokenPerc()":"5eb9d285","lqdtAdminFeePerc()":"3386a39a","lqdtVaultFeePerc()":"dd738ef1","maxLeverage()":"ae3302c2","name()":"06fdde03","openPositionLevg(uint8,uint8,uint256,uint256)":"679e5aa3","openPositionSpot(uint8,uint8,uint256)":"c3f67ce2","oracle()":"7dc0d1d0","owner()":"8da5cb5b","priceFactor()":"dfb2866d","proxiableUUID()":"52d1902d","pubVault()":"276b28b5","redeemLevgBatch(uint256,uint8[],uint8[])":"6a708ecc","redeemSpotBatch(uint256,uint8[],uint8[])":"7bc95d84","renounceOwnership()":"715018a6","roundWindow()":"1031a063","spotPositions(bytes32)":"3e0e1f47","strike()":"ad8f5008","strikeRecovery(uint256,uint8,uint256,uint256)":"beee470c","strikeSpacing()":"4ff41071","strikes(uint256,uint8)":"151b8e66","symbol()":"95d89b41","timeFactor()":"822daf60","totalSupply()":"18160ddd","transfer(address,uint256)":"a9059cbb","transferFrom(address,address,uint256)":"23b872dd","transferOwnership(address)":"f2fde38b","updateForwarder(address)":"2291237e","updateParams((address,address,address,address,address,address,uint256,uint256,uint256,uint256,uint256,uint256,uint256,uint256,uint256,uint256,uint256,uint256,uint256,uint256,uint256,uint256,uint8,uint8))":"b4a2b08c","upgradeToAndCall(address,bytes)":"4f1ef286","usdt()":"2f48ab7d","usdtDecimals()":"82543b32","vSlots()":"1bf751ef","winPerc()":"ba17128b","winnerPerc()":"b8447456"},"id":16}