{"abi":[{"type":"function","name":"UPGRADE_INTERFACE_VERSION","inputs":[],"outputs":[{"name":"","type":"string","internalType":"string"}],"stateMutability":"view"},{"type":"function","name":"addMargin","inputs":[{"name":"oType","type":"uint8","internalType":"enum IRaven.OType"},{"name":"slot","type":"uint8","internalType":"uint8"},{"name":"marginToAdd","type":"uint256","internalType":"uint256"}],"outputs":[],"stateMutability":"nonpayable"},{"type":"function","name":"admin","inputs":[],"outputs":[{"name":"","type":"address","internalType":"address"}],"stateMutability":"view"},{"type":"function","name":"adminPerc","inputs":[],"outputs":[{"name":"","type":"uint256","internalType":"uint256"}],"stateMutability":"view"},{"type":"function","name":"allShare","inputs":[{"name":"optionId","type":"bytes32","internalType":"bytes32"}],"outputs":[{"name":"share","type":"uint256","internalType":"uint256"}],"stateMutability":"view"},{"type":"function","name":"allValue","inputs":[{"name":"optionId","type":"bytes32","internalType":"bytes32"}],"outputs":[{"name":"value","type":"uint256","internalType":"uint256"}],"stateMutability":"view"},{"type":"function","name":"allowance","inputs":[{"name":"owner","type":"address","internalType":"address"},{"name":"spender","type":"address","internalType":"address"}],"outputs":[{"name":"","type":"uint256","internalType":"uint256"}],"stateMutability":"view"},{"type":"function","name":"approve","inputs":[{"name":"spender","type":"address","internalType":"address"},{"name":"value","type":"uint256","internalType":"uint256"}],"outputs":[{"name":"","type":"bool","internalType":"bool"}],"stateMutability":"nonpayable"},{"type":"function","name":"balanceOf","inputs":[{"name":"account","type":"address","internalType":"address"}],"outputs":[{"name":"","type":"uint256","internalType":"uint256"}],"stateMutability":"view"},{"type":"function","name":"basePerc","inputs":[],"outputs":[{"name":"","type":"uint256","internalType":"uint256"}],"stateMutability":"view"},{"type":"function","name":"baseSharePrice","inputs":[],"outputs":[{"name":"","type":"uint256","internalType":"uint256"}],"stateMutability":"view"},{"type":"function","name":"decimals","inputs":[],"outputs":[{"name":"","type":"uint8","internalType":"uint8"}],"stateMutability":"view"},{"type":"function","name":"enableLevg","inputs":[{"name":"enabled","type":"bool","internalType":"bool"}],"outputs":[],"stateMutability":"nonpayable"},{"type":"function","name":"ethPrices","inputs":[{"name":"round","type":"uint256","internalType":"uint256"}],"outputs":[{"name":"ethPrice","type":"uint256","internalType":"uint256"}],"stateMutability":"view"},{"type":"function","name":"expiration","inputs":[],"outputs":[{"name":"","type":"uint256","internalType":"uint256"}],"stateMutability":"view"},{"type":"function","name":"forwarder","inputs":[],"outputs":[{"name":"","type":"address","internalType":"address"}],"stateMutability":"view"},{"type":"function","name":"globalRound","inputs":[],"outputs":[{"name":"","type":"uint256","internalType":"uint256"}],"stateMutability":"view"},{"type":"function","name":"incenVTokenPerc","inputs":[],"outputs":[{"name":"","type":"uint256","internalType":"uint256"}],"stateMutability":"view"},{"type":"function","name":"incenWindow","inputs":[],"outputs":[{"name":"","type":"uint256","internalType":"uint256"}],"stateMutability":"view"},{"type":"function","name":"initialize","inputs":[{"name":"owner_","type":"address","internalType":"address"},{"name":"name_","type":"string","internalType":"string"},{"name":"symbol_","type":"string","internalType":"string"},{"name":"cp","type":"tuple","internalType":"struct IRaven.ConstructParams","components":[{"name":"Admin","type":"address","internalType":"address"},{"name":"Forwarder","type":"address","internalType":"address"},{"name":"Usdt","type":"address","internalType":"address"},{"name":"DataFeedAddress","type":"address","internalType":"address"},{"name":"PubVaultAddress","type":"address","internalType":"address"},{"name":"BaseSharePrice","type":"uint256","internalType":"uint256"},{"name":"RoundWindow","type":"uint256","internalType":"uint256"},{"name":"IncenWindow","type":"uint256","internalType":"uint256"},{"name":"Expiration","type":"uint256","internalType":"uint256"},{"name":"TimeFactor","type":"uint256","internalType":"uint256"},{"name":"PriceFactor","type":"uint256","internalType":"uint256"},{"name":"StrikeSpacing","type":"uint256","internalType":"uint256"},{"name":"MaxLeverage","type":"uint256","internalType":"uint256"},{"name":"BasePerc","type":"uint256","internalType":"uint256"},{"name":"WinPerc","type":"uint256","internalType":"uint256"},{"name":"WinnerPerc","type":"uint256","internalType":"uint256"},{"name":"AdminPerc","type":"uint256","internalType":"uint256"},{"name":"LqdtAdminFeePerc","type":"uint256","internalType":"uint256"},{"name":"LqdtVaultFeePerc","type":"uint256","internalType":"uint256"},{"name":"IncenVTokenPerc","type":"uint256","internalType":"uint256"},{"name":"LiquidationVTokenPerc","type":"uint256","internalType":"uint256"},{"name":"UsdtDecimals","type":"uint8","internalType":"uint8"},{"name":"VSlots","type":"uint8","internalType":"uint8"}]}],"outputs":[],"stateMutability":"nonpayable"},{"type":"function","name":"isLevgEnabled","inputs":[],"outputs":[{"name":"","type":"bool","internalType":"bool"}],"stateMutability":"view"},{"type":"function","name":"lastStrikeBlock","inputs":[],"outputs":[{"name":"","type":"uint256","internalType":"uint256"}],"stateMutability":"view"},{"type":"function","name":"lastStrikeTime","inputs":[],"outputs":[{"name":"","type":"uint256","internalType":"uint256"}],"stateMutability":"view"},{"type":"function","name":"levgPositions","inputs":[{"name":"positionId","type":"bytes32","internalType":"bytes32"}],"outputs":[{"name":"Share","type":"uint256","internalType":"uint256"},{"name":"Value","type":"uint256","internalType":"uint256"},{"name":"Margin","type":"uint256","internalType":"uint256"},{"name":"Leverage","type":"uint256","internalType":"uint256"},{"name":"OpenTime","type":"uint256","internalType":"uint256"}],"stateMutability":"view"},{"type":"function","name":"liquidationCall","inputs":[{"name":"oType","type":"uint8","internalType":"enum IRaven.OType"},{"name":"slot","type":"uint8","internalType":"uint8"},{"name":"user","type":"address","internalType":"address"},{"name":"callShare","type":"uint256","internalType":"uint256"}],"outputs":[],"stateMutability":"nonpayable"},{"type":"function","name":"liquidationVTokenPerc","inputs":[],"outputs":[{"name":"","type":"uint256","internalType":"uint256"}],"stateMutability":"view"},{"type":"function","name":"lqdtAdminFeePerc","inputs":[],"outputs":[{"name":"","type":"uint256","internalType":"uint256"}],"stateMutability":"view"},{"type":"function","name":"lqdtVaultFeePerc","inputs":[],"outputs":[{"name":"","type":"uint256","internalType":"uint256"}],"stateMutability":"view"},{"type":"function","name":"maxLeverage","inputs":[],"outputs":[{"name":"","type":"uint256","internalType":"uint256"}],"stateMutability":"view"},{"type":"function","name":"name","inputs":[],"outputs":[{"name":"","type":"string","internalType":"string"}],"stateMutability":"view"},{"type":"function","name":"openPositionLevg","inputs":[{"name":"oType","type":"uint8","internalType":"enum IRaven.OType"},{"name":"slot","type":"uint8","internalType":"uint8"},{"name":"shares","type":"uint256","internalType":"uint256"},{"name":"leverage","type":"uint256","internalType":"uint256"}],"outputs":[],"stateMutability":"nonpayable"},{"type":"function","name":"openPositionSpot","inputs":[{"name":"oType","type":"uint8","internalType":"enum IRaven.OType"},{"name":"slot","type":"uint8","internalType":"uint8"},{"name":"shares","type":"uint256","internalType":"uint256"}],"outputs":[],"stateMutability":"nonpayable"},{"type":"function","name":"owner","inputs":[],"outputs":[{"name":"","type":"address","internalType":"address"}],"stateMutability":"view"},{"type":"function","name":"priceFactor","inputs":[],"outputs":[{"name":"","type":"uint256","internalType":"uint256"}],"stateMutability":"view"},{"type":"function","name":"proxiableUUID","inputs":[],"outputs":[{"name":"","type":"bytes32","internalType":"bytes32"}],"stateMutability":"view"},{"type":"function","name":"pubVault","inputs":[],"outputs":[{"name":"","type":"address","internalType":"contract IPubVault"}],"stateMutability":"view"},{"type":"function","name":"redeemLevgBatch","inputs":[{"name":"redeemRound","type":"uint256","internalType":"uint256"},{"name":"oTypes","type":"uint8[]","internalType":"enum IRaven.OType[]"},{"name":"slots","type":"uint8[]","internalType":"uint8[]"}],"outputs":[],"stateMutability":"nonpayable"},{"type":"function","name":"redeemSpotBatch","inputs":[{"name":"redeemRound","type":"uint256","internalType":"uint256"},{"name":"oTypes","type":"uint8[]","internalType":"enum IRaven.OType[]"},{"name":"slots","type":"uint8[]","internalType":"uint8[]"}],"outputs":[],"stateMutability":"nonpayable"},{"type":"function","name":"renounceOwnership","inputs":[],"outputs":[],"stateMutability":"nonpayable"},{"type":"function","name":"roundWindow","inputs":[],"outputs":[{"name":"","type":"uint256","internalType":"uint256"}],"stateMutability":"view"},{"type":"function","name":"spotPositions","inputs":[{"name":"positionId","type":"bytes32","internalType":"bytes32"}],"outputs":[{"name":"Share","type":"uint256","internalType":"uint256"},{"name":"Value","type":"uint256","internalType":"uint256"}],"stateMutability":"view"},{"type":"function","name":"strike","inputs":[],"outputs":[],"stateMutability":"nonpayable"},{"type":"function","name":"strikeSpacing","inputs":[],"outputs":[{"name":"","type":"uint256","internalType":"uint256"}],"stateMutability":"view"},{"type":"function","name":"strikes","inputs":[{"name":"round","type":"uint256","internalType":"uint256"},{"name":"slot","type":"uint8","internalType":"uint8"}],"outputs":[{"name":"strike","type":"uint256","internalType":"uint256"}],"stateMutability":"view"},{"type":"function","name":"symbol","inputs":[],"outputs":[{"name":"","type":"string","internalType":"string"}],"stateMutability":"view"},{"type":"function","name":"timeFactor","inputs":[],"outputs":[{"name":"","type":"uint256","internalType":"uint256"}],"stateMutability":"view"},{"type":"function","name":"totalSupply","inputs":[],"outputs":[{"name":"","type":"uint256","internalType":"uint256"}],"stateMutability":"view"},{"type":"function","name":"transfer","inputs":[{"name":"to","type":"address","internalType":"address"},{"name":"value","type":"uint256","internalType":"uint256"}],"outputs":[{"name":"","type":"bool","internalType":"bool"}],"stateMutability":"nonpayable"},{"type":"function","name":"transferFrom","inputs":[{"name":"from","type":"address","internalType":"address"},{"name":"to","type":"address","internalType":"address"},{"name":"value","type":"uint256","internalType":"uint256"}],"outputs":[{"name":"","type":"bool","internalType":"bool"}],"stateMutability":"nonpayable"},{"type":"function","name":"transferOwnership","inputs":[{"name":"newOwner","type":"address","internalType":"address"}],"outputs":[],"stateMutability":"nonpayable"},{"type":"function","name":"updateForwarder","inputs":[{"name":"newForwarder","type":"address","internalType":"address"}],"outputs":[],"stateMutability":"nonpayable"},{"type":"function","name":"updateParams","inputs":[{"name":"cp","type":"tuple","internalType":"struct IRaven.ConstructParams","components":[{"name":"Admin","type":"address","internalType":"address"},{"name":"Forwarder","type":"address","internalType":"address"},{"name":"Usdt","type":"address","internalType":"address"},{"name":"DataFeedAddress","type":"address","internalType":"address"},{"name":"PubVaultAddress","type":"address","internalType":"address"},{"name":"BaseSharePrice","type":"uint256","internalType":"uint256"},{"name":"RoundWindow","type":"uint256","internalType":"uint256"},{"name":"IncenWindow","type":"uint256","internalType":"uint256"},{"name":"Expiration","type":"uint256","internalType":"uint256"},{"name":"TimeFactor","type":"uint256","internalType":"uint256"},{"name":"PriceFactor","type":"uint256","internalType":"uint256"},{"name":"StrikeSpacing","type":"uint256","internalType":"uint256"},{"name":"MaxLeverage","type":"uint256","internalType":"uint256"},{"name":"BasePerc","type":"uint256","internalType":"uint256"},{"name":"WinPerc","type":"uint256","internalType":"uint256"},{"name":"WinnerPerc","type":"uint256","internalType":"uint256"},{"name":"AdminPerc","type":"uint256","internalType":"uint256"},{"name":"LqdtAdminFeePerc","type":"uint256","internalType":"uint256"},{"name":"LqdtVaultFeePerc","type":"uint256","internalType":"uint256"},{"name":"IncenVTokenPerc","type":"uint256","internalType":"uint256"},{"name":"LiquidationVTokenPerc","type":"uint256","internalType":"uint256"},{"name":"UsdtDecimals","type":"uint8","internalType":"uint8"},{"name":"VSlots","type":"uint8","internalType":"uint8"}]}],"outputs":[],"stateMutability":"nonpayable"},{"type":"function","name":"upgradeToAndCall","inputs":[{"name":"newImplementation","type":"address","internalType":"address"},{"name":"data","type":"bytes","internalType":"bytes"}],"outputs":[],"stateMutability":"payable"},{"type":"function","name":"usdt","inputs":[],"outputs":[{"name":"","type":"address","internalType":"address"}],"stateMutability":"view"},{"type":"function","name":"usdtDecimals","inputs":[],"outputs":[{"name":"","type":"uint8","internalType":"uint8"}],"stateMutability":"view"},{"type":"function","name":"vSlots","inputs":[],"outputs":[{"name":"","type":"uint8","internalType":"uint8"}],"stateMutability":"view"},{"type":"function","name":"winPerc","inputs":[],"outputs":[{"name":"","type":"uint256","internalType":"uint256"}],"stateMutability":"view"},{"type":"function","name":"winnerPerc","inputs":[],"outputs":[{"name":"","type":"uint256","internalType":"uint256"}],"stateMutability":"view"},{"type":"event","name":"Approval","inputs":[{"name":"owner","type":"address","indexed":true,"internalType":"address"},{"name":"spender","type":"address","indexed":true,"internalType":"address"},{"name":"value","type":"uint256","indexed":false,"internalType":"uint256"}],"anonymous":false},{"type":"event","name":"Initialized","inputs":[{"name":"version","type":"uint64","indexed":false,"internalType":"uint64"}],"anonymous":false},{"type":"event","name":"LiquidationUpdated","inputs":[{"name":"user","type":"address","indexed":false,"internalType":"address"},{"name":"oType","type":"uint8","indexed":false,"internalType":"enum IRaven.OType"},{"name":"slot","type":"uint8","indexed":false,"internalType":"uint8"},{"name":"lvgValue","type":"uint256","indexed":false,"internalType":"uint256"},{"name":"newShare","type":"uint256","indexed":false,"internalType":"uint256"},{"name":"newMargin","type":"uint256","indexed":false,"internalType":"uint256"},{"name":"openTime","type":"uint256","indexed":false,"internalType":"uint256"},{"name":"updateBlock","type":"uint256","indexed":false,"internalType":"uint256"}],"anonymous":false},{"type":"event","name":"OwnershipTransferred","inputs":[{"name":"previousOwner","type":"address","indexed":true,"internalType":"address"},{"name":"newOwner","type":"address","indexed":true,"internalType":"address"}],"anonymous":false},{"type":"event","name":"Transfer","inputs":[{"name":"from","type":"address","indexed":true,"internalType":"address"},{"name":"to","type":"address","indexed":true,"internalType":"address"},{"name":"value","type":"uint256","indexed":false,"internalType":"uint256"}],"anonymous":false},{"type":"event","name":"Upgraded","inputs":[{"name":"implementation","type":"address","indexed":true,"internalType":"address"}],"anonymous":false},{"type":"error","name":"AddressEmptyCode","inputs":[{"name":"target","type":"address","internalType":"address"}]},{"type":"error","name":"ERC1967InvalidImplementation","inputs":[{"name":"implementation","type":"address","internalType":"address"}]},{"type":"error","name":"ERC1967NonPayable","inputs":[]},{"type":"error","name":"ERC20InsufficientAllowance","inputs":[{"name":"spender","type":"address","internalType":"address"},{"name":"allowance","type":"uint256","internalType":"uint256"},{"name":"needed","type":"uint256","internalType":"uint256"}]},{"type":"error","name":"ERC20InsufficientBalance","inputs":[{"name":"sender","type":"address","internalType":"address"},{"name":"balance","type":"uint256","internalType":"uint256"},{"name":"needed","type":"uint256","internalType":"uint256"}]},{"type":"error","name":"ERC20InvalidApprover","inputs":[{"name":"approver","type":"address","internalType":"address"}]},{"type":"error","name":"ERC20InvalidReceiver","inputs":[{"name":"receiver","type":"address","internalType":"address"}]},{"type":"error","name":"ERC20InvalidSender","inputs":[{"name":"sender","type":"address","internalType":"address"}]},{"type":"error","name":"ERC20InvalidSpender","inputs":[{"name":"spender","type":"address","internalType":"address"}]},{"type":"error","name":"FailedInnerCall","inputs":[]},{"type":"error","name":"InvalidInitialization","inputs":[]},{"type":"error","name":"NotInitializing","inputs":[]},{"type":"error","name":"OwnableInvalidOwner","inputs":[{"name":"owner","type":"address","internalType":"address"}]},{"type":"error","name":"OwnableUnauthorizedAccount","inputs":[{"name":"account","type":"address","internalType":"address"}]},{"type":"error","name":"UUPSUnauthorizedCallContext","inputs":[]},{"type":"error","name":"UUPSUnsupportedProxiableUUID","inputs":[{"name":"slot","type":"bytes32","internalType":"bytes32"}]}],"bytecode":{"object":"0x60a06040523060805234801561001457600080fd5b5060805161490361003e6000396000818161221a01528181612243015261238401526149036000f3fe6080604052600436106103815760003560e01c806373efbf39116101d1578063b844745611610102578063dd738ef1116100a0578063f645d4f91161006f578063f645d4f914610a9e578063f851a44014610abe578063fadd6b0914610ade578063fbee2d8c14610afe57600080fd5b8063dd738ef114610a32578063dfb2866d14610a48578063dfeb1c4d14610a5e578063f2fde38b14610a7e57600080fd5b8063c9fe85d9116100dc578063c9fe85d9146109bc578063d91db8d5146109dc578063dcee2a26146109fc578063dd62ed3e14610a1257600080fd5b8063b844745614610970578063ba17128b14610986578063c3f67ce21461099c57600080fd5b806382543b321161016f578063a9059cbb11610149578063a9059cbb146108f4578063ad3cb1cc14610914578063ad8f500814610945578063ae3302c21461095a57600080fd5b806382543b32146108885780638da5cb5b146108a257806395d89b41146108df57600080fd5b806377e0970b116101ab57806377e0970b146108265780637bc95d841461083c5780638156538e1461085c578063822daf601461087257600080fd5b806373efbf39146107c35780637401ecf7146107e357806377049fc11461081057600080fd5b80632f48ab7d116102b65780634ff4107111610254578063679e5aa311610223578063679e5aa31461074e5780636a708ecc1461076e57806370a082311461078e578063715018a6146107ae57600080fd5b80634ff41071146106e057806352d1902d146106f65780635eb9d2851461070b57806367327fdc1461072157600080fd5b806334db3b9c1161029057806334db3b9c146106585780633e0e1f471461066e5780634665096d146106b75780634f1ef286146106cd57600080fd5b80632f48ab7d1461060e578063313ce5671461062e5780633386a39a1461064257600080fd5b80631bf751ef1161032357806326b91f5b116102fd57806326b91f5b1461056c578063276b28b514610582578063287fb37c146105c15780632a698bed146105e157600080fd5b80631bf751ef146104f95780632291237e1461052a57806323b872dd1461054c57600080fd5b8063151b8e661161035f578063151b8e6614610405578063178e7a6e1461043d578063180613bf146104af57806318160ddd146104c557600080fd5b806306fdde0314610386578063095ea7b3146103b15780631031a063146103e1575b600080fd5b34801561039257600080fd5b5061039b610b14565b6040516103a89190613c7f565b60405180910390f35b3480156103bd57600080fd5b506103d16103cc366004613cce565b610bd7565b60405190151581526020016103a8565b3480156103ed57600080fd5b506103f760045481565b6040519081526020016103a8565b34801561041157600080fd5b506103f7610420366004613d12565b601c60209081526000928352604080842090915290825290205481565b34801561044957600080fd5b50610487610458366004613d42565b601960205260009081526040902080546001820154600283015460038401546004909401549293919290919085565b604080519586526020860194909452928401919091526060830152608082015260a0016103a8565b3480156104bb57600080fd5b506103f760135481565b3480156104d157600080fd5b507f52c63247e1f47db19d5ce0460030c497f067ca4cebf71ba98eeadabe20bace02546103f7565b34801561050557600080fd5b5060165461051890610100900460ff1681565b60405160ff90911681526020016103a8565b34801561053657600080fd5b5061054a610545366004613d5b565b610bf1565b005b34801561055857600080fd5b506103d1610567366004613d76565b610c9c565b34801561057857600080fd5b506103f7600e5481565b34801561058e57600080fd5b506016546105a990630100000090046001600160a01b031681565b6040516001600160a01b0390911681526020016103a8565b3480156105cd57600080fd5b5061054a6105dc366004613fde565b610cc2565b3480156105ed57600080fd5b506103f76105fc366004613d42565b601d6020526000908152604090205481565b34801561061a57600080fd5b506002546105a9906001600160a01b031681565b34801561063a57600080fd5b506012610518565b34801561064e57600080fd5b506103f7600f5481565b34801561066457600080fd5b506103f760035481565b34801561067a57600080fd5b506106a2610689366004613d42565b6018602052600090815260409020805460019091015482565b604080519283526020830191909152016103a8565b3480156106c357600080fd5b506103f760065481565b61054a6106db366004614065565b6110f3565b3480156106ec57600080fd5b506103f760095481565b34801561070257600080fd5b506103f7611112565b34801561071757600080fd5b506103f760125481565b34801561072d57600080fd5b506103f761073c366004613d42565b601a6020526000908152604090205481565b34801561075a57600080fd5b5061054a6107693660046140d6565b61112f565b34801561077a57600080fd5b5061054a6107893660046141b6565b61145f565b34801561079a57600080fd5b506103f76107a9366004613d5b565b61159b565b3480156107ba57600080fd5b5061054a6115c3565b3480156107cf57600080fd5b5061054a6107de366004614281565b6115d7565b3480156107ef57600080fd5b506103f76107fe366004613d42565b601b6020526000908152604090205481565b34801561081c57600080fd5b506103f7600b5481565b34801561083257600080fd5b506103f760055481565b34801561084857600080fd5b5061054a6108573660046141b6565b6119e4565b34801561086857600080fd5b506103f760145481565b34801561087e57600080fd5b506103f760075481565b34801561089457600080fd5b506016546105189060ff1681565b3480156108ae57600080fd5b507f9016d09d72d40fdae2fd8ceac6b6234c7706214fd39c1cd1e609a0528c199300546001600160a01b03166105a9565b3480156108eb57600080fd5b5061039b611afb565b34801561090057600080fd5b506103d161090f366004613cce565b611b3a565b34801561092057600080fd5b5061039b604051806040016040528060058152602001640352e302e360dc1b81525081565b34801561095157600080fd5b5061054a611b48565b34801561096657600080fd5b506103f7600a5481565b34801561097c57600080fd5b506103f7600d5481565b34801561099257600080fd5b506103f7600c5481565b3480156109a857600080fd5b5061054a6109b73660046142ce565b611c26565b3480156109c857600080fd5b5061054a6109d736600461430d565b611d56565b3480156109e857600080fd5b5061054a6109f73660046142ce565b611eb7565b348015610a0857600080fd5b506103f760115481565b348015610a1e57600080fd5b506103f7610a2d36600461432a565b612044565b348015610a3e57600080fd5b506103f760105481565b348015610a5457600080fd5b506103f760085481565b348015610a6a57600080fd5b5061054a610a7936600461436b565b61208e565b348015610a8a57600080fd5b5061054a610a99366004613d5b565b6120d4565b348015610aaa57600080fd5b506001546105a9906001600160a01b031681565b348015610aca57600080fd5b506000546105a9906001600160a01b031681565b348015610aea57600080fd5b506016546103d19062010000900460ff1681565b348015610b0a57600080fd5b506103f760155481565b7f52c63247e1f47db19d5ce0460030c497f067ca4cebf71ba98eeadabe20bace03805460609160008051602061488e83398151915291610b5390614388565b80601f0160208091040260200160405190810160405280929190818152602001828054610b7f90614388565b8015610bcc5780601f10610ba157610100808354040283529160200191610bcc565b820191906000526020600020905b815481529060010190602001808311610baf57829003601f168201915b505050505091505090565b600033610be5818585612112565b60019150505b92915050565b6000546001600160a01b03163314610c245760405162461bcd60e51b8152600401610c1b906143bc565b60405180910390fd5b6001600160a01b038116610c7a5760405162461bcd60e51b815260206004820152601f60248201527f696e76616c6964206e6577466f727761726465722061646472657373283029006044820152606401610c1b565b600180546001600160a01b0319166001600160a01b0392909216919091179055565b600033610caa85828561211f565b610cb5858585612185565b60019150505b9392505050565b7ff0c57e16840df040f15088dc2f81fe391c3923bec73e23a9662efc9c229c6a008054600160401b810460ff16159067ffffffffffffffff16600081158015610d085750825b905060008267ffffffffffffffff166001148015610d255750303b155b905081158015610d33575080155b15610d515760405163f92ee8a960e01b815260040160405180910390fd5b845467ffffffffffffffff191660011785558315610d7b57845460ff60401b1916600160401b1785555b85516001600160a01b0316610dd25760405162461bcd60e51b815260206004820152601860248201527f696e76616c69642041646d696e206164647265737328302900000000000000006044820152606401610c1b565b60208601516001600160a01b0316610e2c5760405162461bcd60e51b815260206004820152601c60248201527f696e76616c696420466f727761726465722061646472657373283029000000006044820152606401610c1b565b60408601516001600160a01b0316610e865760405162461bcd60e51b815260206004820152601760248201527f696e76616c6964205573647420616464726573732830290000000000000000006044820152606401610c1b565b60608601516001600160a01b0316610eeb5760405162461bcd60e51b815260206004820152602260248201527f696e76616c696420446174614665656441646472657373206164647265737328604482015261302960f01b6064820152608401610c1b565b60808601516001600160a01b0316610f505760405162461bcd60e51b815260206004820152602260248201527f696e76616c6964205075625661756c7441646472657373206164647265737328604482015261302960f01b6064820152608401610c1b565b610f59896121e4565b610f6388886121f5565b610f6b612207565b8551600080546001600160a01b03199081166001600160a01b03938416179091556020880151600180548316918416919091179055604088015160028054831691841691909117905560a088015160035560c088015160045560e088015160055561010080890151600655610120890151600755610140890151600855610160890151600955610180890151600a556101a0890151600b556101c0890151600c556101e0890151600d55610200890151600e55610220890151600f556102408901516010556102608901516011556102808901516012556102a0890151601680546102c08c015160608d0151601780549097169088161790955560808c015160ff93841661ffff199092169190911792909416909202176301000000600160b81b0319166301000000929093169190910291909117905583156110e857845460ff60401b19168555604051600181527fc7f505b2f371ae2175ee4913f4499e1f2633a7b5936321eed1cdaeb6115181d29060200160405180910390a15b505050505050505050565b6110fb61220f565b611104826122b4565b61110e82826122bc565b5050565b600061111c612379565b506000805160206148ae83398151915290565b60165462010000900460ff1661117a5760405162461bcd60e51b815260206004820152601060248201526f13195d99c8139bdd08195b98589b195960821b6044820152606401610c1b565b600061118960135485876123c2565b9050600061119782336123f8565b90506111a3848461243d565b6111df5760405162461bcd60e51b815260206004820152600d60248201526c1d995c9a599e4819985a5b1959609a1b6044820152606401610c1b565b6000806111ec8888612526565b909250905060006111fd83886143ff565b9050600061120b878361442c565b611216906001614440565b905060006112248284614453565b6016546040516308288d8f60e21b8152919250630100000090046001600160a01b0316906320a2363c9061125f90849060009060040161449a565b602060405180830381865afa15801561127c573d6000803e3d6000fd5b505050506040513d601f19601f820116820180604052508101906112a091906144b7565b6112e05760405162461bcd60e51b81526020600482015260116024820152703737ba1032b737bab3b41036b0b933b4b760791b6044820152606401610c1b565b6016546040516328ff4f1f60e11b81526004810183905263010000009091046001600160a01b0316906351fe9e3e90602401600060405180830381600087803b15801561132c57600080fd5b505af1158015611340573d6000803e3d6000fd5b5050505060006040518060e001604052808981526020018b81526020018581526020018481526020018a8152602001336001600160a01b03168152602001861515815250905061138f81612866565b6002546113a7906001600160a01b0316333086612b4b565b6000601960008981526020019081526020016000206040518060a00160405290816000820154815260200160018201548152602001600282015481526020016003820154815260200160048201548152505090507fa66d549e27248adf5541ac239251a5f6c8117072e7ed07991b3fff58eb218b0c338e8e8460200151856000015186604001518760800151436040516114489897969594939291906144d4565b60405180910390a150505050505050505050505050565b600083118015611470575060135483105b6114b35760405162461bcd60e51b81526020600482015260146024820152731a5b9d985b1a59081c995919595b481c9bdd5b9960621b6044820152606401610c1b565b80518251146114fd5760405162461bcd60e51b81526020600482015260166024820152750c4c2e8c6d040d8cadccee8d040dcdee840dac2e8c6d60531b6044820152606401610c1b565b600033815b83518160ff16101561157657600061155487878460ff168151811061152957611529614526565b6020026020010151878560ff168151811061154657611546614526565b602002602001015186612c55565b90506115608185614440565b935050808061156e9061453c565b915050611502565b50811561159457600254611594906001600160a01b03168284612d28565b5050505050565b6001600160a01b0316600090815260008051602061488e833981519152602052604090205490565b6115cb612e21565b6115d56000612e7c565b565b600b546012546115e790836143ff565b6115f1919061442c565b6115fd6012600a61463f565b6116063361159b565b611610919061442c565b101561165e5760405162461bcd60e51b815260206004820152601960248201527f6e6f7420656e6f7567682076546f6b656e2062616c616e6365000000000000006044820152606401610c1b565b600080600061166e878787612eed565b925092509250826116c15760405162461bcd60e51b815260206004820152601860248201527f696e76616c6964206c69717569646174696f6e2063616c6c00000000000000006044820152606401610c1b565b808411156117065760405162461bcd60e51b8152602060048201526012602482015271696e76616c69642063616c6c20736861726560701b6044820152606401610c1b565b6000611715601354888a6123c2565b9050600061172382886123f8565b60008181526019602052604081208054600182015493945090926117499188918b61303d565b601654602082015160405163b866d19360e01b81526004810191909152919250630100000090046001600160a01b03169063b866d19390602401600060405180830381600087803b15801561179d57600080fd5b505af11580156117b1573d6000803e3d6000fd5b505050508060400151826002015410156117cc5760006117e0565b806040015182600201546117e09190614453565b600283015581548811156117f5576000611802565b8154611802908990614453565b8255805160018301541015611818576000611829565b805160018301546118299190614453565b60018301556000848152601a602052604090205488111561184b576000611865565b6000848152601a6020526040902054611865908990614453565b6000858152601a60209081526040808320939093558351601b9091529190205410156118925760006118ad565b80516000858152601b60205260409020546118ad9190614453565b6000858152601b6020526040908190209190915560025460808301516060840151928401516118fe936001600160a01b03909316923392916118ef9190614453565b6118f99190614453565b612d28565b6002546016546080830151611927926001600160a01b0390811692630100000090041690612d28565b6002546000546060830151611949926001600160a01b03908116921690612d28565b611982336119596012600a61463f565b600b54601254611969908d6143ff565b611973919061442c565b61197d91906143ff565b61312a565b7fa66d549e27248adf5541ac239251a5f6c8117072e7ed07991b3fff58eb218b0c898c8c8560010154866000015487600201548860040154436040516119cf9897969594939291906144d4565b60405180910390a15050505050505050505050565b6000831180156119f5575060135483105b611a385760405162461bcd60e51b81526020600482015260146024820152731a5b9d985b1a59081c995919595b481c9bdd5b9960621b6044820152606401610c1b565b8051825114611a825760405162461bcd60e51b81526020600482015260166024820152750c4c2e8c6d040d8cadccee8d040dcdee840dac2e8c6d60531b6044820152606401610c1b565b600033815b83518160ff161015611576576000611ad987878460ff1681518110611aae57611aae614526565b6020026020010151878560ff1681518110611acb57611acb614526565b602002602001015186613160565b9050611ae58185614440565b9350508080611af39061453c565b915050611a87565b7f52c63247e1f47db19d5ce0460030c497f067ca4cebf71ba98eeadabe20bace04805460609160008051602061488e83398151915291610b5390614388565b600033610be5818585612185565b6001546001600160a01b0316331480611b6b57506000546001600160a01b031633145b611ba85760405162461bcd60e51b815260206004820152600e60248201526d34b73b30b634b21031b0b63632b960911b6044820152606401610c1b565b600080611bb361321e565b6013546000908152601d6020526040812083905542601455436015559193509150611bdd8361335c565b601380549192506000611bef8361464e565b9190505550611bfe83836134f1565b8015611c2157600254600054611c21916001600160a01b03908116911683612d28565b505050565b60008111611c6a5760405162461bcd60e51b8152602060048201526011602482015270696e76616c6964207368617265206e756d60781b6044820152606401610c1b565b600454601454611c7a9042614453565b1115611cc85760405162461bcd60e51b815260206004820152601b60248201527f6f70656e20706f736974696f6e2077696e646f7720636c6f73656400000000006044820152606401610c1b565b6000611cd760135484866123c2565b90506000611ce58585612526565b5090506000611cf482856143ff565b6040805160e08101825285815260208101879052908101829052600060608201819052600160808301523360a083015260c0820152909150611d3581612866565b600254611d4d906001600160a01b0316333085612b4b565b50505050505050565b6000546001600160a01b03163314611d805760405162461bcd60e51b8152600401610c1b906143bc565b8051600080546001600160a01b03199081166001600160a01b03938416179091556020830151600180548316918416919091179055604083015160028054831691841691909117905560a083015160035560c083015160045560e083015160055561010080840151600655610120840151600755610140840151600855610160840151600955610180840151600a556101a0840151600b556101c0840151600c556101e0840151600d55610200840151600e55610220840151600f556102408401516010556102608401516011556102808401516012556102a0840151601680546102c08701516060880151601780549097169088161790955560809096015160ff92831661ffff199097169690961791909316909102176301000000600160b81b03191663010000009390921692909202179055565b6000611ec660135484866123c2565b90506000611ed482336123f8565b6000818152601960205260409020805491925090611f265760405162461bcd60e51b815260206004820152600f60248201526e373790363b33903837b9b4ba34b7b760891b6044820152606401610c1b565b6000611f328787612526565b9150508015611fbb57600654601454611f4b9190614440565b611f6d83600401548460010154888660020154611f689190614440565b6135d2565b1115611fbb5760405162461bcd60e51b815260206004820152601b60248201527f4c7164742074696d65206578636565642065787069726174696f6e00000000006044820152606401610c1b565b84826002016000828254611fcf9190614440565b9091555050600254611fec906001600160a01b0316333088612b4b565b60018201548254600284015460048501546040517fa66d549e27248adf5541ac239251a5f6c8117072e7ed07991b3fff58eb218b0c946120339433948e948e9443906144d4565b60405180910390a150505050505050565b6001600160a01b0391821660009081527f52c63247e1f47db19d5ce0460030c497f067ca4cebf71ba98eeadabe20bace016020908152604080832093909416825291909152205490565b6000546001600160a01b031633146120b85760405162461bcd60e51b8152600401610c1b906143bc565b60168054911515620100000262ff000019909216919091179055565b6120dc612e21565b6001600160a01b03811661210657604051631e4fbdf760e01b815260006004820152602401610c1b565b61210f81612e7c565b50565b611c2183838360016135f7565b600061212b8484612044565b9050600019811461217f578181101561217057604051637dc7a0d960e11b81526001600160a01b03841660048201526024810182905260448101839052606401610c1b565b61217f848484840360006135f7565b50505050565b6001600160a01b0383166121af57604051634b637e8f60e11b815260006004820152602401610c1b565b6001600160a01b0382166121d95760405163ec442f0560e01b815260006004820152602401610c1b565b611c218383836136de565b6121ec61381c565b61210f81613865565b6121fd61381c565b61110e828261386d565b6115d561381c565b306001600160a01b037f000000000000000000000000000000000000000000000000000000000000000016148061229657507f00000000000000000000000000000000000000000000000000000000000000006001600160a01b031661228a6000805160206148ae833981519152546001600160a01b031690565b6001600160a01b031614155b156115d55760405163703e46dd60e11b815260040160405180910390fd5b61210f612e21565b816001600160a01b03166352d1902d6040518163ffffffff1660e01b8152600401602060405180830381865afa925050508015612316575060408051601f3d908101601f1916820190925261231391810190614667565b60015b61233e57604051634c9c8ce360e01b81526001600160a01b0383166004820152602401610c1b565b6000805160206148ae833981519152811461236f57604051632a87526960e21b815260048101829052602401610c1b565b611c2183836138be565b306001600160a01b037f000000000000000000000000000000000000000000000000000000000000000016146115d55760405163703e46dd60e11b815260040160405180910390fd5b60008383836040516020016123d993929190614680565b6040516020818303038152906040528051906020012090509392505050565b6000828260405160200161241f9291909182526001600160a01b0316602082015260400190565b60405160208183030381529060405280519060200120905092915050565b600080831161247e5760405162461bcd60e51b815260206004820152600d60248201526c696e76616c696420736861726560981b6044820152606401610c1b565b6001821180156124905750600a548211155b6124cf5760405162461bcd60e51b815260206004820152601060248201526f696e76616c6964206c6576657261676560801b6044820152606401610c1b565b6004546014546124df9042614453565b111561251d5760405162461bcd60e51b815260206004820152600d60248201526c1dda5b991bddc818db1bdcd959609a1b6044820152606401610c1b565b50600192915050565b60008060145460000361253f575050600354600061285f565b60008061254a61321e565b6013546000908152601c6020908152604080832060ff8b1684529091528120546007546006549496509294509290916125829161442c565b9050600081600754601454426125989190614453565b6125a2919061442c565b6125ac9190614440565b905060006125bb85600a61463f565b6008546125c891906143ff565b90506000600854856125da919061442c565b90506000600854886125ec919061442c565b90506000868911612606576126018988614453565b612610565b612610878a614453565b905060008d600181111561262657612626614466565b0361274257888710801561263a5750838110155b1561269e578361264b60028861463f565b61265590856143ff565b61265f91906143ff565b8161266b60028861463f565b8460035461267991906143ff565b61268391906143ff565b61268d91906143ff565b612697919061442c565b9a50612738565b88871180156126ad5750838110155b156126de57806126be60028861463f565b6126c890856143ff565b6126d291906143ff565b8461266b60028861463f565b6126e960c88861442c565b6126f460c88b61442c565b6126ff60028961463f565b61270a60028961463f565b60035461271791906143ff565b612721919061442c565b61272b9190614440565b6127359190614453565b9a505b8887119950612855565b88871180156127515750838110155b156127b5578361276260028861463f565b61276c90846143ff565b61277691906143ff565b8161278260028861463f565b8560035461279091906143ff565b61279a91906143ff565b6127a491906143ff565b6127ae919061442c565b9a5061284f565b88871080156127c45750838110155b156127f557806127d560028861463f565b6127df90846143ff565b6127e991906143ff565b8461278260028861463f565b61280060c88a61442c565b61280b60c88961442c565b61281660028961463f565b61282160028961463f565b60035461282e91906143ff565b612838919061442c565b6128429190614440565b61284c9190614453565b9a505b88871099505b5050505050505050505b9250929050565b8060200151601a60008360000151815260200190815260200160002060008282546128919190614440565b909155505060408082015182516000908152601b6020529182208054919290916128bc908490614440565b9091555050805160a08201516000916128d4916123f8565b9050816080015160010361293e576020808301516000838152601890925260408220805491929091612907908490614440565b909155505060408083015160008381526018602052918220600101805491929091612933908490614440565b90915550612add9050565b6000818152601960209081526040808320815160a081018352815481526001820154938101849052600282015481840152600382015460608201526004909101546080820152908501519092916129959190614440565b90506000846060015183604001516129ad9190614440565b9050600083606001516000146129cc576129c7828461442c565b6129d2565b85608001515b9050600084608001516000146129ec5784608001516129ee565b425b90508660c0015115612a6357600654601454612a0a9190614440565b612a158286866135d2565b1115612a635760405162461bcd60e51b815260206004820152601b60248201527f4c7164742074696d65206578636565642065787069726174696f6e00000000006044820152606401610c1b565b6040518060a0016040528088602001518760000151612a829190614440565b8152602080820196909652604080820195909552606080820194909452608090810192909252600087815260198652849020815181559481015160018601559283015160028501559082015160038401550151600490910155505b6000600554601454612aef9190614440565b421115612b00578260200151612b1f565b600b546011548460200151612b1591906143ff565b612b1f919061442c565b9050611c218360a00151612b31601290565b612b3c90600a61463f565b612b4690846143ff565b613914565b604080516001600160a01b0385811660248301528481166044830152606480830185905283518084039091018152608490920183526020820180516001600160e01b03166323b872dd60e01b1790529151600092839290881691612baf91906146a7565b6000604051808303816000865af19150503d8060008114612bec576040519150601f19603f3d011682016040523d82523d6000602084013e612bf1565b606091505b5091509150818015612c1b575080511580612c1b575080806020019051810190612c1b91906144b7565b612c4d5760405162461bcd60e51b815260206004820152600360248201526229aa2360e91b6044820152606401610c1b565b505050505050565b600080612c638685876123c2565b90506000612c7182856123f8565b60008181526019602090815260408083208b8452601d909252822054929350918190612ca0908b908a9061394a565b91509150806001811115612cb657612cb6614466565b896001811115612cc857612cc8614466565b03612cdf5750506000908190559250612d20915050565b6000612cec8b8a856123c2565b90506000612cfb8c8b856123c2565b9050612d11856000015486600201548484613989565b60009095555092955050505050505b949350505050565b604080516001600160a01b038481166024830152604480830185905283518084039091018152606490920183526020820180516001600160e01b031663a9059cbb60e01b1790529151600092839290871691612d8491906146a7565b6000604051808303816000865af19150503d8060008114612dc1576040519150601f19603f3d011682016040523d82523d6000602084013e612dc6565b606091505b5091509150818015612df0575080511580612df0575080806020019051810190612df091906144b7565b6115945760405162461bcd60e51b815260206004820152600260248201526114d560f21b6044820152606401610c1b565b33612e537f9016d09d72d40fdae2fd8ceac6b6234c7706214fd39c1cd1e609a0528c199300546001600160a01b031690565b6001600160a01b0316146115d55760405163118cdaa760e01b8152336004820152602401610c1b565b7f9016d09d72d40fdae2fd8ceac6b6234c7706214fd39c1cd1e609a0528c19930080546001600160a01b031981166001600160a01b03848116918217845560405192169182907f8be0079c531659141344cd1fd0a4f28419497f9722a3daafe3b4186f6b6457e090600090a3505050565b600080600080612f09612f03601354888a6123c2565b866123f8565b600081815260196020908152604091829020825160a081018452815480825260018301549382019390935260028201549381019390935260038101546060840152600401546080830152919250901580612f6557506020810151155b80612f7257506040810151155b80612f7f57506080810151155b15612f965760008060009450945094505050613034565b6000612faf8260800151836020015184604001516135d2565b9050804211612fcb576000806000955095509550505050613034565b6000612fd561321e565b506013546000908152601c6020908152604080832060ff8e1684529091529020549091506130048b83836139b9565b1561302357505050604081015190516001955090935091506130349050565b600080600097509750975050505050505b93509350939050565b61306f6040518060a0016040528060008152602001600081526020016000815260200160008152602001600081525090565b60008461307c84866143ff565b613086919061442c565b905060008561309585896143ff565b61309f919061442c565b90506000818310156130b25760006130bc565b6130bc8284614453565b90506000600b54600f54846130d191906143ff565b6130db919061442c565b90506000600b54601054856130f091906143ff565b6130fa919061442c565b6040805160a081018252968752602087019490945292850193909352606084015260808301525095945050505050565b6001600160a01b03821661315457604051634b637e8f60e11b815260006004820152602401610c1b565b61110e826000836136de565b60008060006131838786601d60008b81526020019081526020016000205461394a565b9150915060006131948887856123c2565b905060006131a38988856123c2565b905060006131b28a898b6123c2565b905060006131c082896123f8565b600081815260186020526040902090915061320a8760018111156131e6576131e6614466565b8c60018111156131f8576131f8614466565b14826000015483600101548888613a04565b60009091559b9a5050505050505050505050565b6000806000601760009054906101000a90046001600160a01b03166001600160a01b031663feaf968c6040518163ffffffff1660e01b815260040160a060405180830381865afa158015613276573d6000803e3d6000fd5b505050506040513d601f19601f8201168201806040525081019061329a91906146dd565b50505091505060008112156132e65760405162461bcd60e51b8152602060048201526012602482015271616e73776572206973206e6567617469766560701b6044820152606401610c1b565b6017546040805163313ce56760e01b8152905183926001600160a01b03169163313ce5679160048083019260209291908290030181865afa15801561332f573d6000803e3d6000fd5b505050506040513d601f19601f82011682018060405250810190613353919061472d565b92509250509091565b600060135460000361337057506000919050565b6000601660039054906101000a90046001600160a01b03166001600160a01b031663568914126040518163ffffffff1660e01b8152600401602060405180830381865afa1580156133c5573d6000803e3d6000fd5b505050506040513d601f19601f820116820180604052508101906133e99190614667565b111561345857601660039054906101000a90046001600160a01b03166001600160a01b031663d135cc4b6040518163ffffffff1660e01b8152600401600060405180830381600087803b15801561343f57600080fd5b505af1158015613453573d6000803e3d6000fd5b505050505b60005b60165460ff610100909104811690821610156134eb576000613480601354838661394a565b915050600061349260135484846123c2565b600b549091506134a290806143ff565b600e54600c546000848152601b60205260409020546134c191906143ff565b6134cb91906143ff565b6134d5919061442c565b6134df9085614440565b9350505060010161345b565b50919050565b60165460009060029061350e90600190610100900460ff1661474a565b6135189190614763565b60ff1660095461352891906143ff565b6009548061353785600a61463f565b613541908761442c565b61354b919061442c565b61355591906143ff565b61355f9190614453565b905060005b60165460ff6101009091048116908216101561217f5761358583600a61463f565b8160ff1660095461359691906143ff565b6135a09084614440565b6135aa91906143ff565b6013546000908152601c6020908152604080832060ff86168452909152902055600101613564565b600082826006546135e391906143ff565b6135ed919061442c565b612d209085614440565b60008051602061488e8339815191526001600160a01b0385166136305760405163e602df0560e01b815260006004820152602401610c1b565b6001600160a01b03841661365a57604051634a1406b160e11b815260006004820152602401610c1b565b6001600160a01b0380861660009081526001830160209081526040808320938816835292905220839055811561159457836001600160a01b0316856001600160a01b03167f8c5be1e5ebec7d5bd14f71427d1e84f3dd0314c0f7b2291e5b200ac8c7c3b925856040516136cf91815260200190565b60405180910390a35050505050565b60008051602061488e8339815191526001600160a01b03841661371a578181600201600082825461370f9190614440565b9091555061378c9050565b6001600160a01b0384166000908152602082905260409020548281101561376d5760405163391434e360e21b81526001600160a01b03861660048201526024810182905260448101849052606401610c1b565b6001600160a01b03851660009081526020839052604090209083900390555b6001600160a01b0383166137aa5760028101805483900390556137c9565b6001600160a01b03831660009081526020829052604090208054830190555b826001600160a01b0316846001600160a01b03167fddf252ad1be2c89b69c2b068fc378daa952ba7f163c4a11628f55a4df523b3ef8460405161380e91815260200190565b60405180910390a350505050565b7ff0c57e16840df040f15088dc2f81fe391c3923bec73e23a9662efc9c229c6a0054600160401b900460ff166115d557604051631afcd79f60e31b815260040160405180910390fd5b6120dc61381c565b61387561381c565b60008051602061488e8339815191527f52c63247e1f47db19d5ce0460030c497f067ca4cebf71ba98eeadabe20bace036138af84826147cd565b506004810161217f83826147cd565b6138c782613a63565b6040516001600160a01b038316907fbc7cd75a20ee27fd9adebab32041f755214dbc6bffa90cc0225b39da2e5c2d3b90600090a280511561390c57611c218282613ac8565b61110e613b35565b6001600160a01b03821661393e5760405163ec442f0560e01b815260006004820152602401610c1b565b61110e600083836136de565b6000838152601c6020908152604080832060ff8616845290915281205481908311613978576001600061397d565b600060015b90969095509350505050565b60008460000361399b57506000612d20565b6139a6858484613b54565b6139b09085614440565b95945050505050565b6000808460018111156139ce576139ce614466565b1480156139db5750818311155b80612d20575060018460018111156139f5576139f5614466565b148015612d2057505010919050565b600084600003613a16575060006139b0565b85613a4457600b54600c54613a2b9082614453565b613a3590866143ff565b613a3f919061442c565b613a59565b613a4f858484613b54565b613a599085614440565b9695505050505050565b806001600160a01b03163b600003613a9957604051634c9c8ce360e01b81526001600160a01b0382166004820152602401610c1b565b6000805160206148ae83398151915280546001600160a01b0319166001600160a01b0392909216919091179055565b6060600080846001600160a01b031684604051613ae591906146a7565b600060405180830381855af49150503d8060008114613b20576040519150601f19603f3d011682016040523d82523d6000602084013e613b25565b606091505b50915091506139b0858383613bd6565b34156115d55760405163b398979f60e01b815260040160405180910390fd5b6000828152601a60205260408120548103613b7157506000610cbb565b6000838152601a6020526040902054600b54613b8d90806143ff565b613b9791906143ff565b600d54600c546000858152601b6020526040902054879291613bb8916143ff565b613bc291906143ff565b613bcc91906143ff565b612d20919061442c565b606082613beb57613be682613c32565b610cbb565b8151158015613c0257506001600160a01b0384163b155b15613c2b57604051639996b31560e01b81526001600160a01b0385166004820152602401610c1b565b5080610cbb565b805115613c425780518082602001fd5b604051630a12f52160e11b815260040160405180910390fd5b60005b83811015613c76578181015183820152602001613c5e565b50506000910152565b6020815260008251806020840152613c9e816040850160208701613c5b565b601f01601f19169190910160400192915050565b80356001600160a01b0381168114613cc957600080fd5b919050565b60008060408385031215613ce157600080fd5b613cea83613cb2565b946020939093013593505050565b60ff8116811461210f57600080fd5b8035613cc981613cf8565b60008060408385031215613d2557600080fd5b823591506020830135613d3781613cf8565b809150509250929050565b600060208284031215613d5457600080fd5b5035919050565b600060208284031215613d6d57600080fd5b610cbb82613cb2565b600080600060608486031215613d8b57600080fd5b613d9484613cb2565b9250613da260208501613cb2565b9150604084013590509250925092565b634e487b7160e01b600052604160045260246000fd5b6040516102e0810167ffffffffffffffff81118282101715613dec57613dec613db2565b60405290565b604051601f8201601f1916810167ffffffffffffffff81118282101715613e1b57613e1b613db2565b604052919050565b600067ffffffffffffffff831115613e3d57613e3d613db2565b613e50601f8401601f1916602001613df2565b9050828152838383011115613e6457600080fd5b828260208301376000602084830101529392505050565b600082601f830112613e8c57600080fd5b610cbb83833560208501613e23565b60006102e08284031215613eae57600080fd5b613eb6613dc8565b9050613ec182613cb2565b8152613ecf60208301613cb2565b6020820152613ee060408301613cb2565b6040820152613ef160608301613cb2565b6060820152613f0260808301613cb2565b608082015260a0828101359082015260c0808301359082015260e08083013590820152610100808301359082015261012080830135908201526101408083013590820152610160808301359082015261018080830135908201526101a080830135908201526101c080830135908201526101e08083013590820152610200808301359082015261022080830135908201526102408083013590820152610260808301359082015261028080830135908201526102a0613fc2818401613d07565b908201526102c0613fd4838201613d07565b9082015292915050565b6000806000806103408587031215613ff557600080fd5b613ffe85613cb2565b9350602085013567ffffffffffffffff8082111561401b57600080fd5b61402788838901613e7b565b9450604087013591508082111561403d57600080fd5b5061404a87828801613e7b565b92505061405a8660608701613e9b565b905092959194509250565b6000806040838503121561407857600080fd5b61408183613cb2565b9150602083013567ffffffffffffffff81111561409d57600080fd5b8301601f810185136140ae57600080fd5b6140bd85823560208401613e23565b9150509250929050565b803560028110613cc957600080fd5b600080600080608085870312156140ec57600080fd5b6140f5856140c7565b9350602085013561410581613cf8565b93969395505050506040820135916060013590565b600067ffffffffffffffff82111561413457614134613db2565b5060051b60200190565b600082601f83011261414f57600080fd5b8135602061416461415f8361411a565b613df2565b8083825260208201915060208460051b87010193508684111561418657600080fd5b602086015b848110156141ab57803561419e81613cf8565b835291830191830161418b565b509695505050505050565b6000806000606084860312156141cb57600080fd5b8335925060208085013567ffffffffffffffff808211156141eb57600080fd5b818701915087601f8301126141ff57600080fd5b813561420d61415f8261411a565b81815260059190911b8301840190848101908a83111561422c57600080fd5b938501935b8285101561425157614242856140c7565b82529385019390850190614231565b96505050604087013592508083111561426957600080fd5b50506142778682870161413e565b9150509250925092565b6000806000806080858703121561429757600080fd5b6142a0856140c7565b935060208501356142b081613cf8565b92506142be60408601613cb2565b9396929550929360600135925050565b6000806000606084860312156142e357600080fd5b6142ec846140c7565b925060208401356142fc81613cf8565b929592945050506040919091013590565b60006102e0828403121561432057600080fd5b610cbb8383613e9b565b6000806040838503121561433d57600080fd5b61434683613cb2565b915061435460208401613cb2565b90509250929050565b801515811461210f57600080fd5b60006020828403121561437d57600080fd5b8135610cbb8161435d565b600181811c9082168061439c57607f821691505b6020821081036134eb57634e487b7160e01b600052602260045260246000fd5b60208082526013908201527231b0b63632b91034b9903737ba1030b236b4b760691b604082015260600190565b634e487b7160e01b600052601160045260246000fd5b8082028115828204841417610beb57610beb6143e9565b634e487b7160e01b600052601260045260246000fd5b60008261443b5761443b614416565b500490565b80820180821115610beb57610beb6143e9565b81810381811115610beb57610beb6143e9565b634e487b7160e01b600052602160045260246000fd5b6002811061210f57634e487b7160e01b600052602160045260246000fd5b828152604081016144aa8361447c565b8260208301529392505050565b6000602082840312156144c957600080fd5b8151610cbb8161435d565b6001600160a01b038916815261010081016144ee8961447c565b602082019890985260ff9690961660408701526060860194909452608085019290925260a084015260c083015260e090910152919050565b634e487b7160e01b600052603260045260246000fd5b600060ff821660ff8103614552576145526143e9565b60010192915050565b600181815b8085111561459657816000190482111561457c5761457c6143e9565b8085161561458957918102915b93841c9390800290614560565b509250929050565b6000826145ad57506001610beb565b816145ba57506000610beb565b81600181146145d057600281146145da576145f6565b6001915050610beb565b60ff8411156145eb576145eb6143e9565b50506001821b610beb565b5060208310610133831016604e8410600b8410161715614619575081810a610beb565b614623838361455b565b8060001904821115614637576146376143e9565b029392505050565b6000610cbb60ff84168361459e565b600060018201614660576146606143e9565b5060010190565b60006020828403121561467957600080fd5b5051919050565b83815260ff83166020820152606081016146998361447c565b826040830152949350505050565b600082516146b9818460208701613c5b565b9190910192915050565b805169ffffffffffffffffffff81168114613cc957600080fd5b600080600080600060a086880312156146f557600080fd5b6146fe866146c3565b9450602086015193506040860151925060608601519150614721608087016146c3565b90509295509295909350565b60006020828403121561473f57600080fd5b8151610cbb81613cf8565b60ff8281168282160390811115610beb57610beb6143e9565b600060ff83168061477657614776614416565b8060ff84160491505092915050565b601f821115611c21576000816000526020600020601f850160051c810160208610156147ae5750805b601f850160051c820191505b81811015612c4d578281556001016147ba565b815167ffffffffffffffff8111156147e7576147e7613db2565b6147fb816147f58454614388565b84614785565b602080601f83116001811461483057600084156148185750858301515b600019600386901b1c1916600185901b178555612c4d565b600085815260208120601f198616915b8281101561485f57888601518255948401946001909101908401614840565b508582101561487d5787850151600019600388901b60f8161c191681555b5050505050600190811b0190555056fe52c63247e1f47db19d5ce0460030c497f067ca4cebf71ba98eeadabe20bace00360894a13ba1a3210667c828492db98dca3e2076cc3735a920a3ca505d382bbca2646970667358221220b64c9526277d576656ac8dedb929c086f3fc9178267ccc1e4a412dbdcb86672e64736f6c63430008180033","linkReferences":{}},"methodIdentifiers":{"UPGRADE_INTERFACE_VERSION()":"ad3cb1cc","addMargin(uint8,uint8,uint256)":"d91db8d5","admin()":"f851a440","adminPerc()":"26b91f5b","allShare(bytes32)":"67327fdc","allValue(bytes32)":"7401ecf7","allowance(address,address)":"dd62ed3e","approve(address,uint256)":"095ea7b3","balanceOf(address)":"70a08231","basePerc()":"77049fc1","baseSharePrice()":"34db3b9c","decimals()":"313ce567","enableLevg(bool)":"dfeb1c4d","ethPrices(uint256)":"2a698bed","expiration()":"4665096d","forwarder()":"f645d4f9","globalRound()":"180613bf","incenVTokenPerc()":"dcee2a26","incenWindow()":"77e0970b","initialize(address,string,string,(address,address,address,address,address,uint256,uint256,uint256,uint256,uint256,uint256,uint256,uint256,uint256,uint256,uint256,uint256,uint256,uint256,uint256,uint256,uint8,uint8))":"287fb37c","isLevgEnabled()":"fadd6b09","lastStrikeBlock()":"fbee2d8c","lastStrikeTime()":"8156538e","levgPositions(bytes32)":"178e7a6e","liquidationCall(uint8,uint8,address,uint256)":"73efbf39","liquidationVTokenPerc()":"5eb9d285","lqdtAdminFeePerc()":"3386a39a","lqdtVaultFeePerc()":"dd738ef1","maxLeverage()":"ae3302c2","name()":"06fdde03","openPositionLevg(uint8,uint8,uint256,uint256)":"679e5aa3","openPositionSpot(uint8,uint8,uint256)":"c3f67ce2","owner()":"8da5cb5b","priceFactor()":"dfb2866d","proxiableUUID()":"52d1902d","pubVault()":"276b28b5","redeemLevgBatch(uint256,uint8[],uint8[])":"6a708ecc","redeemSpotBatch(uint256,uint8[],uint8[])":"7bc95d84","renounceOwnership()":"715018a6","roundWindow()":"1031a063","spotPositions(bytes32)":"3e0e1f47","strike()":"ad8f5008","strikeSpacing()":"4ff41071","strikes(uint256,uint8)":"151b8e66","symbol()":"95d89b41","timeFactor()":"822daf60","totalSupply()":"18160ddd","transfer(address,uint256)":"a9059cbb","transferFrom(address,address,uint256)":"23b872dd","transferOwnership(address)":"f2fde38b","updateForwarder(address)":"2291237e","updateParams((address,address,address,address,address,uint256,uint256,uint256,uint256,uint256,uint256,uint256,uint256,uint256,uint256,uint256,uint256,uint256,uint256,uint256,uint256,uint8,uint8))":"c9fe85d9","upgradeToAndCall(address,bytes)":"4f1ef286","usdt()":"2f48ab7d","usdtDecimals()":"82543b32","vSlots()":"1bf751ef","winPerc()":"ba17128b","winnerPerc()":"b8447456"},"id":40}