{"abi":[{"type":"constructor","inputs":[],"stateMutability":"nonpayable"},{"type":"function","name":"UPGRADE_INTERFACE_VERSION","inputs":[],"outputs":[{"name":"","type":"string","internalType":"string"}],"stateMutability":"view"},{"type":"function","name":"addMargin","inputs":[{"name":"oType","type":"uint8","internalType":"enum IRaven.OType"},{"name":"slot","type":"uint8","internalType":"uint8"},{"name":"marginToAdd","type":"uint256","internalType":"uint256"}],"outputs":[],"stateMutability":"nonpayable"},{"type":"function","name":"admin","inputs":[],"outputs":[{"name":"","type":"address","internalType":"address"}],"stateMutability":"view"},{"type":"function","name":"adminPerc","inputs":[],"outputs":[{"name":"","type":"uint256","internalType":"uint256"}],"stateMutability":"view"},{"type":"function","name":"allShare","inputs":[{"name":"optionId","type":"bytes32","internalType":"bytes32"}],"outputs":[{"name":"share","type":"uint256","internalType":"uint256"}],"stateMutability":"view"},{"type":"function","name":"allValue","inputs":[{"name":"optionId","type":"bytes32","internalType":"bytes32"}],"outputs":[{"name":"value","type":"uint256","internalType":"uint256"}],"stateMutability":"view"},{"type":"function","name":"allowance","inputs":[{"name":"owner","type":"address","internalType":"address"},{"name":"spender","type":"address","internalType":"address"}],"outputs":[{"name":"","type":"uint256","internalType":"uint256"}],"stateMutability":"view"},{"type":"function","name":"approve","inputs":[{"name":"spender","type":"address","internalType":"address"},{"name":"value","type":"uint256","internalType":"uint256"}],"outputs":[{"name":"","type":"bool","internalType":"bool"}],"stateMutability":"nonpayable"},{"type":"function","name":"balanceOf","inputs":[{"name":"account","type":"address","internalType":"address"}],"outputs":[{"name":"","type":"uint256","internalType":"uint256"}],"stateMutability":"view"},{"type":"function","name":"basePerc","inputs":[],"outputs":[{"name":"","type":"uint256","internalType":"uint256"}],"stateMutability":"view"},{"type":"function","name":"baseSharePrice","inputs":[],"outputs":[{"name":"","type":"uint256","internalType":"uint256"}],"stateMutability":"view"},{"type":"function","name":"controlOpenPos","inputs":[{"name":"isOpenPosEnabled_","type":"bool","internalType":"bool"}],"outputs":[],"stateMutability":"nonpayable"},{"type":"function","name":"decimals","inputs":[],"outputs":[{"name":"","type":"uint8","internalType":"uint8"}],"stateMutability":"view"},{"type":"function","name":"enableLevg","inputs":[{"name":"enabled","type":"bool","internalType":"bool"}],"outputs":[],"stateMutability":"nonpayable"},{"type":"function","name":"ethPrices","inputs":[{"name":"round","type":"uint256","internalType":"uint256"}],"outputs":[{"name":"ethPrice","type":"uint256","internalType":"uint256"}],"stateMutability":"view"},{"type":"function","name":"expiration","inputs":[],"outputs":[{"name":"","type":"uint256","internalType":"uint256"}],"stateMutability":"view"},{"type":"function","name":"forwarder","inputs":[],"outputs":[{"name":"","type":"address","internalType":"address"}],"stateMutability":"view"},{"type":"function","name":"globalRound","inputs":[],"outputs":[{"name":"","type":"uint256","internalType":"uint256"}],"stateMutability":"view"},{"type":"function","name":"incenVTokenPerc","inputs":[],"outputs":[{"name":"","type":"uint256","internalType":"uint256"}],"stateMutability":"view"},{"type":"function","name":"incenWindow","inputs":[],"outputs":[{"name":"","type":"uint256","internalType":"uint256"}],"stateMutability":"view"},{"type":"function","name":"initialize","inputs":[{"name":"owner_","type":"address","internalType":"address"},{"name":"name_","type":"string","internalType":"string"},{"name":"symbol_","type":"string","internalType":"string"},{"name":"cp","type":"tuple","internalType":"struct IRaven.ConstructParams","components":[{"name":"Admin","type":"address","internalType":"address"},{"name":"Forwarder","type":"address","internalType":"address"},{"name":"Usdt","type":"address","internalType":"address"},{"name":"DataFeedAddress","type":"address","internalType":"address"},{"name":"PubVaultAddress","type":"address","internalType":"address"},{"name":"OracleMinAnswer","type":"uint256","internalType":"uint256"},{"name":"BaseSharePrice","type":"uint256","internalType":"uint256"},{"name":"RoundWindow","type":"uint256","internalType":"uint256"},{"name":"IncenWindow","type":"uint256","internalType":"uint256"},{"name":"Expiration","type":"uint256","internalType":"uint256"},{"name":"TimeFactor","type":"uint256","internalType":"uint256"},{"name":"PriceFactor","type":"uint256","internalType":"uint256"},{"name":"StrikeSpacing","type":"uint256","internalType":"uint256"},{"name":"MaxLeverage","type":"uint256","internalType":"uint256"},{"name":"BasePerc","type":"uint256","internalType":"uint256"},{"name":"WinPerc","type":"uint256","internalType":"uint256"},{"name":"WinnerPerc","type":"uint256","internalType":"uint256"},{"name":"AdminPerc","type":"uint256","internalType":"uint256"},{"name":"LqdtAdminFeePerc","type":"uint256","internalType":"uint256"},{"name":"LqdtVaultFeePerc","type":"uint256","internalType":"uint256"},{"name":"IncenVTokenPerc","type":"uint256","internalType":"uint256"},{"name":"LiquidationVTokenPerc","type":"uint256","internalType":"uint256"},{"name":"UsdtDecimals","type":"uint8","internalType":"uint8"},{"name":"VSlots","type":"uint8","internalType":"uint8"}]}],"outputs":[],"stateMutability":"nonpayable"},{"type":"function","name":"isLevgEnabled","inputs":[],"outputs":[{"name":"","type":"bool","internalType":"bool"}],"stateMutability":"view"},{"type":"function","name":"isOpenPosEnabled","inputs":[],"outputs":[{"name":"","type":"bool","internalType":"bool"}],"stateMutability":"view"},{"type":"function","name":"lastStrikeBlock","inputs":[],"outputs":[{"name":"","type":"uint256","internalType":"uint256"}],"stateMutability":"view"},{"type":"function","name":"lastStrikeTime","inputs":[],"outputs":[{"name":"","type":"uint256","internalType":"uint256"}],"stateMutability":"view"},{"type":"function","name":"levgPositions","inputs":[{"name":"positionId","type":"bytes32","internalType":"bytes32"}],"outputs":[{"name":"Share","type":"uint256","internalType":"uint256"},{"name":"Value","type":"uint256","internalType":"uint256"},{"name":"Margin","type":"uint256","internalType":"uint256"},{"name":"Leverage","type":"uint256","internalType":"uint256"},{"name":"OpenTime","type":"uint256","internalType":"uint256"}],"stateMutability":"view"},{"type":"function","name":"liquidationCall","inputs":[{"name":"oType","type":"uint8","internalType":"enum IRaven.OType"},{"name":"slot","type":"uint8","internalType":"uint8"},{"name":"user","type":"address","internalType":"address"},{"name":"callShare","type":"uint256","internalType":"uint256"}],"outputs":[],"stateMutability":"nonpayable"},{"type":"function","name":"liquidationVTokenPerc","inputs":[],"outputs":[{"name":"","type":"uint256","internalType":"uint256"}],"stateMutability":"view"},{"type":"function","name":"lqdtAdminFeePerc","inputs":[],"outputs":[{"name":"","type":"uint256","internalType":"uint256"}],"stateMutability":"view"},{"type":"function","name":"lqdtVaultFeePerc","inputs":[],"outputs":[{"name":"","type":"uint256","internalType":"uint256"}],"stateMutability":"view"},{"type":"function","name":"maxLeverage","inputs":[],"outputs":[{"name":"","type":"uint256","internalType":"uint256"}],"stateMutability":"view"},{"type":"function","name":"name","inputs":[],"outputs":[{"name":"","type":"string","internalType":"string"}],"stateMutability":"view"},{"type":"function","name":"openPositionLevg","inputs":[{"name":"oType","type":"uint8","internalType":"enum IRaven.OType"},{"name":"slot","type":"uint8","internalType":"uint8"},{"name":"shares","type":"uint256","internalType":"uint256"},{"name":"leverage","type":"uint256","internalType":"uint256"}],"outputs":[],"stateMutability":"nonpayable"},{"type":"function","name":"openPositionSpot","inputs":[{"name":"oType","type":"uint8","internalType":"enum IRaven.OType"},{"name":"slot","type":"uint8","internalType":"uint8"},{"name":"shares","type":"uint256","internalType":"uint256"}],"outputs":[],"stateMutability":"nonpayable"},{"type":"function","name":"oracleMinAnswer","inputs":[],"outputs":[{"name":"","type":"uint256","internalType":"uint256"}],"stateMutability":"view"},{"type":"function","name":"owner","inputs":[],"outputs":[{"name":"","type":"address","internalType":"address"}],"stateMutability":"view"},{"type":"function","name":"priceFactor","inputs":[],"outputs":[{"name":"","type":"uint256","internalType":"uint256"}],"stateMutability":"view"},{"type":"function","name":"proxiableUUID","inputs":[],"outputs":[{"name":"","type":"bytes32","internalType":"bytes32"}],"stateMutability":"view"},{"type":"function","name":"pubVault","inputs":[],"outputs":[{"name":"","type":"address","internalType":"contract IPubVault"}],"stateMutability":"view"},{"type":"function","name":"redeemLevgBatch","inputs":[{"name":"redeemRound","type":"uint256","internalType":"uint256"},{"name":"oTypes","type":"uint8[]","internalType":"enum IRaven.OType[]"},{"name":"slots","type":"uint8[]","internalType":"uint8[]"}],"outputs":[],"stateMutability":"nonpayable"},{"type":"function","name":"redeemSpotBatch","inputs":[{"name":"redeemRound","type":"uint256","internalType":"uint256"},{"name":"oTypes","type":"uint8[]","internalType":"enum IRaven.OType[]"},{"name":"slots","type":"uint8[]","internalType":"uint8[]"}],"outputs":[],"stateMutability":"nonpayable"},{"type":"function","name":"renounceOwnership","inputs":[],"outputs":[],"stateMutability":"nonpayable"},{"type":"function","name":"roundWindow","inputs":[],"outputs":[{"name":"","type":"uint256","internalType":"uint256"}],"stateMutability":"view"},{"type":"function","name":"spotPositions","inputs":[{"name":"positionId","type":"bytes32","internalType":"bytes32"}],"outputs":[{"name":"Share","type":"uint256","internalType":"uint256"},{"name":"Value","type":"uint256","internalType":"uint256"}],"stateMutability":"view"},{"type":"function","name":"strike","inputs":[],"outputs":[],"stateMutability":"nonpayable"},{"type":"function","name":"strikeRecovery","inputs":[{"name":"ethPriceNow","type":"uint256","internalType":"uint256"},{"name":"decimal","type":"uint8","internalType":"uint8"},{"name":"actualLastStrikeTime","type":"uint256","internalType":"uint256"},{"name":"actualLastStrikeBlock","type":"uint256","internalType":"uint256"}],"outputs":[],"stateMutability":"nonpayable"},{"type":"function","name":"strikeSpacing","inputs":[],"outputs":[{"name":"","type":"uint256","internalType":"uint256"}],"stateMutability":"view"},{"type":"function","name":"strikes","inputs":[{"name":"round","type":"uint256","internalType":"uint256"},{"name":"slot","type":"uint8","internalType":"uint8"}],"outputs":[{"name":"strike","type":"uint256","internalType":"uint256"}],"stateMutability":"view"},{"type":"function","name":"symbol","inputs":[],"outputs":[{"name":"","type":"string","internalType":"string"}],"stateMutability":"view"},{"type":"function","name":"timeFactor","inputs":[],"outputs":[{"name":"","type":"uint256","internalType":"uint256"}],"stateMutability":"view"},{"type":"function","name":"totalSupply","inputs":[],"outputs":[{"name":"","type":"uint256","internalType":"uint256"}],"stateMutability":"view"},{"type":"function","name":"transfer","inputs":[{"name":"to","type":"address","internalType":"address"},{"name":"value","type":"uint256","internalType":"uint256"}],"outputs":[{"name":"","type":"bool","internalType":"bool"}],"stateMutability":"nonpayable"},{"type":"function","name":"transferFrom","inputs":[{"name":"from","type":"address","internalType":"address"},{"name":"to","type":"address","internalType":"address"},{"name":"value","type":"uint256","internalType":"uint256"}],"outputs":[{"name":"","type":"bool","internalType":"bool"}],"stateMutability":"nonpayable"},{"type":"function","name":"transferOwnership","inputs":[{"name":"newOwner","type":"address","internalType":"address"}],"outputs":[],"stateMutability":"nonpayable"},{"type":"function","name":"updateForwarder","inputs":[{"name":"newForwarder","type":"address","internalType":"address"}],"outputs":[],"stateMutability":"nonpayable"},{"type":"function","name":"updateParams","inputs":[{"name":"cp","type":"tuple","internalType":"struct IRaven.ConstructParams","components":[{"name":"Admin","type":"address","internalType":"address"},{"name":"Forwarder","type":"address","internalType":"address"},{"name":"Usdt","type":"address","internalType":"address"},{"name":"DataFeedAddress","type":"address","internalType":"address"},{"name":"PubVaultAddress","type":"address","internalType":"address"},{"name":"OracleMinAnswer","type":"uint256","internalType":"uint256"},{"name":"BaseSharePrice","type":"uint256","internalType":"uint256"},{"name":"RoundWindow","type":"uint256","internalType":"uint256"},{"name":"IncenWindow","type":"uint256","internalType":"uint256"},{"name":"Expiration","type":"uint256","internalType":"uint256"},{"name":"TimeFactor","type":"uint256","internalType":"uint256"},{"name":"PriceFactor","type":"uint256","internalType":"uint256"},{"name":"StrikeSpacing","type":"uint256","internalType":"uint256"},{"name":"MaxLeverage","type":"uint256","internalType":"uint256"},{"name":"BasePerc","type":"uint256","internalType":"uint256"},{"name":"WinPerc","type":"uint256","internalType":"uint256"},{"name":"WinnerPerc","type":"uint256","internalType":"uint256"},{"name":"AdminPerc","type":"uint256","internalType":"uint256"},{"name":"LqdtAdminFeePerc","type":"uint256","internalType":"uint256"},{"name":"LqdtVaultFeePerc","type":"uint256","internalType":"uint256"},{"name":"IncenVTokenPerc","type":"uint256","internalType":"uint256"},{"name":"LiquidationVTokenPerc","type":"uint256","internalType":"uint256"},{"name":"UsdtDecimals","type":"uint8","internalType":"uint8"},{"name":"VSlots","type":"uint8","internalType":"uint8"}]}],"outputs":[],"stateMutability":"nonpayable"},{"type":"function","name":"upgradeToAndCall","inputs":[{"name":"newImplementation","type":"address","internalType":"address"},{"name":"data","type":"bytes","internalType":"bytes"}],"outputs":[],"stateMutability":"payable"},{"type":"function","name":"usdt","inputs":[],"outputs":[{"name":"","type":"address","internalType":"address"}],"stateMutability":"view"},{"type":"function","name":"usdtDecimals","inputs":[],"outputs":[{"name":"","type":"uint8","internalType":"uint8"}],"stateMutability":"view"},{"type":"function","name":"vSlots","inputs":[],"outputs":[{"name":"","type":"uint8","internalType":"uint8"}],"stateMutability":"view"},{"type":"function","name":"winPerc","inputs":[],"outputs":[{"name":"","type":"uint256","internalType":"uint256"}],"stateMutability":"view"},{"type":"function","name":"winnerPerc","inputs":[],"outputs":[{"name":"","type":"uint256","internalType":"uint256"}],"stateMutability":"view"},{"type":"event","name":"Approval","inputs":[{"name":"owner","type":"address","indexed":true,"internalType":"address"},{"name":"spender","type":"address","indexed":true,"internalType":"address"},{"name":"value","type":"uint256","indexed":false,"internalType":"uint256"}],"anonymous":false},{"type":"event","name":"Initialized","inputs":[{"name":"version","type":"uint64","indexed":false,"internalType":"uint64"}],"anonymous":false},{"type":"event","name":"LiquidationUpdated","inputs":[{"name":"user","type":"address","indexed":false,"internalType":"address"},{"name":"oType","type":"uint8","indexed":false,"internalType":"enum IRaven.OType"},{"name":"slot","type":"uint8","indexed":false,"internalType":"uint8"},{"name":"lvgValue","type":"uint256","indexed":false,"internalType":"uint256"},{"name":"newShare","type":"uint256","indexed":false,"internalType":"uint256"},{"name":"newMargin","type":"uint256","indexed":false,"internalType":"uint256"},{"name":"openTime","type":"uint256","indexed":false,"internalType":"uint256"},{"name":"updateBlock","type":"uint256","indexed":false,"internalType":"uint256"}],"anonymous":false},{"type":"event","name":"OwnershipTransferred","inputs":[{"name":"previousOwner","type":"address","indexed":true,"internalType":"address"},{"name":"newOwner","type":"address","indexed":true,"internalType":"address"}],"anonymous":false},{"type":"event","name":"Transfer","inputs":[{"name":"from","type":"address","indexed":true,"internalType":"address"},{"name":"to","type":"address","indexed":true,"internalType":"address"},{"name":"value","type":"uint256","indexed":false,"internalType":"uint256"}],"anonymous":false},{"type":"event","name":"Upgraded","inputs":[{"name":"implementation","type":"address","indexed":true,"internalType":"address"}],"anonymous":false},{"type":"event","name":"WithdrawVault","inputs":[{"name":"amountWithdraw","type":"uint256","indexed":false,"internalType":"uint256"},{"name":"roundWithdraw","type":"uint256","indexed":false,"internalType":"uint256"}],"anonymous":false},{"type":"error","name":"AddressEmptyCode","inputs":[{"name":"target","type":"address","internalType":"address"}]},{"type":"error","name":"ERC1967InvalidImplementation","inputs":[{"name":"implementation","type":"address","internalType":"address"}]},{"type":"error","name":"ERC1967NonPayable","inputs":[]},{"type":"error","name":"ERC20InsufficientAllowance","inputs":[{"name":"spender","type":"address","internalType":"address"},{"name":"allowance","type":"uint256","internalType":"uint256"},{"name":"needed","type":"uint256","internalType":"uint256"}]},{"type":"error","name":"ERC20InsufficientBalance","inputs":[{"name":"sender","type":"address","internalType":"address"},{"name":"balance","type":"uint256","internalType":"uint256"},{"name":"needed","type":"uint256","internalType":"uint256"}]},{"type":"error","name":"ERC20InvalidApprover","inputs":[{"name":"approver","type":"address","internalType":"address"}]},{"type":"error","name":"ERC20InvalidReceiver","inputs":[{"name":"receiver","type":"address","internalType":"address"}]},{"type":"error","name":"ERC20InvalidSender","inputs":[{"name":"sender","type":"address","internalType":"address"}]},{"type":"error","name":"ERC20InvalidSpender","inputs":[{"name":"spender","type":"address","internalType":"address"}]},{"type":"error","name":"FailedInnerCall","inputs":[]},{"type":"error","name":"InvalidInitialization","inputs":[]},{"type":"error","name":"NotInitializing","inputs":[]},{"type":"error","name":"OwnableInvalidOwner","inputs":[{"name":"owner","type":"address","internalType":"address"}]},{"type":"error","name":"OwnableUnauthorizedAccount","inputs":[{"name":"account","type":"address","internalType":"address"}]},{"type":"error","name":"UUPSUnauthorizedCallContext","inputs":[]},{"type":"error","name":"UUPSUnsupportedProxiableUUID","inputs":[{"name":"slot","type":"bytes32","internalType":"bytes32"}]}],"bytecode":{"object":"0x60a0604052306080523480156200001557600080fd5b506200002062000026565b620000da565b7ff0c57e16840df040f15088dc2f81fe391c3923bec73e23a9662efc9c229c6a00805468010000000000000000900460ff1615620000775760405163f92ee8a960e01b815260040160405180910390fd5b80546001600160401b0390811614620000d75780546001600160401b0319166001600160401b0390811782556040519081527fc7f505b2f371ae2175ee4913f4499e1f2633a7b5936321eed1cdaeb6115181d29060200160405180910390a15b50565b608051614be162000104600039600081816124260152818161244f01526125bb0152614be16000f3fe6080604052600436106103ad5760003560e01c806370a08231116101e7578063ae3302c21161010d578063dd738ef1116100a0578063f645d4f91161006f578063f645d4f914610b40578063f851a44014610b60578063fadd6b0914610b80578063fbee2d8c14610ba157600080fd5b8063dd738ef114610ad4578063dfb2866d14610aea578063dfeb1c4d14610b00578063f2fde38b14610b2057600080fd5b8063c3f67ce2116100dc578063c3f67ce214610a5e578063d91db8d514610a7e578063dcee2a2614610a9e578063dd62ed3e14610ab457600080fd5b8063ae3302c2146109fc578063b844745614610a12578063ba17128b14610a28578063beee470c14610a3e57600080fd5b80638156538e1161018557806395d89b411161015457806395d89b4114610981578063a9059cbb14610996578063ad3cb1cc146109b6578063ad8f5008146109e757600080fd5b80638156538e146108fe578063822daf601461091457806382543b321461092a5780638da5cb5b1461094457600080fd5b80637401ecf7116101c15780637401ecf71461088557806377049fc1146108b257806377e0970b146108c85780637bc95d84146108de57600080fd5b806370a0823114610830578063715018a61461085057806373efbf391461086557600080fd5b8063313ce567116102d757806350f9b1921161026a578063679e5aa311610239578063679e5aa3146107ba57806367b9ed04146107da57806368a8a743146107f05780636a708ecc1461081057600080fd5b806350f9b1921461074257806352d1902d146107625780635eb9d2851461077757806367327fdc1461078d57600080fd5b80634665096d116102a65780634665096d146106e35780634f1ef286146106f95780634ff410711461070c5780635094b4b61461072257600080fd5b8063313ce5671461065a5780633386a39a1461066e57806334db3b9c146106845780633e0e1f471461069a57600080fd5b80631bf751ef1161034f578063276b28b51161031e578063276b28b5146105ae5780632a698bed146105ed5780632f48ab7d1461061a578063301af5341461063a57600080fd5b80631bf751ef146105255780632291237e1461055657806323b872dd1461057857806326b91f5b1461059857600080fd5b8063151b8e661161038b578063151b8e6614610431578063178e7a6e14610469578063180613bf146104db57806318160ddd146104f157600080fd5b806306fdde03146103b2578063095ea7b3146103dd5780631031a0631461040d575b600080fd5b3480156103be57600080fd5b506103c7610bb7565b6040516103d49190613f2a565b60405180910390f35b3480156103e957600080fd5b506103fd6103f8366004613f79565b610c7a565b60405190151581526020016103d4565b34801561041957600080fd5b5061042360055481565b6040519081526020016103d4565b34801561043d57600080fd5b5061042361044c366004613fbd565b601d60209081526000928352604080842090915290825290205481565b34801561047557600080fd5b506104b3610484366004613fed565b601a60205260009081526040902080546001820154600283015460038401546004909401549293919290919085565b604080519586526020860194909452928401919091526060830152608082015260a0016103d4565b3480156104e757600080fd5b5061042360145481565b3480156104fd57600080fd5b507f52c63247e1f47db19d5ce0460030c497f067ca4cebf71ba98eeadabe20bace0254610423565b34801561053157600080fd5b5060175461054490610100900460ff1681565b60405160ff90911681526020016103d4565b34801561056257600080fd5b50610576610571366004614006565b610c94565b005b34801561058457600080fd5b506103fd610593366004614021565b610d3f565b3480156105a457600080fd5b50610423600f5481565b3480156105ba57600080fd5b506017546105d590600160201b90046001600160a01b031681565b6040516001600160a01b0390911681526020016103d4565b3480156105f957600080fd5b50610423610608366004613fed565b601e6020526000908152604090205481565b34801561062657600080fd5b506002546105d5906001600160a01b031681565b34801561064657600080fd5b5061057661065536600461406b565b610d65565b34801561066657600080fd5b506012610544565b34801561067a57600080fd5b5061042360105481565b34801561069057600080fd5b5061042360045481565b3480156106a657600080fd5b506106ce6106b5366004613fed565b6019602052600090815260409020805460019091015482565b604080519283526020830191909152016103d4565b3480156106ef57600080fd5b5061042360075481565b610576610707366004614151565b610dab565b34801561071857600080fd5b50610423600a5481565b34801561072e57600080fd5b5061057661073d366004614301565b610dca565b34801561074e57600080fd5b5061057661075d36600461433e565b610f35565b34801561076e57600080fd5b50610423611370565b34801561078357600080fd5b5061042360135481565b34801561079957600080fd5b506104236107a8366004613fed565b601b6020526000908152604090205481565b3480156107c657600080fd5b506105766107d53660046143d4565b61138d565b3480156107e657600080fd5b5061042360035481565b3480156107fc57600080fd5b506017546103fd9062010000900460ff1681565b34801561081c57600080fd5b5061057661082b3660046144b4565b61170f565b34801561083c57600080fd5b5061042361084b366004614006565b61184b565b34801561085c57600080fd5b50610576611873565b34801561087157600080fd5b5061057661088036600461457f565b611887565b34801561089157600080fd5b506104236108a0366004613fed565b601c6020526000908152604090205481565b3480156108be57600080fd5b50610423600c5481565b3480156108d457600080fd5b5061042360065481565b3480156108ea57600080fd5b506105766108f93660046144b4565b611c94565b34801561090a57600080fd5b5061042360155481565b34801561092057600080fd5b5061042360085481565b34801561093657600080fd5b506017546105449060ff1681565b34801561095057600080fd5b507f9016d09d72d40fdae2fd8ceac6b6234c7706214fd39c1cd1e609a0528c199300546001600160a01b03166105d5565b34801561098d57600080fd5b506103c7611dab565b3480156109a257600080fd5b506103fd6109b1366004613f79565b611dea565b3480156109c257600080fd5b506103c7604051806040016040528060058152602001640352e302e360dc1b81525081565b3480156109f357600080fd5b50610576611df8565b348015610a0857600080fd5b50610423600b5481565b348015610a1e57600080fd5b50610423600e5481565b348015610a3457600080fd5b50610423600d5481565b348015610a4a57600080fd5b50610576610a593660046145cc565b611ed6565b348015610a6a57600080fd5b50610576610a793660046145f4565b611f6b565b348015610a8a57600080fd5b50610576610a993660046145f4565b6120ec565b348015610aaa57600080fd5b5061042360125481565b348015610ac057600080fd5b50610423610acf366004614633565b612279565b348015610ae057600080fd5b5061042360115481565b348015610af657600080fd5b5061042360095481565b348015610b0c57600080fd5b50610576610b1b36600461406b565b6122c3565b348015610b2c57600080fd5b50610576610b3b366004614006565b61230b565b348015610b4c57600080fd5b506001546105d5906001600160a01b031681565b348015610b6c57600080fd5b506000546105d5906001600160a01b031681565b348015610b8c57600080fd5b506017546103fd906301000000900460ff1681565b348015610bad57600080fd5b5061042360165481565b7f52c63247e1f47db19d5ce0460030c497f067ca4cebf71ba98eeadabe20bace038054606091600080516020614b6c83398151915291610bf690614666565b80601f0160208091040260200160405190810160405280929190818152602001828054610c2290614666565b8015610c6f5780601f10610c4457610100808354040283529160200191610c6f565b820191906000526020600020905b815481529060010190602001808311610c5257829003601f168201915b505050505091505090565b600033610c88818585612349565b60019150505b92915050565b6000546001600160a01b03163314610cc75760405162461bcd60e51b8152600401610cbe9061469a565b60405180910390fd5b6001600160a01b038116610d1d5760405162461bcd60e51b815260206004820152601f60248201527f696e76616c6964206e6577466f727761726465722061646472657373283029006044820152606401610cbe565b600180546001600160a01b0319166001600160a01b0392909216919091179055565b600033610d4d858285612356565b610d588585856123bc565b60019150505b9392505050565b6000546001600160a01b03163314610d8f5760405162461bcd60e51b8152600401610cbe9061469a565b60178054911515620100000262ff000019909216919091179055565b610db361241b565b610dbc826124c0565b610dc682826124c8565b5050565b6000546001600160a01b03163314610df45760405162461bcd60e51b8152600401610cbe9061469a565b8051600080546001600160a01b03199081166001600160a01b03938416179091556020830151600180548316918416919091179055604083015160028054831691841691909117905560a083015160035560c083015160045560e083015160055561010080840151600655610120840151600755610140840151600855610160840151600955610180840151600a556101a0840151600b556101c0840151600c556101e0840151600d55610200840151600e55610220840151600f556102408401516010556102608401516011556102808401516012556102a08401516013556102c0840151601780546102e08701516060880151601880549097169088161790955560809096015160ff92831661ffff19909716969096179190931690910217640100000000600160c01b031916600160201b9390921692909202179055565b7ff0c57e16840df040f15088dc2f81fe391c3923bec73e23a9662efc9c229c6a008054600160401b810460ff16159067ffffffffffffffff16600081158015610f7b5750825b905060008267ffffffffffffffff166001148015610f985750303b155b905081158015610fa6575080155b15610fc45760405163f92ee8a960e01b815260040160405180910390fd5b845467ffffffffffffffff191660011785558315610fee57845460ff60401b1916600160401b1785555b85516001600160a01b03166110455760405162461bcd60e51b815260206004820152601860248201527f696e76616c69642041646d696e206164647265737328302900000000000000006044820152606401610cbe565b60208601516001600160a01b031661109f5760405162461bcd60e51b815260206004820152601c60248201527f696e76616c696420466f727761726465722061646472657373283029000000006044820152606401610cbe565b60408601516001600160a01b03166110f95760405162461bcd60e51b815260206004820152601760248201527f696e76616c6964205573647420616464726573732830290000000000000000006044820152606401610cbe565b60608601516001600160a01b031661115e5760405162461bcd60e51b815260206004820152602260248201527f696e76616c696420446174614665656441646472657373206164647265737328604482015261302960f01b6064820152608401610cbe565b60808601516001600160a01b03166111c35760405162461bcd60e51b815260206004820152602260248201527f696e76616c6964205075625661756c7441646472657373206164647265737328604482015261302960f01b6064820152608401610cbe565b6111cc89612585565b6111d68888612596565b6111de6125a8565b8551600080546001600160a01b03199081166001600160a01b03938416179091556020880151600180548316918416919091179055604088015160028054831691841691909117905560a088015160035560c088015160045560e088015160055561010080890151600655610120890151600755610140890151600855610160890151600955610180890151600a556101a0890151600b556101c0890151600c556101e0890151600d55610200890151600e55610220890151600f556102408901516010556102608901516011556102808901516012556102a08901516013556102c0890151601780546102e08c015160608d0151601880549097169088161790955560808c015160ff93841661ffff19909216919091179290941690920217640100000000600160c01b031916600160201b9290931691909102919091179055831561136557845460ff60401b19168555604051600181527fc7f505b2f371ae2175ee4913f4499e1f2633a7b5936321eed1cdaeb6115181d29060200160405180910390a15b505050505050505050565b600061137a6125b0565b50600080516020614b8c83398151915290565b60175462010000900460ff166113de5760405162461bcd60e51b81526020600482015260166024820152751bdc195b881c1bdcda5d1a5bdb88191a5cd8589b195960521b6044820152606401610cbe565b6017546301000000900460ff1661142a5760405162461bcd60e51b815260206004820152601060248201526f13195d99c8139bdd08195b98589b195960821b6044820152606401610cbe565b600061143960145485876125f9565b90506000611447823361262f565b90506114538484612674565b61148f5760405162461bcd60e51b815260206004820152600d60248201526c1d995c9a599e4819985a5b1959609a1b6044820152606401610cbe565b60008061149c888861275d565b909250905060006114ad83886146dd565b905060006114bb878361470a565b6114c690600161471e565b905060006114d48284614731565b6017546040516308288d8f60e21b8152919250600160201b90046001600160a01b0316906320a2363c9061150f908490600090600401614778565b602060405180830381865afa15801561152c573d6000803e3d6000fd5b505050506040513d601f19601f820116820180604052508101906115509190614795565b6115905760405162461bcd60e51b81526020600482015260116024820152703737ba1032b737bab3b41036b0b933b4b760791b6044820152606401610cbe565b6017546040516328ff4f1f60e11b815260048101839052600160201b9091046001600160a01b0316906351fe9e3e90602401600060405180830381600087803b1580156115dc57600080fd5b505af11580156115f0573d6000803e3d6000fd5b5050505060006040518060e001604052808981526020018b81526020018581526020018481526020018a8152602001336001600160a01b03168152602001861515815250905061163f81612a9d565b600254611657906001600160a01b0316333086612d82565b6000601a60008981526020019081526020016000206040518060a00160405290816000820154815260200160018201548152602001600282015481526020016003820154815260200160048201548152505090507fa66d549e27248adf5541ac239251a5f6c8117072e7ed07991b3fff58eb218b0c338e8e8460200151856000015186604001518760800151436040516116f89897969594939291906147b2565b60405180910390a150505050505050505050505050565b600083118015611720575060145483105b6117635760405162461bcd60e51b81526020600482015260146024820152731a5b9d985b1a59081c995919595b481c9bdd5b9960621b6044820152606401610cbe565b80518251146117ad5760405162461bcd60e51b81526020600482015260166024820152750c4c2e8c6d040d8cadccee8d040dcdee840dac2e8c6d60531b6044820152606401610cbe565b600033815b83518160ff16101561182657600061180487878460ff16815181106117d9576117d9614804565b6020026020010151878560ff16815181106117f6576117f6614804565b602002602001015186612e8c565b9050611810818561471e565b935050808061181e9061481a565b9150506117b2565b50811561184457600254611844906001600160a01b03168284612f5f565b5050505050565b6001600160a01b03166000908152600080516020614b6c833981519152602052604090205490565b61187b613058565b61188560006130b3565b565b600c5460135461189790836146dd565b6118a1919061470a565b6118ad6012600a61491d565b6118b63361184b565b6118c0919061470a565b101561190e5760405162461bcd60e51b815260206004820152601960248201527f6e6f7420656e6f7567682076546f6b656e2062616c616e6365000000000000006044820152606401610cbe565b600080600061191e878787613124565b925092509250826119715760405162461bcd60e51b815260206004820152601860248201527f696e76616c6964206c69717569646174696f6e2063616c6c00000000000000006044820152606401610cbe565b808411156119b65760405162461bcd60e51b8152602060048201526012602482015271696e76616c69642063616c6c20736861726560701b6044820152606401610cbe565b60006119c5601454888a6125f9565b905060006119d3828861262f565b6000818152601a602052604081208054600182015493945090926119f99188918b613274565b601754602082015160405163b866d19360e01b81526004810191909152919250600160201b90046001600160a01b03169063b866d19390602401600060405180830381600087803b158015611a4d57600080fd5b505af1158015611a61573d6000803e3d6000fd5b50505050806040015182600201541015611a7c576000611a90565b80604001518260020154611a909190614731565b60028301558154881115611aa5576000611ab2565b8154611ab2908990614731565b8255805160018301541015611ac8576000611ad9565b80516001830154611ad99190614731565b60018301556000848152601b6020526040902054881115611afb576000611b15565b6000848152601b6020526040902054611b15908990614731565b6000858152601b60209081526040808320939093558351601c909152919020541015611b42576000611b5d565b80516000858152601c6020526040902054611b5d9190614731565b6000858152601c602052604090819020919091556002546080830151606084015192840151611bae936001600160a01b0390931692339291611b9f9190614731565b611ba99190614731565b612f5f565b6002546017546080830151611bd7926001600160a01b0390811692600160201b90041690612f5f565b6002546000546060830151611bf9926001600160a01b03908116921690612f5f565b611c3233611c096012600a61491d565b600c54601354611c19908d6146dd565b611c23919061470a565b611c2d91906146dd565b613361565b7fa66d549e27248adf5541ac239251a5f6c8117072e7ed07991b3fff58eb218b0c898c8c856001015486600001548760020154886004015443604051611c7f9897969594939291906147b2565b60405180910390a15050505050505050505050565b600083118015611ca5575060145483105b611ce85760405162461bcd60e51b81526020600482015260146024820152731a5b9d985b1a59081c995919595b481c9bdd5b9960621b6044820152606401610cbe565b8051825114611d325760405162461bcd60e51b81526020600482015260166024820152750c4c2e8c6d040d8cadccee8d040dcdee840dac2e8c6d60531b6044820152606401610cbe565b600033815b83518160ff161015611826576000611d8987878460ff1681518110611d5e57611d5e614804565b6020026020010151878560ff1681518110611d7b57611d7b614804565b602002602001015186613397565b9050611d95818561471e565b9350508080611da39061481a565b915050611d37565b7f52c63247e1f47db19d5ce0460030c497f067ca4cebf71ba98eeadabe20bace048054606091600080516020614b6c83398151915291610bf690614666565b600033610c888185856123bc565b6001546001600160a01b0316331480611e1b57506000546001600160a01b031633145b611e585760405162461bcd60e51b815260206004820152600e60248201526d34b73b30b634b21031b0b63632b960911b6044820152606401610cbe565b600080611e63613455565b6014546000908152601e6020526040812083905542601555436016559193509150611e8d836135a4565b601480549192506000611e9f8361492c565b9190505550611eae8383613798565b8015611ed157600254600054611ed1916001600160a01b03908116911683612f5f565b505050565b6000546001600160a01b03163314611f005760405162461bcd60e51b8152600401610cbe9061469a565b6014546000908152601e6020526040812085905560158390556016829055611f27856135a4565b601480549192506000611f398361492c565b9190505550611f488585613798565b801561184457600254600054611844916001600160a01b03908116911683612f5f565b60175462010000900460ff16611fbc5760405162461bcd60e51b81526020600482015260166024820152751bdc195b881c1bdcda5d1a5bdb88191a5cd8589b195960521b6044820152606401610cbe565b600081116120005760405162461bcd60e51b8152602060048201526011602482015270696e76616c6964207368617265206e756d60781b6044820152606401610cbe565b6005546015546120109042614731565b111561205e5760405162461bcd60e51b815260206004820152601b60248201527f6f70656e20706f736974696f6e2077696e646f7720636c6f73656400000000006044820152606401610cbe565b600061206d60145484866125f9565b9050600061207b858561275d565b509050600061208a82856146dd565b6040805160e08101825285815260208101879052908101829052600060608201819052600160808301523360a083015260c08201529091506120cb81612a9d565b6002546120e3906001600160a01b0316333085612d82565b50505050505050565b60006120fb60145484866125f9565b90506000612109823361262f565b6000818152601a6020526040902080549192509061215b5760405162461bcd60e51b815260206004820152600f60248201526e373790363b33903837b9b4ba34b7b760891b6044820152606401610cbe565b6000612167878761275d565b91505080156121f057600754601554612180919061471e565b6121a28360040154846001015488866002015461219d919061471e565b61387d565b11156121f05760405162461bcd60e51b815260206004820152601b60248201527f4c7164742074696d65206578636565642065787069726174696f6e00000000006044820152606401610cbe565b84826002016000828254612204919061471e565b9091555050600254612221906001600160a01b0316333088612d82565b60018201548254600284015460048501546040517fa66d549e27248adf5541ac239251a5f6c8117072e7ed07991b3fff58eb218b0c946122689433948e948e9443906147b2565b60405180910390a150505050505050565b6001600160a01b0391821660009081527f52c63247e1f47db19d5ce0460030c497f067ca4cebf71ba98eeadabe20bace016020908152604080832093909416825291909152205490565b6000546001600160a01b031633146122ed5760405162461bcd60e51b8152600401610cbe9061469a565b6017805491151563010000000263ff00000019909216919091179055565b612313613058565b6001600160a01b03811661233d57604051631e4fbdf760e01b815260006004820152602401610cbe565b612346816130b3565b50565b611ed183838360016138a2565b60006123628484612279565b905060001981146123b657818110156123a757604051637dc7a0d960e11b81526001600160a01b03841660048201526024810182905260448101839052606401610cbe565b6123b6848484840360006138a2565b50505050565b6001600160a01b0383166123e657604051634b637e8f60e11b815260006004820152602401610cbe565b6001600160a01b0382166124105760405163ec442f0560e01b815260006004820152602401610cbe565b611ed1838383613989565b306001600160a01b037f00000000000000000000000000000000000000000000000000000000000000001614806124a257507f00000000000000000000000000000000000000000000000000000000000000006001600160a01b0316612496600080516020614b8c833981519152546001600160a01b031690565b6001600160a01b031614155b156118855760405163703e46dd60e11b815260040160405180910390fd5b612346613058565b816001600160a01b03166352d1902d6040518163ffffffff1660e01b8152600401602060405180830381865afa925050508015612522575060408051601f3d908101601f1916820190925261251f91810190614945565b60015b61254a57604051634c9c8ce360e01b81526001600160a01b0383166004820152602401610cbe565b600080516020614b8c833981519152811461257b57604051632a87526960e21b815260048101829052602401610cbe565b611ed18383613ac7565b61258d613b1d565b61234681613b66565b61259e613b1d565b610dc68282613b6e565b611885613b1d565b306001600160a01b037f000000000000000000000000000000000000000000000000000000000000000016146118855760405163703e46dd60e11b815260040160405180910390fd5b60008383836040516020016126109392919061495e565b6040516020818303038152906040528051906020012090509392505050565b600082826040516020016126569291909182526001600160a01b0316602082015260400190565b60405160208183030381529060405280519060200120905092915050565b60008083116126b55760405162461bcd60e51b815260206004820152600d60248201526c696e76616c696420736861726560981b6044820152606401610cbe565b6001821180156126c75750600b548211155b6127065760405162461bcd60e51b815260206004820152601060248201526f696e76616c6964206c6576657261676560801b6044820152606401610cbe565b6005546015546127169042614731565b11156127545760405162461bcd60e51b815260206004820152600d60248201526c1dda5b991bddc818db1bdcd959609a1b6044820152606401610cbe565b50600192915050565b6000806015546000036127765750506004546000612a96565b600080612781613455565b6014546000908152601d6020908152604080832060ff8b1684529091528120546008546007549496509294509290916127b99161470a565b9050600081600854601554426127cf9190614731565b6127d9919061470a565b6127e3919061471e565b905060006127f285600a61491d565b6009546127ff91906146dd565b9050600060095485612811919061470a565b9050600060095488612823919061470a565b9050600086891161283d576128388988614731565b612847565b612847878a614731565b905060008d600181111561285d5761285d614744565b036129795788871080156128715750838110155b156128d5578361288260028861491d565b61288c90856146dd565b61289691906146dd565b816128a260028861491d565b846004546128b091906146dd565b6128ba91906146dd565b6128c491906146dd565b6128ce919061470a565b9a5061296f565b88871180156128e45750838110155b1561291557806128f560028861491d565b6128ff90856146dd565b61290991906146dd565b846128a260028861491d565b61292060c88861470a565b61292b60c88b61470a565b61293660028961491d565b61294160028961491d565b60045461294e91906146dd565b612958919061470a565b612962919061471e565b61296c9190614731565b9a505b8887119950612a8c565b88871180156129885750838110155b156129ec578361299960028861491d565b6129a390846146dd565b6129ad91906146dd565b816129b960028861491d565b856004546129c791906146dd565b6129d191906146dd565b6129db91906146dd565b6129e5919061470a565b9a50612a86565b88871080156129fb5750838110155b15612a2c5780612a0c60028861491d565b612a1690846146dd565b612a2091906146dd565b846129b960028861491d565b612a3760c88a61470a565b612a4260c88961470a565b612a4d60028961491d565b612a5860028961491d565b600454612a6591906146dd565b612a6f919061470a565b612a79919061471e565b612a839190614731565b9a505b88871099505b5050505050505050505b9250929050565b8060200151601b6000836000015181526020019081526020016000206000828254612ac8919061471e565b909155505060408082015182516000908152601c602052918220805491929091612af390849061471e565b9091555050805160a0820151600091612b0b9161262f565b90508160800151600103612b75576020808301516000838152601990925260408220805491929091612b3e90849061471e565b909155505060408083015160008381526019602052918220600101805491929091612b6a90849061471e565b90915550612d149050565b6000818152601a60209081526040808320815160a08101835281548152600182015493810184905260028201548184015260038201546060820152600490910154608082015290850151909291612bcc919061471e565b9050600084606001518360400151612be4919061471e565b905060008360600151600014612c0357612bfe828461470a565b612c09565b85608001515b905060008460800151600014612c23578460800151612c25565b425b90508660c0015115612c9a57600754601554612c41919061471e565b612c4c82868661387d565b1115612c9a5760405162461bcd60e51b815260206004820152601b60248201527f4c7164742074696d65206578636565642065787069726174696f6e00000000006044820152606401610cbe565b6040518060a0016040528088602001518760000151612cb9919061471e565b81526020808201969096526040808201959095526060808201949094526080908101929092526000878152601a8652849020815181559481015160018601559283015160028501559082015160038401550151600490910155505b6000600654601554612d26919061471e565b421115612d37578260200151612d56565b600c546012548460200151612d4c91906146dd565b612d56919061470a565b9050611ed18360a00151612d68601290565b612d7390600a61491d565b612d7d90846146dd565b613bbf565b604080516001600160a01b0385811660248301528481166044830152606480830185905283518084039091018152608490920183526020820180516001600160e01b03166323b872dd60e01b1790529151600092839290881691612de69190614985565b6000604051808303816000865af19150503d8060008114612e23576040519150601f19603f3d011682016040523d82523d6000602084013e612e28565b606091505b5091509150818015612e52575080511580612e52575080806020019051810190612e529190614795565b612e845760405162461bcd60e51b815260206004820152600360248201526229aa2360e91b6044820152606401610cbe565b505050505050565b600080612e9a8685876125f9565b90506000612ea8828561262f565b6000818152601a602090815260408083208b8452601e909252822054929350918190612ed7908b908a90613bf5565b91509150806001811115612eed57612eed614744565b896001811115612eff57612eff614744565b03612f165750506000908190559250612f57915050565b6000612f238b8a856125f9565b90506000612f328c8b856125f9565b9050612f48856000015486600201548484613c34565b60009095555092955050505050505b949350505050565b604080516001600160a01b038481166024830152604480830185905283518084039091018152606490920183526020820180516001600160e01b031663a9059cbb60e01b1790529151600092839290871691612fbb9190614985565b6000604051808303816000865af19150503d8060008114612ff8576040519150601f19603f3d011682016040523d82523d6000602084013e612ffd565b606091505b50915091508180156130275750805115806130275750808060200190518101906130279190614795565b6118445760405162461bcd60e51b815260206004820152600260248201526114d560f21b6044820152606401610cbe565b3361308a7f9016d09d72d40fdae2fd8ceac6b6234c7706214fd39c1cd1e609a0528c199300546001600160a01b031690565b6001600160a01b0316146118855760405163118cdaa760e01b8152336004820152602401610cbe565b7f9016d09d72d40fdae2fd8ceac6b6234c7706214fd39c1cd1e609a0528c19930080546001600160a01b031981166001600160a01b03848116918217845560405192169182907f8be0079c531659141344cd1fd0a4f28419497f9722a3daafe3b4186f6b6457e090600090a3505050565b60008060008061314061313a601454888a6125f9565b8661262f565b6000818152601a6020908152604091829020825160a08101845281548082526001830154938201939093526002820154938101939093526003810154606084015260040154608083015291925090158061319c57506020810151155b806131a957506040810151155b806131b657506080810151155b156131cd576000806000945094509450505061326b565b60006131e682608001518360200151846040015161387d565b905080421161320257600080600095509550955050505061326b565b600061320c613455565b506014546000908152601d6020908152604080832060ff8e16845290915290205490915061323b8b8383613c64565b1561325a575050506040810151905160019550909350915061326b9050565b600080600097509750975050505050505b93509350939050565b6132a66040518060a0016040528060008152602001600081526020016000815260200160008152602001600081525090565b6000846132b384866146dd565b6132bd919061470a565b90506000856132cc85896146dd565b6132d6919061470a565b90506000818310156132e95760006132f3565b6132f38284614731565b90506000600c546010548461330891906146dd565b613312919061470a565b90506000600c546011548561332791906146dd565b613331919061470a565b6040805160a081018252968752602087019490945292850193909352606084015260808301525095945050505050565b6001600160a01b03821661338b57604051634b637e8f60e11b815260006004820152602401610cbe565b610dc682600083613989565b60008060006133ba8786601e60008b815260200190815260200160002054613bf5565b9150915060006133cb8887856125f9565b905060006133da8988856125f9565b905060006133e98a898b6125f9565b905060006133f7828961262f565b600081815260196020526040902090915061344187600181111561341d5761341d614744565b8c600181111561342f5761342f614744565b14826000015483600101548888613caf565b60009091559b9a5050505050505050505050565b6000806000601860009054906101000a90046001600160a01b03166001600160a01b031663feaf968c6040518163ffffffff1660e01b815260040160a060405180830381865afa1580156134ad573d6000803e3d6000fd5b505050506040513d601f19601f820116820180604052508101906134d191906149bb565b5050509150506000811380156134e957506003548114155b61352e5760405162461bcd60e51b815260206004820152601660248201527527b930b1b6329021b4b931bab4ba10213932b0b5b2b960511b6044820152606401610cbe565b6018546040805163313ce56760e01b8152905183926001600160a01b03169163313ce5679160048083019260209291908290030181865afa158015613577573d6000803e3d6000fd5b505050506040513d601f19601f8201168201806040525081019061359b9190614a0b565b92509250509091565b60006014546000036135b857506000919050565b6000601760049054906101000a90046001600160a01b03166001600160a01b031663568914126040518163ffffffff1660e01b8152600401602060405180830381865afa15801561360d573d6000803e3d6000fd5b505050506040513d601f19601f820116820180604052508101906136319190614945565b11156136ff576017546014546040516332d342b760e01b81526004810191909152600091600160201b90046001600160a01b0316906332d342b7906024016020604051808303816000875af115801561368e573d6000803e3d6000fd5b505050506040513d601f19601f820116820180604052508101906136b29190614945565b90507fe4b51ab478b930ac45dd473ae053cf59aeeba85e6763701d7e088ee28efc5ecc8160016014546136e59190614731565b6040805192835260208301919091520160405180910390a1505b60005b60175460ff610100909104811690821610156137925760006137276014548386613bf5565b915050600061373960145484846125f9565b600c5490915061374990806146dd565b600f54600d546000848152601c602052604090205461376891906146dd565b61377291906146dd565b61377c919061470a565b613786908561471e565b93505050600101613702565b50919050565b6017546000906002906137b590600190610100900460ff16614a28565b6137bf9190614a41565b60ff16600a546137cf91906146dd565b600a54600a5484600a6137e2919061491d565b6137ec908761470a565b6137f6919061470a565b61380091906146dd565b61380a9190614731565b905060005b60175460ff610100909104811690821610156123b65761383083600a61491d565b8160ff16600a5461384191906146dd565b61384b908461471e565b61385591906146dd565b6014546000908152601d6020908152604080832060ff8616845290915290205560010161380f565b6000828260075461388e91906146dd565b613898919061470a565b612f57908561471e565b600080516020614b6c8339815191526001600160a01b0385166138db5760405163e602df0560e01b815260006004820152602401610cbe565b6001600160a01b03841661390557604051634a1406b160e11b815260006004820152602401610cbe565b6001600160a01b0380861660009081526001830160209081526040808320938816835292905220839055811561184457836001600160a01b0316856001600160a01b03167f8c5be1e5ebec7d5bd14f71427d1e84f3dd0314c0f7b2291e5b200ac8c7c3b9258560405161397a91815260200190565b60405180910390a35050505050565b600080516020614b6c8339815191526001600160a01b0384166139c557818160020160008282546139ba919061471e565b90915550613a379050565b6001600160a01b03841660009081526020829052604090205482811015613a185760405163391434e360e21b81526001600160a01b03861660048201526024810182905260448101849052606401610cbe565b6001600160a01b03851660009081526020839052604090209083900390555b6001600160a01b038316613a55576002810180548390039055613a74565b6001600160a01b03831660009081526020829052604090208054830190555b826001600160a01b0316846001600160a01b03167fddf252ad1be2c89b69c2b068fc378daa952ba7f163c4a11628f55a4df523b3ef84604051613ab991815260200190565b60405180910390a350505050565b613ad082613d0e565b6040516001600160a01b038316907fbc7cd75a20ee27fd9adebab32041f755214dbc6bffa90cc0225b39da2e5c2d3b90600090a2805115613b1557611ed18282613d73565b610dc6613de0565b7ff0c57e16840df040f15088dc2f81fe391c3923bec73e23a9662efc9c229c6a0054600160401b900460ff1661188557604051631afcd79f60e31b815260040160405180910390fd5b612313613b1d565b613b76613b1d565b600080516020614b6c8339815191527f52c63247e1f47db19d5ce0460030c497f067ca4cebf71ba98eeadabe20bace03613bb08482614aab565b50600481016123b68382614aab565b6001600160a01b038216613be95760405163ec442f0560e01b815260006004820152602401610cbe565b610dc660008383613989565b6000838152601d6020908152604080832060ff8616845290915281205481908311613c235760016000613c28565b600060015b90969095509350505050565b600084600003613c4657506000612f57565b613c51858484613dff565b613c5b908561471e565b95945050505050565b600080846001811115613c7957613c79614744565b148015613c865750818311155b80612f5757506001846001811115613ca057613ca0614744565b148015612f5757505010919050565b600084600003613cc157506000613c5b565b85613cef57600c54600d54613cd69082614731565b613ce090866146dd565b613cea919061470a565b613d04565b613cfa858484613dff565b613d04908561471e565b9695505050505050565b806001600160a01b03163b600003613d4457604051634c9c8ce360e01b81526001600160a01b0382166004820152602401610cbe565b600080516020614b8c83398151915280546001600160a01b0319166001600160a01b0392909216919091179055565b6060600080846001600160a01b031684604051613d909190614985565b600060405180830381855af49150503d8060008114613dcb576040519150601f19603f3d011682016040523d82523d6000602084013e613dd0565b606091505b5091509150613c5b858383613e81565b34156118855760405163b398979f60e01b815260040160405180910390fd5b6000828152601b60205260408120548103613e1c57506000610d5e565b6000838152601b6020526040902054600c54613e3890806146dd565b613e4291906146dd565b600e54600d546000858152601c6020526040902054879291613e63916146dd565b613e6d91906146dd565b613e7791906146dd565b612f57919061470a565b606082613e9657613e9182613edd565b610d5e565b8151158015613ead57506001600160a01b0384163b155b15613ed657604051639996b31560e01b81526001600160a01b0385166004820152602401610cbe565b5080610d5e565b805115613eed5780518082602001fd5b604051630a12f52160e11b815260040160405180910390fd5b60005b83811015613f21578181015183820152602001613f09565b50506000910152565b6020815260008251806020840152613f49816040850160208701613f06565b601f01601f19169190910160400192915050565b80356001600160a01b0381168114613f7457600080fd5b919050565b60008060408385031215613f8c57600080fd5b613f9583613f5d565b946020939093013593505050565b60ff8116811461234657600080fd5b8035613f7481613fa3565b60008060408385031215613fd057600080fd5b823591506020830135613fe281613fa3565b809150509250929050565b600060208284031215613fff57600080fd5b5035919050565b60006020828403121561401857600080fd5b610d5e82613f5d565b60008060006060848603121561403657600080fd5b61403f84613f5d565b925061404d60208501613f5d565b9150604084013590509250925092565b801515811461234657600080fd5b60006020828403121561407d57600080fd5b8135610d5e8161405d565b634e487b7160e01b600052604160045260246000fd5b604051610300810167ffffffffffffffff811182821017156140c2576140c2614088565b60405290565b604051601f8201601f1916810167ffffffffffffffff811182821017156140f1576140f1614088565b604052919050565b600067ffffffffffffffff83111561411357614113614088565b614126601f8401601f19166020016140c8565b905082815283838301111561413a57600080fd5b828260208301376000602084830101529392505050565b6000806040838503121561416457600080fd5b61416d83613f5d565b9150602083013567ffffffffffffffff81111561418957600080fd5b8301601f8101851361419a57600080fd5b6141a9858235602084016140f9565b9150509250929050565b600061030082840312156141c657600080fd5b6141ce61409e565b90506141d982613f5d565b81526141e760208301613f5d565b60208201526141f860408301613f5d565b604082015261420960608301613f5d565b606082015261421a60808301613f5d565b608082015260a0828101359082015260c0808301359082015260e08083013590820152610100808301359082015261012080830135908201526101408083013590820152610160808301359082015261018080830135908201526101a080830135908201526101c080830135908201526101e08083013590820152610200808301359082015261022080830135908201526102408083013590820152610260808301359082015261028080830135908201526102a080830135908201526102c06142e5818401613fb2565b908201526102e06142f7838201613fb2565b9082015292915050565b6000610300828403121561431457600080fd5b610d5e83836141b3565b600082601f83011261432f57600080fd5b610d5e838335602085016140f9565b600080600080610360858703121561435557600080fd5b61435e85613f5d565b9350602085013567ffffffffffffffff8082111561437b57600080fd5b6143878883890161431e565b9450604087013591508082111561439d57600080fd5b506143aa8782880161431e565b9250506143ba86606087016141b3565b905092959194509250565b803560028110613f7457600080fd5b600080600080608085870312156143ea57600080fd5b6143f3856143c5565b9350602085013561440381613fa3565b93969395505050506040820135916060013590565b600067ffffffffffffffff82111561443257614432614088565b5060051b60200190565b600082601f83011261444d57600080fd5b8135602061446261445d83614418565b6140c8565b8083825260208201915060208460051b87010193508684111561448457600080fd5b602086015b848110156144a957803561449c81613fa3565b8352918301918301614489565b509695505050505050565b6000806000606084860312156144c957600080fd5b8335925060208085013567ffffffffffffffff808211156144e957600080fd5b818701915087601f8301126144fd57600080fd5b813561450b61445d82614418565b81815260059190911b8301840190848101908a83111561452a57600080fd5b938501935b8285101561454f57614540856143c5565b8252938501939085019061452f565b96505050604087013592508083111561456757600080fd5b50506145758682870161443c565b9150509250925092565b6000806000806080858703121561459557600080fd5b61459e856143c5565b935060208501356145ae81613fa3565b92506145bc60408601613f5d565b9396929550929360600135925050565b600080600080608085870312156145e257600080fd5b84359350602085013561440381613fa3565b60008060006060848603121561460957600080fd5b614612846143c5565b9250602084013561462281613fa3565b929592945050506040919091013590565b6000806040838503121561464657600080fd5b61464f83613f5d565b915061465d60208401613f5d565b90509250929050565b600181811c9082168061467a57607f821691505b60208210810361379257634e487b7160e01b600052602260045260246000fd5b60208082526013908201527231b0b63632b91034b9903737ba1030b236b4b760691b604082015260600190565b634e487b7160e01b600052601160045260246000fd5b8082028115828204841417610c8e57610c8e6146c7565b634e487b7160e01b600052601260045260246000fd5b600082614719576147196146f4565b500490565b80820180821115610c8e57610c8e6146c7565b81810381811115610c8e57610c8e6146c7565b634e487b7160e01b600052602160045260246000fd5b6002811061234657634e487b7160e01b600052602160045260246000fd5b828152604081016147888361475a565b8260208301529392505050565b6000602082840312156147a757600080fd5b8151610d5e8161405d565b6001600160a01b038916815261010081016147cc8961475a565b602082019890985260ff9690961660408701526060860194909452608085019290925260a084015260c083015260e090910152919050565b634e487b7160e01b600052603260045260246000fd5b600060ff821660ff8103614830576148306146c7565b60010192915050565b600181815b8085111561487457816000190482111561485a5761485a6146c7565b8085161561486757918102915b93841c939080029061483e565b509250929050565b60008261488b57506001610c8e565b8161489857506000610c8e565b81600181146148ae57600281146148b8576148d4565b6001915050610c8e565b60ff8411156148c9576148c96146c7565b50506001821b610c8e565b5060208310610133831016604e8410600b84101617156148f7575081810a610c8e565b6149018383614839565b8060001904821115614915576149156146c7565b029392505050565b6000610d5e60ff84168361487c565b60006001820161493e5761493e6146c7565b5060010190565b60006020828403121561495757600080fd5b5051919050565b83815260ff83166020820152606081016149778361475a565b826040830152949350505050565b60008251614997818460208701613f06565b9190910192915050565b805169ffffffffffffffffffff81168114613f7457600080fd5b600080600080600060a086880312156149d357600080fd5b6149dc866149a1565b94506020860151935060408601519250606086015191506149ff608087016149a1565b90509295509295909350565b600060208284031215614a1d57600080fd5b8151610d5e81613fa3565b60ff8281168282160390811115610c8e57610c8e6146c7565b600060ff831680614a5457614a546146f4565b8060ff84160491505092915050565b601f821115611ed1576000816000526020600020601f850160051c81016020861015614a8c5750805b601f850160051c820191505b81811015612e8457828155600101614a98565b815167ffffffffffffffff811115614ac557614ac5614088565b614ad981614ad38454614666565b84614a63565b602080601f831160018114614b0e5760008415614af65750858301515b600019600386901b1c1916600185901b178555612e84565b600085815260208120601f198616915b82811015614b3d57888601518255948401946001909101908401614b1e565b5085821015614b5b5787850151600019600388901b60f8161c191681555b5050505050600190811b0190555056fe52c63247e1f47db19d5ce0460030c497f067ca4cebf71ba98eeadabe20bace00360894a13ba1a3210667c828492db98dca3e2076cc3735a920a3ca505d382bbca26469706673582212204c7b1777245c0ce3856fa8e6b8c0b83e9d5145387466b3a9fd711bd1fcccbdd564736f6c63430008180033","linkReferences":{}},"methodIdentifiers":{"UPGRADE_INTERFACE_VERSION()":"ad3cb1cc","addMargin(uint8,uint8,uint256)":"d91db8d5","admin()":"f851a440","adminPerc()":"26b91f5b","allShare(bytes32)":"67327fdc","allValue(bytes32)":"7401ecf7","allowance(address,address)":"dd62ed3e","approve(address,uint256)":"095ea7b3","balanceOf(address)":"70a08231","basePerc()":"77049fc1","baseSharePrice()":"34db3b9c","controlOpenPos(bool)":"301af534","decimals()":"313ce567","enableLevg(bool)":"dfeb1c4d","ethPrices(uint256)":"2a698bed","expiration()":"4665096d","forwarder()":"f645d4f9","globalRound()":"180613bf","incenVTokenPerc()":"dcee2a26","incenWindow()":"77e0970b","initialize(address,string,string,(address,address,address,address,address,uint256,uint256,uint256,uint256,uint256,uint256,uint256,uint256,uint256,uint256,uint256,uint256,uint256,uint256,uint256,uint256,uint256,uint8,uint8))":"50f9b192","isLevgEnabled()":"fadd6b09","isOpenPosEnabled()":"68a8a743","lastStrikeBlock()":"fbee2d8c","lastStrikeTime()":"8156538e","levgPositions(bytes32)":"178e7a6e","liquidationCall(uint8,uint8,address,uint256)":"73efbf39","liquidationVTokenPerc()":"5eb9d285","lqdtAdminFeePerc()":"3386a39a","lqdtVaultFeePerc()":"dd738ef1","maxLeverage()":"ae3302c2","name()":"06fdde03","openPositionLevg(uint8,uint8,uint256,uint256)":"679e5aa3","openPositionSpot(uint8,uint8,uint256)":"c3f67ce2","oracleMinAnswer()":"67b9ed04","owner()":"8da5cb5b","priceFactor()":"dfb2866d","proxiableUUID()":"52d1902d","pubVault()":"276b28b5","redeemLevgBatch(uint256,uint8[],uint8[])":"6a708ecc","redeemSpotBatch(uint256,uint8[],uint8[])":"7bc95d84","renounceOwnership()":"715018a6","roundWindow()":"1031a063","spotPositions(bytes32)":"3e0e1f47","strike()":"ad8f5008","strikeRecovery(uint256,uint8,uint256,uint256)":"beee470c","strikeSpacing()":"4ff41071","strikes(uint256,uint8)":"151b8e66","symbol()":"95d89b41","timeFactor()":"822daf60","totalSupply()":"18160ddd","transfer(address,uint256)":"a9059cbb","transferFrom(address,address,uint256)":"23b872dd","transferOwnership(address)":"f2fde38b","updateForwarder(address)":"2291237e","updateParams((address,address,address,address,address,uint256,uint256,uint256,uint256,uint256,uint256,uint256,uint256,uint256,uint256,uint256,uint256,uint256,uint256,uint256,uint256,uint256,uint8,uint8))":"5094b4b6","upgradeToAndCall(address,bytes)":"4f1ef286","usdt()":"2f48ab7d","usdtDecimals()":"82543b32","vSlots()":"1bf751ef","winPerc()":"ba17128b","winnerPerc()":"b8447456"},"id":40}