{"abi":[{"type":"constructor","inputs":[{"name":"uniswapV3Pool_","type":"address","internalType":"address"},{"name":"twapInterval_","type":"uint32","internalType":"uint32"},{"name":"owner_","type":"address","internalType":"address"}],"stateMutability":"nonpayable"},{"type":"function","name":"getPrice","inputs":[],"outputs":[{"name":"","type":"uint256","internalType":"uint256"}],"stateMutability":"view"},{"type":"function","name":"getPrice","inputs":[{"name":"tickCumulatives0","type":"int56","internalType":"int56"},{"name":"tickCumulatives1","type":"int56","internalType":"int56"}],"outputs":[{"name":"","type":"uint256","internalType":"uint256"}],"stateMutability":"view"},{"type":"function","name":"getPriceX96FromSqrtPriceX96","inputs":[{"name":"sqrtPriceX96","type":"uint160","internalType":"uint160"}],"outputs":[{"name":"priceX96","type":"uint256","internalType":"uint256"}],"stateMutability":"pure"},{"type":"function","name":"getSqrtTwapX96","inputs":[],"outputs":[{"name":"sqrtPriceX96","type":"uint160","internalType":"uint160"}],"stateMutability":"view"},{"type":"function","name":"owner","inputs":[],"outputs":[{"name":"","type":"address","internalType":"address"}],"stateMutability":"view"},{"type":"function","name":"renounceOwnership","inputs":[],"outputs":[],"stateMutability":"nonpayable"},{"type":"function","name":"transferOwnership","inputs":[{"name":"newOwner","type":"address","internalType":"address"}],"outputs":[],"stateMutability":"nonpayable"},{"type":"function","name":"twapInterval","inputs":[],"outputs":[{"name":"","type":"uint32","internalType":"uint32"}],"stateMutability":"view"},{"type":"function","name":"uniswapV3Pool","inputs":[],"outputs":[{"name":"","type":"address","internalType":"address"}],"stateMutability":"view"},{"type":"function","name":"updateTwapInterval","inputs":[{"name":"newTwapInterval","type":"uint32","internalType":"uint32"}],"outputs":[],"stateMutability":"nonpayable"},{"type":"event","name":"OwnershipTransferred","inputs":[{"name":"previousOwner","type":"address","indexed":true,"internalType":"address"},{"name":"newOwner","type":"address","indexed":true,"internalType":"address"}],"anonymous":false},{"type":"error","name":"OwnableInvalidOwner","inputs":[{"name":"owner","type":"address","internalType":"address"}]},{"type":"error","name":"OwnableUnauthorizedAccount","inputs":[{"name":"account","type":"address","internalType":"address"}]},{"type":"error","name":"T","inputs":[]}],"bytecode":{"object":"0x608060405234801561001057600080fd5b50604051610e64380380610e6483398101604081905261002f916101b7565b806001600160a01b03811661005f57604051631e4fbdf760e01b8152600060048201526024015b60405180910390fd5b6100688161014b565b506001600160a01b0383166100bf5760405162461bcd60e51b815260206004820152601560248201527f756e69737761705633506f6f6c206973207a65726f00000000000000000000006044820152606401610056565b8163ffffffff166000036101155760405162461bcd60e51b815260206004820152601460248201527f74776170496e74657276616c206973207a65726f0000000000000000000000006044820152606401610056565b506001805463ffffffff909216600160a01b026001600160c01b03199092166001600160a01b0390931692909217179055610205565b600080546001600160a01b038381166001600160a01b0319831681178455604051919092169283917f8be0079c531659141344cd1fd0a4f28419497f9722a3daafe3b4186f6b6457e09190a35050565b80516001600160a01b03811681146101b257600080fd5b919050565b6000806000606084860312156101cc57600080fd5b6101d58461019b565b9250602084015163ffffffff811681146101ee57600080fd5b91506101fc6040850161019b565b90509250925092565b610c50806102146000396000f3fe608060405234801561001057600080fd5b506004361061009e5760003560e01c8063a500775e11610066578063a500775e1461012c578063b2a256831461013f578063f2fde38b14610152578063f55ebd2a14610165578063fbc04fd41461017857600080fd5b80633c1d5df0146100a35780634e09a610146100d4578063715018a6146100f55780638da5cb5b146100ff57806398d5fdca14610124575b600080fd5b6001546100ba90600160a01b900463ffffffff1681565b60405163ffffffff90911681526020015b60405180910390f35b6100e76100e23660046108cb565b610180565b6040519081526020016100cb565b6100fd610191565b005b6000546001600160a01b03165b6040516001600160a01b0390911681526020016100cb565b6100e76101a5565b6100fd61013a3660046108e8565b6101ed565b6100e761014d36600461091d565b61021b565b6100fd6101603660046108cb565b61028c565b60015461010c906001600160a01b031681565b61010c6102cf565b600061018b826102de565b92915050565b6101996102f8565b6101a36000610325565b565b6000806101b0610375565b905060006101bd826102de565b905060006101d882670de0b6b3a7640000600160601b6104e0565b90506101e581606461096c565b935050505090565b6101f56102f8565b6001805463ffffffff909216600160a01b0263ffffffff60a01b19909216919091179055565b600154600090819061024d90600160a01b900463ffffffff1661023e8686610983565b61024891906109c6565b610593565b9050600061025a826102de565b9050600061027582670de0b6b3a7640000600160601b6104e0565b905061028281606461096c565b9695505050505050565b6102946102f8565b6001600160a01b0381166102c357604051631e4fbdf760e01b8152600060048201526024015b60405180910390fd5b6102cc81610325565b50565b60006102d9610375565b905090565b600061018b6001600160a01b03831680600160601b6104e0565b6000546001600160a01b031633146101a35760405163118cdaa760e01b81523360048201526024016102ba565b600080546001600160a01b038381166001600160a01b0319831681178455604051919092169283917f8be0079c531659141344cd1fd0a4f28419497f9722a3daafe3b4186f6b6457e09190a35050565b60408051600280825260608201835260009283929190602083019080368337019050509050600160149054906101000a900463ffffffff16816000815181106103c0576103c0610a28565b602002602001019063ffffffff16908163ffffffff16815250506000816001815181106103ef576103ef610a28565b63ffffffff9092166020928302919091019091015260015460405163883bdbfd60e01b81526000916001600160a01b03169063883bdbfd90610435908590600401610a3e565b600060405180830381865afa158015610452573d6000803e3d6000fd5b505050506040513d6000823e601f3d908101601f1916820160405261047a9190810190610b55565b5090506104d9600160149054906101000a900463ffffffff1663ffffffff16826000815181106104ac576104ac610a28565b6020026020010151836001815181106104c7576104c7610a28565b602002602001015161023e9190610983565b9250505090565b6000808060001985870985870292508281108382030391505080600003610519576000841161050e57600080fd5b50829004905061058c565b80841161052557600080fd5b6000848688096000868103871696879004966002600389028118808a02820302808a02820302808a02820302808a02820302808a02820302808a02909103029181900381900460010186841190950394909402919094039290920491909117919091029150505b9392505050565b60008060008360020b126105aa578260020b6105b2565b8260020b6000035b9050620d89e88111156105d8576040516315e4079d60e11b815260040160405180910390fd5b6000816001166000036105ef57600160801b610601565b6ffffcb933bd6fad37aa2d162d1a5940015b70ffffffffffffffffffffffffffffffffff1690506002821615610635576ffff97272373d413259a46990580e213a0260801c5b6004821615610654576ffff2e50f5f656932ef12357cf3c7fdcc0260801c5b6008821615610673576fffe5caca7e10e4e61c3624eaa0941cd00260801c5b6010821615610692576fffcb9843d60f6159c9db58835c9266440260801c5b60208216156106b1576fff973b41fa98c081472e6896dfb254c00260801c5b60408216156106d0576fff2ea16466c96a3843ec78b326b528610260801c5b60808216156106ef576ffe5dee046a99a2a811c461f1969c30530260801c5b61010082161561070f576ffcbe86c7900a88aedcffc83b479aa3a40260801c5b61020082161561072f576ff987a7253ac413176f2b074cf7815e540260801c5b61040082161561074f576ff3392b0822b70005940c7a398e4b70f30260801c5b61080082161561076f576fe7159475a2c29b7443b29c7fa6e889d90260801c5b61100082161561078f576fd097f3bdfd2022b8845ad8f792aa58250260801c5b6120008216156107af576fa9f746462d870fdf8a65dc1f90e061e50260801c5b6140008216156107cf576f70d869a156d2a1b890bb3df62baf32f70260801c5b6180008216156107ef576f31be135f97d08fd981231505542fcfa60260801c5b62010000821615610810576f09aa508b5b7a84e1c677de54f3e99bc90260801c5b62020000821615610830576e5d6af8dedb81196699c329225ee6040260801c5b6204000082161561084f576d2216e584f5fa1ea926041bedfe980260801c5b6208000082161561086c576b048a170391f7dc42444e8fa20260801c5b60008460020b131561088d578060001981610889576108896109b0565b0490505b6401000000008106156108a15760016108a4565b60005b60ff16602082901c0192505050919050565b6001600160a01b03811681146102cc57600080fd5b6000602082840312156108dd57600080fd5b813561058c816108b6565b6000602082840312156108fa57600080fd5b813563ffffffff8116811461058c57600080fd5b8060060b81146102cc57600080fd5b6000806040838503121561093057600080fd5b823561093b8161090e565b9150602083013561094b8161090e565b809150509250929050565b634e487b7160e01b600052601160045260246000fd5b808202811582820484141761018b5761018b610956565b600682810b9082900b03667fffffffffffff198112667fffffffffffff8213171561018b5761018b610956565b634e487b7160e01b600052601260045260246000fd5b60008160060b8360060b806109eb57634e487b7160e01b600052601260045260246000fd5b667fffffffffffff19821460001982141615610a0957610a09610956565b90059392505050565b634e487b7160e01b600052604160045260246000fd5b634e487b7160e01b600052603260045260246000fd5b6020808252825182820181905260009190848201906040850190845b81811015610a7c57835163ffffffff1683529284019291840191600101610a5a565b50909695505050505050565b604051601f8201601f1916810167ffffffffffffffff81118282101715610ab157610ab1610a12565b604052919050565b600067ffffffffffffffff821115610ad357610ad3610a12565b5060051b60200190565b600082601f830112610aee57600080fd5b81516020610b03610afe83610ab9565b610a88565b8083825260208201915060208460051b870101935086841115610b2557600080fd5b602086015b84811015610b4a578051610b3d816108b6565b8352918301918301610b2a565b509695505050505050565b60008060408385031215610b6857600080fd5b825167ffffffffffffffff80821115610b8057600080fd5b818501915085601f830112610b9457600080fd5b81516020610ba4610afe83610ab9565b82815260059290921b84018101918181019089841115610bc357600080fd5b948201945b83861015610bea578551610bdb8161090e565b82529482019490820190610bc8565b91880151919650909350505080821115610c0357600080fd5b50610c1085828601610add565b915050925092905056fea2646970667358221220fb1cbd78b2bf10294e76e14644b22e5ac4b26e1e274e728c6c8272ffbfec890064736f6c63430008180033","linkReferences":{}},"methodIdentifiers":{"getPrice()":"98d5fdca","getPrice(int56,int56)":"b2a25683","getPriceX96FromSqrtPriceX96(uint160)":"4e09a610","getSqrtTwapX96()":"fbc04fd4","owner()":"8da5cb5b","renounceOwnership()":"715018a6","transferOwnership(address)":"f2fde38b","twapInterval()":"3c1d5df0","uniswapV3Pool()":"f55ebd2a","updateTwapInterval(uint32)":"a500775e"},"id":86}