{"abi":[{"type":"function","name":"UPGRADE_INTERFACE_VERSION","inputs":[],"outputs":[{"name":"","type":"string","internalType":"string"}],"stateMutability":"view"},{"type":"function","name":"allowance","inputs":[{"name":"owner","type":"address","internalType":"address"},{"name":"spender","type":"address","internalType":"address"}],"outputs":[{"name":"","type":"uint256","internalType":"uint256"}],"stateMutability":"view"},{"type":"function","name":"approve","inputs":[{"name":"spender","type":"address","internalType":"address"},{"name":"value","type":"uint256","internalType":"uint256"}],"outputs":[{"name":"","type":"bool","internalType":"bool"}],"stateMutability":"nonpayable"},{"type":"function","name":"balanceOf","inputs":[{"name":"account","type":"address","internalType":"address"}],"outputs":[{"name":"","type":"uint256","internalType":"uint256"}],"stateMutability":"view"},{"type":"function","name":"basePerc","inputs":[],"outputs":[{"name":"","type":"uint256","internalType":"uint256"}],"stateMutability":"view"},{"type":"function","name":"convertToAssets","inputs":[{"name":"shares","type":"uint256","internalType":"uint256"}],"outputs":[{"name":"","type":"uint256","internalType":"uint256"}],"stateMutability":"view"},{"type":"function","name":"convertToShares","inputs":[{"name":"assets","type":"uint256","internalType":"uint256"}],"outputs":[{"name":"","type":"uint256","internalType":"uint256"}],"stateMutability":"view"},{"type":"function","name":"decimals","inputs":[],"outputs":[{"name":"","type":"uint8","internalType":"uint8"}],"stateMutability":"view"},{"type":"function","name":"deposit","inputs":[{"name":"assets","type":"uint256","internalType":"uint256"}],"outputs":[{"name":"shares","type":"uint256","internalType":"uint256"}],"stateMutability":"nonpayable"},{"type":"function","name":"holdLocked","inputs":[{"name":"borrow","type":"uint256","internalType":"uint256"}],"outputs":[],"stateMutability":"nonpayable"},{"type":"function","name":"initialize","inputs":[{"name":"owner_","type":"address","internalType":"address"},{"name":"raven_","type":"address","internalType":"address"},{"name":"usdt_","type":"address","internalType":"address"},{"name":"minDeposit_","type":"uint256","internalType":"uint256"},{"name":"maxDeposit_","type":"uint256","internalType":"uint256"},{"name":"safeLine_","type":"uint256","internalType":"uint256"}],"outputs":[],"stateMutability":"nonpayable"},{"type":"function","name":"maxDeposit","inputs":[],"outputs":[{"name":"","type":"uint256","internalType":"uint256"}],"stateMutability":"view"},{"type":"function","name":"maxRedeem","inputs":[{"name":"owner","type":"address","internalType":"address"}],"outputs":[{"name":"","type":"uint256","internalType":"uint256"}],"stateMutability":"view"},{"type":"function","name":"maxWithdraw","inputs":[{"name":"owner","type":"address","internalType":"address"}],"outputs":[{"name":"","type":"uint256","internalType":"uint256"}],"stateMutability":"view"},{"type":"function","name":"minDeposit","inputs":[],"outputs":[{"name":"","type":"uint256","internalType":"uint256"}],"stateMutability":"view"},{"type":"function","name":"name","inputs":[],"outputs":[{"name":"","type":"string","internalType":"string"}],"stateMutability":"view"},{"type":"function","name":"owner","inputs":[],"outputs":[{"name":"","type":"address","internalType":"address"}],"stateMutability":"view"},{"type":"function","name":"post_init","inputs":[{"name":"raven_","type":"address","internalType":"address"}],"outputs":[],"stateMutability":"nonpayable"},{"type":"function","name":"previewDeposit","inputs":[{"name":"assets","type":"uint256","internalType":"uint256"}],"outputs":[{"name":"","type":"uint256","internalType":"uint256"}],"stateMutability":"view"},{"type":"function","name":"previewRedeem","inputs":[{"name":"shares","type":"uint256","internalType":"uint256"}],"outputs":[{"name":"","type":"uint256","internalType":"uint256"}],"stateMutability":"view"},{"type":"function","name":"previewWithdraw","inputs":[{"name":"assets","type":"uint256","internalType":"uint256"}],"outputs":[{"name":"","type":"uint256","internalType":"uint256"}],"stateMutability":"view"},{"type":"function","name":"proxiableUUID","inputs":[],"outputs":[{"name":"","type":"bytes32","internalType":"bytes32"}],"stateMutability":"view"},{"type":"function","name":"raven","inputs":[],"outputs":[{"name":"","type":"address","internalType":"address"}],"stateMutability":"view"},{"type":"function","name":"redeem","inputs":[{"name":"shares","type":"uint256","internalType":"uint256"}],"outputs":[{"name":"assets","type":"uint256","internalType":"uint256"}],"stateMutability":"nonpayable"},{"type":"function","name":"releaseLocked","inputs":[{"name":"release","type":"uint256","internalType":"uint256"}],"outputs":[],"stateMutability":"nonpayable"},{"type":"function","name":"renounceOwnership","inputs":[],"outputs":[],"stateMutability":"nonpayable"},{"type":"function","name":"safeCheck","inputs":[{"name":"assets","type":"uint256","internalType":"uint256"},{"name":"op","type":"uint8","internalType":"enum IPubVault.OP"}],"outputs":[{"name":"","type":"bool","internalType":"bool"}],"stateMutability":"view"},{"type":"function","name":"safeLine","inputs":[],"outputs":[{"name":"","type":"uint256","internalType":"uint256"}],"stateMutability":"view"},{"type":"function","name":"symbol","inputs":[],"outputs":[{"name":"","type":"string","internalType":"string"}],"stateMutability":"view"},{"type":"function","name":"totalAssets","inputs":[],"outputs":[{"name":"","type":"uint256","internalType":"uint256"}],"stateMutability":"view"},{"type":"function","name":"totalDeposits","inputs":[],"outputs":[{"name":"","type":"uint256","internalType":"uint256"}],"stateMutability":"view"},{"type":"function","name":"totalLocked","inputs":[],"outputs":[{"name":"","type":"uint256","internalType":"uint256"}],"stateMutability":"view"},{"type":"function","name":"totalLockedAsset","inputs":[],"outputs":[{"name":"","type":"uint256","internalType":"uint256"}],"stateMutability":"view"},{"type":"function","name":"totalMargin","inputs":[],"outputs":[{"name":"","type":"uint256","internalType":"uint256"}],"stateMutability":"view"},{"type":"function","name":"totalSupply","inputs":[],"outputs":[{"name":"","type":"uint256","internalType":"uint256"}],"stateMutability":"view"},{"type":"function","name":"totalWithdraws","inputs":[],"outputs":[{"name":"","type":"uint256","internalType":"uint256"}],"stateMutability":"view"},{"type":"function","name":"transfer","inputs":[{"name":"to","type":"address","internalType":"address"},{"name":"value","type":"uint256","internalType":"uint256"}],"outputs":[{"name":"","type":"bool","internalType":"bool"}],"stateMutability":"nonpayable"},{"type":"function","name":"transferFrom","inputs":[{"name":"from","type":"address","internalType":"address"},{"name":"to","type":"address","internalType":"address"},{"name":"value","type":"uint256","internalType":"uint256"}],"outputs":[{"name":"","type":"bool","internalType":"bool"}],"stateMutability":"nonpayable"},{"type":"function","name":"transferOwnership","inputs":[{"name":"newOwner","type":"address","internalType":"address"}],"outputs":[],"stateMutability":"nonpayable"},{"type":"function","name":"updateMaxDeposit","inputs":[{"name":"newMaxDeposit","type":"uint256","internalType":"uint256"}],"outputs":[],"stateMutability":"nonpayable"},{"type":"function","name":"updateMinDeposit","inputs":[{"name":"newMinDeposit","type":"uint256","internalType":"uint256"}],"outputs":[],"stateMutability":"nonpayable"},{"type":"function","name":"updateSafeLine","inputs":[{"name":"newSafeLine","type":"uint256","internalType":"uint256"}],"outputs":[],"stateMutability":"nonpayable"},{"type":"function","name":"upgradeToAndCall","inputs":[{"name":"newImplementation","type":"address","internalType":"address"},{"name":"data","type":"bytes","internalType":"bytes"}],"outputs":[],"stateMutability":"payable"},{"type":"function","name":"usdt","inputs":[],"outputs":[{"name":"","type":"address","internalType":"address"}],"stateMutability":"view"},{"type":"function","name":"userDeposits","inputs":[{"name":"user","type":"address","internalType":"address"}],"outputs":[{"name":"deposits","type":"uint256","internalType":"uint256"}],"stateMutability":"view"},{"type":"function","name":"userWithdraws","inputs":[{"name":"user","type":"address","internalType":"address"}],"outputs":[{"name":"withdraws","type":"uint256","internalType":"uint256"}],"stateMutability":"view"},{"type":"function","name":"withdraw","inputs":[{"name":"assets","type":"uint256","internalType":"uint256"}],"outputs":[{"name":"shares","type":"uint256","internalType":"uint256"}],"stateMutability":"nonpayable"},{"type":"function","name":"withdrawLocked","inputs":[],"outputs":[],"stateMutability":"nonpayable"},{"type":"event","name":"Approval","inputs":[{"name":"owner","type":"address","indexed":true,"internalType":"address"},{"name":"spender","type":"address","indexed":true,"internalType":"address"},{"name":"value","type":"uint256","indexed":false,"internalType":"uint256"}],"anonymous":false},{"type":"event","name":"Initialized","inputs":[{"name":"version","type":"uint64","indexed":false,"internalType":"uint64"}],"anonymous":false},{"type":"event","name":"OwnershipTransferred","inputs":[{"name":"previousOwner","type":"address","indexed":true,"internalType":"address"},{"name":"newOwner","type":"address","indexed":true,"internalType":"address"}],"anonymous":false},{"type":"event","name":"Transfer","inputs":[{"name":"from","type":"address","indexed":true,"internalType":"address"},{"name":"to","type":"address","indexed":true,"internalType":"address"},{"name":"value","type":"uint256","indexed":false,"internalType":"uint256"}],"anonymous":false},{"type":"event","name":"Upgraded","inputs":[{"name":"implementation","type":"address","indexed":true,"internalType":"address"}],"anonymous":false},{"type":"error","name":"AddressEmptyCode","inputs":[{"name":"target","type":"address","internalType":"address"}]},{"type":"error","name":"ERC1967InvalidImplementation","inputs":[{"name":"implementation","type":"address","internalType":"address"}]},{"type":"error","name":"ERC1967NonPayable","inputs":[]},{"type":"error","name":"ERC20InsufficientAllowance","inputs":[{"name":"spender","type":"address","internalType":"address"},{"name":"allowance","type":"uint256","internalType":"uint256"},{"name":"needed","type":"uint256","internalType":"uint256"}]},{"type":"error","name":"ERC20InsufficientBalance","inputs":[{"name":"sender","type":"address","internalType":"address"},{"name":"balance","type":"uint256","internalType":"uint256"},{"name":"needed","type":"uint256","internalType":"uint256"}]},{"type":"error","name":"ERC20InvalidApprover","inputs":[{"name":"approver","type":"address","internalType":"address"}]},{"type":"error","name":"ERC20InvalidReceiver","inputs":[{"name":"receiver","type":"address","internalType":"address"}]},{"type":"error","name":"ERC20InvalidSender","inputs":[{"name":"sender","type":"address","internalType":"address"}]},{"type":"error","name":"ERC20InvalidSpender","inputs":[{"name":"spender","type":"address","internalType":"address"}]},{"type":"error","name":"FailedInnerCall","inputs":[]},{"type":"error","name":"InvalidInitialization","inputs":[]},{"type":"error","name":"MathOverflowedMulDiv","inputs":[]},{"type":"error","name":"NotInitializing","inputs":[]},{"type":"error","name":"OwnableInvalidOwner","inputs":[{"name":"owner","type":"address","internalType":"address"}]},{"type":"error","name":"OwnableUnauthorizedAccount","inputs":[{"name":"account","type":"address","internalType":"address"}]},{"type":"error","name":"UUPSUnauthorizedCallContext","inputs":[]},{"type":"error","name":"UUPSUnsupportedProxiableUUID","inputs":[{"name":"slot","type":"bytes32","internalType":"bytes32"}]}],"bytecode":{"object":"0x60a06040523060805234801561001457600080fd5b5060805161256161003e600039600081816114d2015281816114fb015261163c01526125616000f3fe6080604052600436106102935760003560e01c8063728cdbca1161015a578063b866d193116100c1578063dd62ed3e1161007a578063dd62ed3e146107e4578063e91ac26814610804578063eaa674d11461081a578063ef8b30f71461082f578063f2fde38b1461084f578063fe931c3d1461086f57600080fd5b8063b866d1931461072f578063c6e6f5921461074f578063ce96cb771461076f578063d135cc4b1461078f578063d905777e146107a4578063db006a75146107c457600080fd5b80639d0c0f23116101135780639d0c0f231461065b5780639f0a5c1b146106885780639f1f8efc146106a8578063a9059cbb146106be578063ad3cb1cc146106de578063b6b55f251461070f57600080fd5b8063728cdbca1461059d57806377049fc1146105bd5780637d882097146105d35780638da5cb5b146105e957806395d89b41146106265780639a7be4711461063b57600080fd5b80632f48ab7d116101fe57806352d1902d116101b757806352d1902d14610508578063568914121461051d5780636083e59a1461053257806367e3aa1f1461054857806370a0823114610568578063715018a61461058857600080fd5b80632f48ab7d14610461578063313ce5671461048157806341b3d1851461049d5780634cdad506146104b35780634f1ef286146104d357806351fe9e3e146104e857600080fd5b80630ba36dcd116102505780630ba36dcd1461038a57806318160ddd146103b757806320a2363c146103eb57806323b872dd1461040b57806327a88a791461042b5780632e1a7d4d1461044157600080fd5b806301e1d1141461029857806301f5ff68146102c057806306fdde03146102f857806307a2d13a1461031a578063095ea7b31461033a5780630a28a4771461036a575b600080fd5b3480156102a457600080fd5b506102ad61088f565b6040519081526020015b60405180910390f35b3480156102cc57600080fd5b506000546102e0906001600160a01b031681565b6040516001600160a01b0390911681526020016102b7565b34801561030457600080fd5b5061030d61089e565b6040516102b79190611f04565b34801561032657600080fd5b506102ad610335366004611f37565b610961565b34801561034657600080fd5b5061035a610355366004611f67565b610974565b60405190151581526020016102b7565b34801561037657600080fd5b506102ad610385366004611f37565b61098c565b34801561039657600080fd5b506102ad6103a5366004611f91565b60096020526000908152604090205481565b3480156103c357600080fd5b507f52c63247e1f47db19d5ce0460030c497f067ca4cebf71ba98eeadabe20bace02546102ad565b3480156103f757600080fd5b5061035a610406366004611fac565b610997565b34801561041757600080fd5b5061035a610426366004611fe0565b6109aa565b34801561043757600080fd5b506102ad60065481565b34801561044d57600080fd5b506102ad61045c366004611f37565b6109ce565b34801561046d57600080fd5b506001546102e0906001600160a01b031681565b34801561048d57600080fd5b50604051601281526020016102b7565b3480156104a957600080fd5b506102ad60025481565b3480156104bf57600080fd5b506102ad6104ce366004611f37565b610adb565b6104e66104e1366004612032565b610ae6565b005b3480156104f457600080fd5b506104e6610503366004611f37565b610b05565b34801561051457600080fd5b506102ad610b49565b34801561052957600080fd5b506006546102ad565b34801561053e57600080fd5b506102ad60035481565b34801561055457600080fd5b506104e6610563366004611f91565b610b66565b34801561057457600080fd5b506102ad610583366004611f91565b610b90565b34801561059457600080fd5b506104e6610bb8565b3480156105a957600080fd5b506104e66105b83660046120f4565b610bcc565b3480156105c957600080fd5b506102ad60045481565b3480156105df57600080fd5b506102ad60075481565b3480156105f557600080fd5b507f9016d09d72d40fdae2fd8ceac6b6234c7706214fd39c1cd1e609a0528c199300546001600160a01b03166102e0565b34801561063257600080fd5b5061030d610d7a565b34801561064757600080fd5b506104e6610656366004611f37565b610db9565b34801561066757600080fd5b506102ad610676366004611f91565b600a6020526000908152604090205481565b34801561069457600080fd5b506104e66106a3366004611f37565b610dc6565b3480156106b457600080fd5b506102ad60055481565b3480156106ca57600080fd5b5061035a6106d9366004611f67565b610dd3565b3480156106ea57600080fd5b5061030d604051806040016040528060058152602001640352e302e360dc1b81525081565b34801561071b57600080fd5b506102ad61072a366004611f37565b610de1565b34801561073b57600080fd5b506104e661074a366004611f37565b610e9e565b34801561075b57600080fd5b506102ad61076a366004611f37565b610eed565b34801561077b57600080fd5b506102ad61078a366004611f91565b610efa565b34801561079b57600080fd5b506104e6610f05565b3480156107b057600080fd5b506102ad6107bf366004611f91565b610f4f565b3480156107d057600080fd5b506102ad6107df366004611f37565b610f5a565b3480156107f057600080fd5b506102ad6107ff366004612153565b61105e565b34801561081057600080fd5b506102ad60085481565b34801561082657600080fd5b506102ad6110a8565b34801561083b57600080fd5b506102ad61084a366004611f37565b6110d9565b34801561085b57600080fd5b506104e661086a366004611f91565b6110e4565b34801561087b57600080fd5b506104e661088a366004611f37565b611122565b600061089961112f565b905090565b7f52c63247e1f47db19d5ce0460030c497f067ca4cebf71ba98eeadabe20bace0380546060916000805160206124ec833981519152916108dd90612186565b80601f016020809104026020016040519081016040528092919081815260200182805461090990612186565b80156109565780601f1061092b57610100808354040283529160200191610956565b820191906000526020600020905b81548152906001019060200180831161093957829003601f168201915b505050505091505090565b600061096e82600061119c565b92915050565b6000336109828185856111f5565b5060019392505050565b600061096e82611207565b60006109a38383611214565b9392505050565b6000336109b88582856112b7565b6109c385858561131d565b506001949350505050565b60006109d93361137c565b821115610a215760405162461bcd60e51b8152602060048201526011602482015270657863656564206d61782061737365747360781b60448201526064015b60405180910390fd5b610a2c826001611214565b610a6e5760405162461bcd60e51b81526020600482015260136024820152727361666520636865636b206e6f74207061737360681b6044820152606401610a18565b610a7782611207565b90508160086000828254610a8b91906121d6565b9091555050336000908152600a602052604081208054849290610aaf9084906121d6565b90915550610abf90503382611391565b600154610ad6906001600160a01b031633846113c7565b919050565b600061096e82610961565b610aee6114c7565b610af78261156c565b610b018282611574565b5050565b6000546001600160a01b03163314610b2f5760405162461bcd60e51b8152600401610a18906121e9565b8060066000828254610b4191906121d6565b909155505050565b6000610b53611631565b5060008051602061250c83398151915290565b610b6e61167a565b600080546001600160a01b0319166001600160a01b0392909216919091179055565b6001600160a01b031660009081526000805160206124ec833981519152602052604090205490565b610bc061167a565b610bca60006116d5565b565b7ff0c57e16840df040f15088dc2f81fe391c3923bec73e23a9662efc9c229c6a008054600160401b810460ff16159067ffffffffffffffff16600081158015610c125750825b905060008267ffffffffffffffff166001148015610c2f5750303b155b905081158015610c3d575080155b15610c5b5760405163f92ee8a960e01b815260040160405180910390fd5b845467ffffffffffffffff191660011785558315610c8557845460ff60401b1916600160401b1785555b610c8e8b611746565b610cdb6040518060400160405280601081526020016f526176656e20506f6f6c20536861726560801b8152506040518060400160405280600381526020016252505360e81b815250611757565b610ce3611769565b600080546001600160a01b03808d166001600160a01b03199283161790925560018054928c169290911691909117905560028890556003879055606460045560058690558315610d6d57845460ff60401b19168555604051600181527fc7f505b2f371ae2175ee4913f4499e1f2633a7b5936321eed1cdaeb6115181d29060200160405180910390a15b5050505050505050505050565b7f52c63247e1f47db19d5ce0460030c497f067ca4cebf71ba98eeadabe20bace0480546060916000805160206124ec833981519152916108dd90612186565b610dc161167a565b600255565b610dce61167a565b600355565b60003361098281858561131d565b60006002548210158015610df757506003548211155b610e365760405162461bcd60e51b815260206004820152601060248201526f696e76616c6964206465706f7369747360801b6044820152606401610a18565b610e3f82610eed565b90508160076000828254610e5391906121d6565b90915550503360009081526009602052604081208054849290610e779084906121d6565b9091555050600154610e94906001600160a01b0316333085611771565b610ad6338361187b565b6000546001600160a01b03163314610ec85760405162461bcd60e51b8152600401610a18906121e9565b806006541015610ed9576000610ee7565b80600654610ee7919061220d565b60065550565b600061096e8260006118b1565b600061096e8261137c565b6000546001600160a01b03163314610f2f5760405162461bcd60e51b8152600401610a18906121e9565b600154600054600654610bca926001600160a01b039081169216906113c7565b600061096e82611900565b6000610f6533611900565b821115610fa95760405162461bcd60e51b8152602060048201526012602482015271657863656564206d61782072656465656d7360701b6044820152606401610a18565b610fb4816001611214565b610ff65760405162461bcd60e51b81526020600482015260136024820152727361666520636865636b206e6f74207061737360681b6044820152606401610a18565b610fff82610961565b9050806008600082825461101391906121d6565b9091555050336000908152600a6020526040812080548392906110379084906121d6565b9091555061104790503383611391565b600154610ad6906001600160a01b031633836113c7565b6001600160a01b0391821660009081527f52c63247e1f47db19d5ce0460030c497f067ca4cebf71ba98eeadabe20bace016020908152604080832093909416825291909152205490565b60006006546004546005546110bb61112f565b6110c59190612220565b6110cf919061224d565b610899919061220d565b600061096e82610eed565b6110ec61167a565b6001600160a01b03811661111657604051631e4fbdf760e01b815260006004820152602401610a18565b61111f816116d5565b50565b61112a61167a565b600555565b6001546040516370a0823160e01b81523060048201526000916001600160a01b0316906370a0823190602401602060405180830381865afa158015611178573d6000803e3d6000fd5b505050506040513d601f19601f820116820180604052508101906108999190612261565b60006109a36111a961112f565b6111b49060016121d6565b6111c06000600a61235e565b7f52c63247e1f47db19d5ce0460030c497f067ca4cebf71ba98eeadabe20bace02546111ec91906121d6565b8591908561190b565b611202838383600161195c565b505050565b600061096e8260016118b1565b6000808260018111156112295761122961236d565b036112665760055461123961112f565b6112439190612220565b60045460065461125390866121d6565b61125d9190612220565b1115905061096e565b600182600181111561127a5761127a61236d565b036112af576005548361128b61112f565b611295919061220d565b61129f9190612220565b60045460065461125d9190612220565b50600061096e565b60006112c3848461105e565b90506000198114611317578181101561130857604051637dc7a0d960e11b81526001600160a01b03841660048201526024810182905260448101839052606401610a18565b6113178484848403600061195c565b50505050565b6001600160a01b03831661134757604051634b637e8f60e11b815260006004820152602401610a18565b6001600160a01b0382166113715760405163ec442f0560e01b815260006004820152602401610a18565b611202838383611a43565b600061096e61138a83610b90565b600061119c565b6001600160a01b0382166113bb57604051634b637e8f60e11b815260006004820152602401610a18565b610b0182600083611a43565b604080516001600160a01b038481166024830152604480830185905283518084039091018152606490920183526020820180516001600160e01b031663a9059cbb60e01b17905291516000928392908716916114239190612383565b6000604051808303816000865af19150503d8060008114611460576040519150601f19603f3d011682016040523d82523d6000602084013e611465565b606091505b509150915081801561148f57508051158061148f57508080602001905181019061148f919061239f565b6114c05760405162461bcd60e51b815260206004820152600260248201526114d560f21b6044820152606401610a18565b5050505050565b306001600160a01b037f000000000000000000000000000000000000000000000000000000000000000016148061154e57507f00000000000000000000000000000000000000000000000000000000000000006001600160a01b031661154260008051602061250c833981519152546001600160a01b031690565b6001600160a01b031614155b15610bca5760405163703e46dd60e11b815260040160405180910390fd5b61111f61167a565b816001600160a01b03166352d1902d6040518163ffffffff1660e01b8152600401602060405180830381865afa9250505080156115ce575060408051601f3d908101601f191682019092526115cb91810190612261565b60015b6115f657604051634c9c8ce360e01b81526001600160a01b0383166004820152602401610a18565b60008051602061250c833981519152811461162757604051632a87526960e21b815260048101829052602401610a18565b6112028383611b81565b306001600160a01b037f00000000000000000000000000000000000000000000000000000000000000001614610bca5760405163703e46dd60e11b815260040160405180910390fd5b336116ac7f9016d09d72d40fdae2fd8ceac6b6234c7706214fd39c1cd1e609a0528c199300546001600160a01b031690565b6001600160a01b031614610bca5760405163118cdaa760e01b8152336004820152602401610a18565b7f9016d09d72d40fdae2fd8ceac6b6234c7706214fd39c1cd1e609a0528c19930080546001600160a01b031981166001600160a01b03848116918217845560405192169182907f8be0079c531659141344cd1fd0a4f28419497f9722a3daafe3b4186f6b6457e090600090a3505050565b61174e611bd7565b61111f81611c20565b61175f611bd7565b610b018282611c28565b610bca611bd7565b604080516001600160a01b0385811660248301528481166044830152606480830185905283518084039091018152608490920183526020820180516001600160e01b03166323b872dd60e01b17905291516000928392908816916117d59190612383565b6000604051808303816000865af19150503d8060008114611812576040519150601f19603f3d011682016040523d82523d6000602084013e611817565b606091505b5091509150818015611841575080511580611841575080806020019051810190611841919061239f565b6118735760405162461bcd60e51b815260206004820152600360248201526229aa2360e91b6044820152606401610a18565b505050505050565b6001600160a01b0382166118a55760405163ec442f0560e01b815260006004820152602401610a18565b610b0160008383611a43565b60006109a36118c182600a61235e565b7f52c63247e1f47db19d5ce0460030c497f067ca4cebf71ba98eeadabe20bace02546118ed91906121d6565b6118f561112f565b6111ec9060016121d6565b600061096e82610b90565b600080611919868686611c79565b905061192483611d3d565b801561194057506000848061193b5761193b612237565b868809115b15611953576119506001826121d6565b90505b95945050505050565b6000805160206124ec8339815191526001600160a01b0385166119955760405163e602df0560e01b815260006004820152602401610a18565b6001600160a01b0384166119bf57604051634a1406b160e11b815260006004820152602401610a18565b6001600160a01b038086166000908152600183016020908152604080832093881683529290522083905581156114c057836001600160a01b0316856001600160a01b03167f8c5be1e5ebec7d5bd14f71427d1e84f3dd0314c0f7b2291e5b200ac8c7c3b92585604051611a3491815260200190565b60405180910390a35050505050565b6000805160206124ec8339815191526001600160a01b038416611a7f5781816002016000828254611a7491906121d6565b90915550611af19050565b6001600160a01b03841660009081526020829052604090205482811015611ad25760405163391434e360e21b81526001600160a01b03861660048201526024810182905260448101849052606401610a18565b6001600160a01b03851660009081526020839052604090209083900390555b6001600160a01b038316611b0f576002810180548390039055611b2e565b6001600160a01b03831660009081526020829052604090208054830190555b826001600160a01b0316846001600160a01b03167fddf252ad1be2c89b69c2b068fc378daa952ba7f163c4a11628f55a4df523b3ef84604051611b7391815260200190565b60405180910390a350505050565b611b8a82611d6a565b6040516001600160a01b038316907fbc7cd75a20ee27fd9adebab32041f755214dbc6bffa90cc0225b39da2e5c2d3b90600090a2805115611bcf576112028282611dcf565b610b01611e3c565b7ff0c57e16840df040f15088dc2f81fe391c3923bec73e23a9662efc9c229c6a0054600160401b900460ff16610bca57604051631afcd79f60e31b815260040160405180910390fd5b6110ec611bd7565b611c30611bd7565b6000805160206124ec8339815191527f52c63247e1f47db19d5ce0460030c497f067ca4cebf71ba98eeadabe20bace03611c6a8482612409565b50600481016113178382612409565b6000838302816000198587098281108382030391505080600003611cb057838281611ca657611ca6612237565b04925050506109a3565b808411611cd05760405163227bc15360e01b815260040160405180910390fd5b6000848688096000868103871696879004966002600389028118808a02820302808a02820302808a02820302808a02820302808a02820302808a02909103029181900381900460010186841190950394909402919094039290920491909117919091029150509392505050565b60006002826003811115611d5357611d5361236d565b611d5d91906124c9565b60ff166001149050919050565b806001600160a01b03163b600003611da057604051634c9c8ce360e01b81526001600160a01b0382166004820152602401610a18565b60008051602061250c83398151915280546001600160a01b0319166001600160a01b0392909216919091179055565b6060600080846001600160a01b031684604051611dec9190612383565b600060405180830381855af49150503d8060008114611e27576040519150601f19603f3d011682016040523d82523d6000602084013e611e2c565b606091505b5091509150611953858383611e5b565b3415610bca5760405163b398979f60e01b815260040160405180910390fd5b606082611e7057611e6b82611eb7565b6109a3565b8151158015611e8757506001600160a01b0384163b155b15611eb057604051639996b31560e01b81526001600160a01b0385166004820152602401610a18565b50806109a3565b805115611ec75780518082602001fd5b604051630a12f52160e11b815260040160405180910390fd5b60005b83811015611efb578181015183820152602001611ee3565b50506000910152565b6020815260008251806020840152611f23816040850160208701611ee0565b601f01601f19169190910160400192915050565b600060208284031215611f4957600080fd5b5035919050565b80356001600160a01b0381168114610ad657600080fd5b60008060408385031215611f7a57600080fd5b611f8383611f50565b946020939093013593505050565b600060208284031215611fa357600080fd5b6109a382611f50565b60008060408385031215611fbf57600080fd5b82359150602083013560028110611fd557600080fd5b809150509250929050565b600080600060608486031215611ff557600080fd5b611ffe84611f50565b925061200c60208501611f50565b9150604084013590509250925092565b634e487b7160e01b600052604160045260246000fd5b6000806040838503121561204557600080fd5b61204e83611f50565b9150602083013567ffffffffffffffff8082111561206b57600080fd5b818501915085601f83011261207f57600080fd5b8135818111156120915761209161201c565b604051601f8201601f19908116603f011681019083821181831017156120b9576120b961201c565b816040528281528860208487010111156120d257600080fd5b8260208601602083013760006020848301015280955050505050509250929050565b60008060008060008060c0878903121561210d57600080fd5b61211687611f50565b955061212460208801611f50565b945061213260408801611f50565b9350606087013592506080870135915060a087013590509295509295509295565b6000806040838503121561216657600080fd5b61216f83611f50565b915061217d60208401611f50565b90509250929050565b600181811c9082168061219a57607f821691505b6020821081036121ba57634e487b7160e01b600052602260045260246000fd5b50919050565b634e487b7160e01b600052601160045260246000fd5b8082018082111561096e5761096e6121c0565b6020808252600a908201526937b7363c902930bb32b760b11b604082015260600190565b8181038181111561096e5761096e6121c0565b808202811582820484141761096e5761096e6121c0565b634e487b7160e01b600052601260045260246000fd5b60008261225c5761225c612237565b500490565b60006020828403121561227357600080fd5b5051919050565b600181815b808511156122b557816000190482111561229b5761229b6121c0565b808516156122a857918102915b93841c939080029061227f565b509250929050565b6000826122cc5750600161096e565b816122d95750600061096e565b81600181146122ef57600281146122f957612315565b600191505061096e565b60ff84111561230a5761230a6121c0565b50506001821b61096e565b5060208310610133831016604e8410600b8410161715612338575081810a61096e565b612342838361227a565b8060001904821115612356576123566121c0565b029392505050565b60006109a360ff8416836122bd565b634e487b7160e01b600052602160045260246000fd5b60008251612395818460208701611ee0565b9190910192915050565b6000602082840312156123b157600080fd5b815180151581146109a357600080fd5b601f821115611202576000816000526020600020601f850160051c810160208610156123ea5750805b601f850160051c820191505b81811015611873578281556001016123f6565b815167ffffffffffffffff8111156124235761242361201c565b612437816124318454612186565b846123c1565b602080601f83116001811461246c57600084156124545750858301515b600019600386901b1c1916600185901b178555611873565b600085815260208120601f198616915b8281101561249b5788860151825594840194600190910190840161247c565b50858210156124b95787850151600019600388901b60f8161c191681555b5050505050600190811b01905550565b600060ff8316806124dc576124dc612237565b8060ff8416069150509291505056fe52c63247e1f47db19d5ce0460030c497f067ca4cebf71ba98eeadabe20bace00360894a13ba1a3210667c828492db98dca3e2076cc3735a920a3ca505d382bbca2646970667358221220a98275042d13e3e8a2eab237ac886df6dd4b7deb615ae788679c26a82fbf45f464736f6c63430008180033","linkReferences":{}},"methodIdentifiers":{"UPGRADE_INTERFACE_VERSION()":"ad3cb1cc","allowance(address,address)":"dd62ed3e","approve(address,uint256)":"095ea7b3","balanceOf(address)":"70a08231","basePerc()":"77049fc1","convertToAssets(uint256)":"07a2d13a","convertToShares(uint256)":"c6e6f592","decimals()":"313ce567","deposit(uint256)":"b6b55f25","holdLocked(uint256)":"51fe9e3e","initialize(address,address,address,uint256,uint256,uint256)":"728cdbca","maxDeposit()":"6083e59a","maxRedeem(address)":"d905777e","maxWithdraw(address)":"ce96cb77","minDeposit()":"41b3d185","name()":"06fdde03","owner()":"8da5cb5b","post_init(address)":"67e3aa1f","previewDeposit(uint256)":"ef8b30f7","previewRedeem(uint256)":"4cdad506","previewWithdraw(uint256)":"0a28a477","proxiableUUID()":"52d1902d","raven()":"01f5ff68","redeem(uint256)":"db006a75","releaseLocked(uint256)":"b866d193","renounceOwnership()":"715018a6","safeCheck(uint256,uint8)":"20a2363c","safeLine()":"9f1f8efc","symbol()":"95d89b41","totalAssets()":"01e1d114","totalDeposits()":"7d882097","totalLocked()":"56891412","totalLockedAsset()":"27a88a79","totalMargin()":"eaa674d1","totalSupply()":"18160ddd","totalWithdraws()":"e91ac268","transfer(address,uint256)":"a9059cbb","transferFrom(address,address,uint256)":"23b872dd","transferOwnership(address)":"f2fde38b","updateMaxDeposit(uint256)":"9f0a5c1b","updateMinDeposit(uint256)":"9a7be471","updateSafeLine(uint256)":"fe931c3d","upgradeToAndCall(address,bytes)":"4f1ef286","usdt()":"2f48ab7d","userDeposits(address)":"0ba36dcd","userWithdraws(address)":"9d0c0f23","withdraw(uint256)":"2e1a7d4d","withdrawLocked()":"d135cc4b"},"id":39}