{"abi":[{"type":"constructor","inputs":[],"stateMutability":"nonpayable"},{"type":"function","name":"UPGRADE_INTERFACE_VERSION","inputs":[],"outputs":[{"name":"","type":"string","internalType":"string"}],"stateMutability":"view"},{"type":"function","name":"allowance","inputs":[{"name":"owner","type":"address","internalType":"address"},{"name":"spender","type":"address","internalType":"address"}],"outputs":[{"name":"","type":"uint256","internalType":"uint256"}],"stateMutability":"view"},{"type":"function","name":"approve","inputs":[{"name":"spender","type":"address","internalType":"address"},{"name":"value","type":"uint256","internalType":"uint256"}],"outputs":[{"name":"","type":"bool","internalType":"bool"}],"stateMutability":"nonpayable"},{"type":"function","name":"balanceOf","inputs":[{"name":"account","type":"address","internalType":"address"}],"outputs":[{"name":"","type":"uint256","internalType":"uint256"}],"stateMutability":"view"},{"type":"function","name":"basePerc","inputs":[],"outputs":[{"name":"","type":"uint256","internalType":"uint256"}],"stateMutability":"view"},{"type":"function","name":"convertToAssets","inputs":[{"name":"shares","type":"uint256","internalType":"uint256"}],"outputs":[{"name":"","type":"uint256","internalType":"uint256"}],"stateMutability":"view"},{"type":"function","name":"convertToShares","inputs":[{"name":"assets","type":"uint256","internalType":"uint256"}],"outputs":[{"name":"","type":"uint256","internalType":"uint256"}],"stateMutability":"view"},{"type":"function","name":"decimals","inputs":[],"outputs":[{"name":"","type":"uint8","internalType":"uint8"}],"stateMutability":"view"},{"type":"function","name":"deposit","inputs":[{"name":"assets","type":"uint256","internalType":"uint256"}],"outputs":[{"name":"shares","type":"uint256","internalType":"uint256"}],"stateMutability":"nonpayable"},{"type":"function","name":"holdLocked","inputs":[{"name":"borrow","type":"uint256","internalType":"uint256"}],"outputs":[],"stateMutability":"nonpayable"},{"type":"function","name":"initialize","inputs":[{"name":"owner_","type":"address","internalType":"address"},{"name":"raven_","type":"address","internalType":"address"},{"name":"usdt_","type":"address","internalType":"address"},{"name":"minDeposit_","type":"uint256","internalType":"uint256"},{"name":"maxDeposit_","type":"uint256","internalType":"uint256"},{"name":"safeLine_","type":"uint256","internalType":"uint256"}],"outputs":[],"stateMutability":"nonpayable"},{"type":"function","name":"maxDeposit","inputs":[],"outputs":[{"name":"","type":"uint256","internalType":"uint256"}],"stateMutability":"view"},{"type":"function","name":"maxRedeem","inputs":[{"name":"owner","type":"address","internalType":"address"}],"outputs":[{"name":"","type":"uint256","internalType":"uint256"}],"stateMutability":"view"},{"type":"function","name":"maxWithdraw","inputs":[{"name":"owner","type":"address","internalType":"address"}],"outputs":[{"name":"","type":"uint256","internalType":"uint256"}],"stateMutability":"view"},{"type":"function","name":"minDeposit","inputs":[],"outputs":[{"name":"","type":"uint256","internalType":"uint256"}],"stateMutability":"view"},{"type":"function","name":"name","inputs":[],"outputs":[{"name":"","type":"string","internalType":"string"}],"stateMutability":"view"},{"type":"function","name":"owner","inputs":[],"outputs":[{"name":"","type":"address","internalType":"address"}],"stateMutability":"view"},{"type":"function","name":"post_init","inputs":[{"name":"raven_","type":"address","internalType":"address"}],"outputs":[],"stateMutability":"nonpayable"},{"type":"function","name":"previewDeposit","inputs":[{"name":"assets","type":"uint256","internalType":"uint256"}],"outputs":[{"name":"","type":"uint256","internalType":"uint256"}],"stateMutability":"view"},{"type":"function","name":"previewRedeem","inputs":[{"name":"shares","type":"uint256","internalType":"uint256"}],"outputs":[{"name":"","type":"uint256","internalType":"uint256"}],"stateMutability":"view"},{"type":"function","name":"previewWithdraw","inputs":[{"name":"assets","type":"uint256","internalType":"uint256"}],"outputs":[{"name":"","type":"uint256","internalType":"uint256"}],"stateMutability":"view"},{"type":"function","name":"proxiableUUID","inputs":[],"outputs":[{"name":"","type":"bytes32","internalType":"bytes32"}],"stateMutability":"view"},{"type":"function","name":"raven","inputs":[],"outputs":[{"name":"","type":"address","internalType":"address"}],"stateMutability":"view"},{"type":"function","name":"redeem","inputs":[{"name":"shares","type":"uint256","internalType":"uint256"}],"outputs":[{"name":"assets","type":"uint256","internalType":"uint256"}],"stateMutability":"nonpayable"},{"type":"function","name":"releaseLocked","inputs":[{"name":"release","type":"uint256","internalType":"uint256"}],"outputs":[],"stateMutability":"nonpayable"},{"type":"function","name":"renounceOwnership","inputs":[],"outputs":[],"stateMutability":"nonpayable"},{"type":"function","name":"roundLoss","inputs":[{"name":"round","type":"uint256","internalType":"uint256"}],"outputs":[{"name":"loss","type":"uint256","internalType":"uint256"}],"stateMutability":"view"},{"type":"function","name":"safeCheck","inputs":[{"name":"assets","type":"uint256","internalType":"uint256"},{"name":"op","type":"uint8","internalType":"enum IPubVault.OP"}],"outputs":[{"name":"","type":"bool","internalType":"bool"}],"stateMutability":"view"},{"type":"function","name":"safeLine","inputs":[],"outputs":[{"name":"","type":"uint256","internalType":"uint256"}],"stateMutability":"view"},{"type":"function","name":"symbol","inputs":[],"outputs":[{"name":"","type":"string","internalType":"string"}],"stateMutability":"view"},{"type":"function","name":"totalAssets","inputs":[],"outputs":[{"name":"","type":"uint256","internalType":"uint256"}],"stateMutability":"view"},{"type":"function","name":"totalDeposits","inputs":[],"outputs":[{"name":"","type":"uint256","internalType":"uint256"}],"stateMutability":"view"},{"type":"function","name":"totalLocked","inputs":[],"outputs":[{"name":"","type":"uint256","internalType":"uint256"}],"stateMutability":"view"},{"type":"function","name":"totalLockedAsset","inputs":[],"outputs":[{"name":"","type":"uint256","internalType":"uint256"}],"stateMutability":"view"},{"type":"function","name":"totalLoss","inputs":[],"outputs":[{"name":"","type":"uint256","internalType":"uint256"}],"stateMutability":"view"},{"type":"function","name":"totalMargin","inputs":[],"outputs":[{"name":"","type":"uint256","internalType":"uint256"}],"stateMutability":"view"},{"type":"function","name":"totalSupply","inputs":[],"outputs":[{"name":"","type":"uint256","internalType":"uint256"}],"stateMutability":"view"},{"type":"function","name":"totalWithdraws","inputs":[],"outputs":[{"name":"","type":"uint256","internalType":"uint256"}],"stateMutability":"view"},{"type":"function","name":"transfer","inputs":[{"name":"to","type":"address","internalType":"address"},{"name":"value","type":"uint256","internalType":"uint256"}],"outputs":[{"name":"","type":"bool","internalType":"bool"}],"stateMutability":"nonpayable"},{"type":"function","name":"transferFrom","inputs":[{"name":"from","type":"address","internalType":"address"},{"name":"to","type":"address","internalType":"address"},{"name":"value","type":"uint256","internalType":"uint256"}],"outputs":[{"name":"","type":"bool","internalType":"bool"}],"stateMutability":"nonpayable"},{"type":"function","name":"transferOwnership","inputs":[{"name":"newOwner","type":"address","internalType":"address"}],"outputs":[],"stateMutability":"nonpayable"},{"type":"function","name":"updateMaxDeposit","inputs":[{"name":"newMaxDeposit","type":"uint256","internalType":"uint256"}],"outputs":[],"stateMutability":"nonpayable"},{"type":"function","name":"updateMinDeposit","inputs":[{"name":"newMinDeposit","type":"uint256","internalType":"uint256"}],"outputs":[],"stateMutability":"nonpayable"},{"type":"function","name":"updateSafeLine","inputs":[{"name":"newSafeLine","type":"uint256","internalType":"uint256"}],"outputs":[],"stateMutability":"nonpayable"},{"type":"function","name":"upgradeToAndCall","inputs":[{"name":"newImplementation","type":"address","internalType":"address"},{"name":"data","type":"bytes","internalType":"bytes"}],"outputs":[],"stateMutability":"payable"},{"type":"function","name":"usdt","inputs":[],"outputs":[{"name":"","type":"address","internalType":"address"}],"stateMutability":"view"},{"type":"function","name":"userDeposits","inputs":[{"name":"user","type":"address","internalType":"address"}],"outputs":[{"name":"deposits","type":"uint256","internalType":"uint256"}],"stateMutability":"view"},{"type":"function","name":"userWithdraws","inputs":[{"name":"user","type":"address","internalType":"address"}],"outputs":[{"name":"withdraws","type":"uint256","internalType":"uint256"}],"stateMutability":"view"},{"type":"function","name":"withdraw","inputs":[{"name":"assets","type":"uint256","internalType":"uint256"}],"outputs":[{"name":"shares","type":"uint256","internalType":"uint256"}],"stateMutability":"nonpayable"},{"type":"function","name":"withdrawLocked","inputs":[{"name":"round","type":"uint256","internalType":"uint256"}],"outputs":[{"name":"","type":"uint256","internalType":"uint256"}],"stateMutability":"nonpayable"},{"type":"event","name":"Approval","inputs":[{"name":"owner","type":"address","indexed":true,"internalType":"address"},{"name":"spender","type":"address","indexed":true,"internalType":"address"},{"name":"value","type":"uint256","indexed":false,"internalType":"uint256"}],"anonymous":false},{"type":"event","name":"Initialized","inputs":[{"name":"version","type":"uint64","indexed":false,"internalType":"uint64"}],"anonymous":false},{"type":"event","name":"OwnershipTransferred","inputs":[{"name":"previousOwner","type":"address","indexed":true,"internalType":"address"},{"name":"newOwner","type":"address","indexed":true,"internalType":"address"}],"anonymous":false},{"type":"event","name":"Transfer","inputs":[{"name":"from","type":"address","indexed":true,"internalType":"address"},{"name":"to","type":"address","indexed":true,"internalType":"address"},{"name":"value","type":"uint256","indexed":false,"internalType":"uint256"}],"anonymous":false},{"type":"event","name":"Upgraded","inputs":[{"name":"implementation","type":"address","indexed":true,"internalType":"address"}],"anonymous":false},{"type":"event","name":"VaultChange","inputs":[{"name":"owner","type":"address","indexed":false,"internalType":"address"},{"name":"assets","type":"uint256","indexed":false,"internalType":"uint256"},{"name":"shares","type":"uint256","indexed":false,"internalType":"uint256"},{"name":"blockTime","type":"uint256","indexed":false,"internalType":"uint256"},{"name":"isDeposit","type":"bool","indexed":false,"internalType":"bool"}],"anonymous":false},{"type":"error","name":"AddressEmptyCode","inputs":[{"name":"target","type":"address","internalType":"address"}]},{"type":"error","name":"ERC1967InvalidImplementation","inputs":[{"name":"implementation","type":"address","internalType":"address"}]},{"type":"error","name":"ERC1967NonPayable","inputs":[]},{"type":"error","name":"ERC20InsufficientAllowance","inputs":[{"name":"spender","type":"address","internalType":"address"},{"name":"allowance","type":"uint256","internalType":"uint256"},{"name":"needed","type":"uint256","internalType":"uint256"}]},{"type":"error","name":"ERC20InsufficientBalance","inputs":[{"name":"sender","type":"address","internalType":"address"},{"name":"balance","type":"uint256","internalType":"uint256"},{"name":"needed","type":"uint256","internalType":"uint256"}]},{"type":"error","name":"ERC20InvalidApprover","inputs":[{"name":"approver","type":"address","internalType":"address"}]},{"type":"error","name":"ERC20InvalidReceiver","inputs":[{"name":"receiver","type":"address","internalType":"address"}]},{"type":"error","name":"ERC20InvalidSender","inputs":[{"name":"sender","type":"address","internalType":"address"}]},{"type":"error","name":"ERC20InvalidSpender","inputs":[{"name":"spender","type":"address","internalType":"address"}]},{"type":"error","name":"FailedInnerCall","inputs":[]},{"type":"error","name":"InvalidInitialization","inputs":[]},{"type":"error","name":"MathOverflowedMulDiv","inputs":[]},{"type":"error","name":"NotInitializing","inputs":[]},{"type":"error","name":"OwnableInvalidOwner","inputs":[{"name":"owner","type":"address","internalType":"address"}]},{"type":"error","name":"OwnableUnauthorizedAccount","inputs":[{"name":"account","type":"address","internalType":"address"}]},{"type":"error","name":"UUPSUnauthorizedCallContext","inputs":[]},{"type":"error","name":"UUPSUnsupportedProxiableUUID","inputs":[{"name":"slot","type":"bytes32","internalType":"bytes32"}]}],"bytecode":{"object":"0x60a0604052306080523480156200001557600080fd5b506200002062000026565b620000da565b7ff0c57e16840df040f15088dc2f81fe391c3923bec73e23a9662efc9c229c6a00805468010000000000000000900460ff1615620000775760405163f92ee8a960e01b815260040160405180910390fd5b80546001600160401b0390811614620000d75780546001600160401b0319166001600160401b0390811782556040519081527fc7f505b2f371ae2175ee4913f4499e1f2633a7b5936321eed1cdaeb6115181d29060200160405180910390a15b50565b60805161293162000104600039600081816118720152818161189b01526119dc01526129316000f3fe6080604052600436106102c95760003560e01c8063715018a611610175578063ad3cb1cc116100dc578063db006a7511610095578063eaa674d11161006f578063eaa674d11461089e578063ef8b30f7146108b3578063f2fde38b146108d3578063fe931c3d146108f357600080fd5b8063db006a7514610848578063dd62ed3e14610868578063e91ac2681461088857600080fd5b8063ad3cb1cc14610777578063b6b55f25146107a8578063b866d193146107c8578063c6e6f592146107e8578063ce96cb7714610808578063d905777e1461082857600080fd5b80639a7be4711161012e5780639a7be471146106a75780639afdf2b5146106c75780639d0c0f23146106f45780639f0a5c1b146107215780639f1f8efc14610741578063a9059cbb1461075757600080fd5b8063715018a6146105f4578063728cdbca1461060957806377049fc1146106295780637d8820971461063f5780638da5cb5b1461065557806395d89b411461069257600080fd5b80632e1a7d4d116102345780634f1ef286116101ed57806356891412116101c757806356891412146105895780636083e59a1461059e57806367e3aa1f146105b457806370a08231146105d457600080fd5b80634f1ef2861461053f57806351fe9e3e1461055457806352d1902d1461057457600080fd5b80632e1a7d4d1461048d5780632f48ab7d146104ad578063313ce567146104cd57806332d342b7146104e957806341b3d185146105095780634cdad5061461051f57600080fd5b80630ba36dcd116102865780630ba36dcd146103c05780630d457ee1146103ed57806318160ddd1461040357806320a2363c1461043757806323b872dd1461045757806327a88a791461047757600080fd5b806301e1d114146102ce57806301f5ff68146102f657806306fdde031461032e57806307a2d13a14610350578063095ea7b3146103705780630a28a477146103a0575b600080fd5b3480156102da57600080fd5b506102e3610913565b6040519081526020015b60405180910390f35b34801561030257600080fd5b50600054610316906001600160a01b031681565b6040516001600160a01b0390911681526020016102ed565b34801561033a57600080fd5b50610343610922565b6040516102ed91906122a4565b34801561035c57600080fd5b506102e361036b3660046122d7565b6109e5565b34801561037c57600080fd5b5061039061038b366004612307565b6109f8565b60405190151581526020016102ed565b3480156103ac57600080fd5b506102e36103bb3660046122d7565b610a10565b3480156103cc57600080fd5b506102e36103db366004612331565b600a6020526000908152604090205481565b3480156103f957600080fd5b506102e360095481565b34801561040f57600080fd5b507f52c63247e1f47db19d5ce0460030c497f067ca4cebf71ba98eeadabe20bace02546102e3565b34801561044357600080fd5b5061039061045236600461234c565b610a1b565b34801561046357600080fd5b50610390610472366004612380565b610a2e565b34801561048357600080fd5b506102e360065481565b34801561049957600080fd5b506102e36104a83660046122d7565b610a52565b3480156104b957600080fd5b50600154610316906001600160a01b031681565b3480156104d957600080fd5b50604051601281526020016102ed565b3480156104f557600080fd5b506102e36105043660046122d7565b610b9f565b34801561051557600080fd5b506102e360025481565b34801561052b57600080fd5b506102e361053a3660046122d7565b610c20565b61055261054d3660046123d2565b610c2b565b005b34801561056057600080fd5b5061055261056f3660046122d7565b610c4a565b34801561058057600080fd5b506102e3610c8e565b34801561059557600080fd5b506006546102e3565b3480156105aa57600080fd5b506102e360035481565b3480156105c057600080fd5b506105526105cf366004612331565b610cab565b3480156105e057600080fd5b506102e36105ef366004612331565b610d2b565b34801561060057600080fd5b50610552610d53565b34801561061557600080fd5b50610552610624366004612494565b610d67565b34801561063557600080fd5b506102e360045481565b34801561064b57600080fd5b506102e360075481565b34801561066157600080fd5b507f9016d09d72d40fdae2fd8ceac6b6234c7706214fd39c1cd1e609a0528c199300546001600160a01b0316610316565b34801561069e57600080fd5b5061034361104a565b3480156106b357600080fd5b506105526106c23660046122d7565b611089565b3480156106d357600080fd5b506102e36106e23660046122d7565b600c6020526000908152604090205481565b34801561070057600080fd5b506102e361070f366004612331565b600b6020526000908152604090205481565b34801561072d57600080fd5b5061055261073c3660046122d7565b6110eb565b34801561074d57600080fd5b506102e360055481565b34801561076357600080fd5b50610390610772366004612307565b61114d565b34801561078357600080fd5b50610343604051806040016040528060058152602001640352e302e360dc1b81525081565b3480156107b457600080fd5b506102e36107c33660046122d7565b61115b565b3480156107d457600080fd5b506105526107e33660046122d7565b611250565b3480156107f457600080fd5b506102e36108033660046122d7565b61129f565b34801561081457600080fd5b506102e3610823366004612331565b6112ac565b34801561083457600080fd5b506102e3610843366004612331565b6112b7565b34801561085457600080fd5b506102e36108633660046122d7565b6112c2565b34801561087457600080fd5b506102e36108833660046124f3565b6113fe565b34801561089457600080fd5b506102e360085481565b3480156108aa57600080fd5b506102e3611448565b3480156108bf57600080fd5b506102e36108ce3660046122d7565b611479565b3480156108df57600080fd5b506105526108ee366004612331565b611484565b3480156108ff57600080fd5b5061055261090e3660046122d7565b6114c2565b600061091d6114cf565b905090565b7f52c63247e1f47db19d5ce0460030c497f067ca4cebf71ba98eeadabe20bace0380546060916000805160206128bc8339815191529161096190612526565b80601f016020809104026020016040519081016040528092919081815260200182805461098d90612526565b80156109da5780601f106109af576101008083540402835291602001916109da565b820191906000526020600020905b8154815290600101906020018083116109bd57829003601f168201915b505050505091505090565b60006109f282600061153c565b92915050565b600033610a06818585611595565b5060019392505050565b60006109f2826115a7565b6000610a2783836115b4565b9392505050565b600033610a3c858285611657565b610a478585856116bd565b506001949350505050565b6000610a5d3361171c565b821115610aa55760405162461bcd60e51b8152602060048201526011602482015270657863656564206d61782061737365747360781b60448201526064015b60405180910390fd5b610ab08260016115b4565b610af25760405162461bcd60e51b81526020600482015260136024820152727361666520636865636b206e6f74207061737360681b6044820152606401610a9c565b610afb826115a7565b90508160086000828254610b0f9190612576565b9091555050336000908152600b602052604081208054849290610b33908490612576565b90915550610b4390503382611731565b600154610b5a906001600160a01b03163384611767565b7f76d5da03d7f099f74d8d26005a85bffbb26efdbf7cd75d7a4313e616821ec6ad338383426000604051610b92959493929190612589565b60405180910390a1919050565b600080546001600160a01b03163314610bca5760405162461bcd60e51b8152600401610a9c906125b9565b60068054600091829055838252600c602052604082208190556009805491928392610bf6908490612576565b9091555050600154600054610c18916001600160a01b03908116911683611767565b90505b919050565b60006109f2826109e5565b610c33611867565b610c3c8261190c565b610c468282611914565b5050565b6000546001600160a01b03163314610c745760405162461bcd60e51b8152600401610a9c906125b9565b8060066000828254610c869190612576565b909155505050565b6000610c986119d1565b506000805160206128dc83398151915290565b610cb3611a1a565b6001600160a01b038116610d095760405162461bcd60e51b815260206004820152601860248201527f696e76616c696420726176656e206164647265737328302900000000000000006044820152606401610a9c565b600080546001600160a01b0319166001600160a01b0392909216919091179055565b6001600160a01b031660009081526000805160206128bc833981519152602052604090205490565b610d5b611a1a565b610d656000611a75565b565b7ff0c57e16840df040f15088dc2f81fe391c3923bec73e23a9662efc9c229c6a008054600160401b810460ff16159067ffffffffffffffff16600081158015610dad5750825b905060008267ffffffffffffffff166001148015610dca5750303b155b905081158015610dd8575080155b15610df65760405163f92ee8a960e01b815260040160405180910390fd5b845467ffffffffffffffff191660011785558315610e2057845460ff60401b1916600160401b1785555b6001600160a01b038916610e765760405162461bcd60e51b815260206004820152601760248201527f696e76616c6964207573647420616464726573732830290000000000000000006044820152606401610a9c565b60008811610ebe5760405162461bcd60e51b81526020600482015260156024820152740696e76616c6964206d696e4465706f7369743a203605c1b6044820152606401610a9c565b60008711610f065760405162461bcd60e51b81526020600482015260156024820152740696e76616c6964206d61784465706f7369743a203605c1b6044820152606401610a9c565b868810610f555760405162461bcd60e51b815260206004820152601760248201527f6d696e4465706f736974203c206d61784465706f7369740000000000000000006044820152606401610a9c565b610f5e8b611ae6565b610fab6040518060400160405280601081526020016f526176656e20506f6f6c20536861726560801b8152506040518060400160405280600381526020016252505360e81b815250611af7565b610fb3611b09565b600080546001600160a01b03808d166001600160a01b03199283161790925560018054928c16929091169190911790556002889055600387905560646004556005869055831561103d57845460ff60401b19168555604051600181527fc7f505b2f371ae2175ee4913f4499e1f2633a7b5936321eed1cdaeb6115181d29060200160405180910390a15b5050505050505050505050565b7f52c63247e1f47db19d5ce0460030c497f067ca4cebf71ba98eeadabe20bace0480546060916000805160206128bc8339815191529161096190612526565b611091611a1a565b6000811180156110a2575060035481105b6110e65760405162461bcd60e51b81526020600482015260156024820152741a5b9d985b1a59081b995dd3585e11195c1bdcda5d605a1b6044820152606401610a9c565b600255565b6110f3611a1a565b600081118015611104575060025481115b6111485760405162461bcd60e51b81526020600482015260156024820152741a5b9d985b1a59081b995dd3585e11195c1bdcda5d605a1b6044820152606401610a9c565b600355565b600033610a068185856116bd565b6000600254821015801561117157506003548211155b6111b05760405162461bcd60e51b815260206004820152601060248201526f696e76616c6964206465706f7369747360801b6044820152606401610a9c565b6111b98261129f565b905081600760008282546111cd9190612576565b9091555050336000908152600a6020526040812080548492906111f1908490612576565b909155505060015461120e906001600160a01b0316333085611b11565b6112183382611c1b565b7f76d5da03d7f099f74d8d26005a85bffbb26efdbf7cd75d7a4313e616821ec6ad338383426001604051610b92959493929190612589565b6000546001600160a01b0316331461127a5760405162461bcd60e51b8152600401610a9c906125b9565b80600654101561128b576000611299565b8060065461129991906125dd565b60065550565b60006109f2826000611c51565b60006109f28261171c565b60006109f282611ca0565b60006112cd33611ca0565b8211156113115760405162461bcd60e51b8152602060048201526012602482015271657863656564206d61782072656465656d7360701b6044820152606401610a9c565b61131a826109e5565b90506113278160016115b4565b6113695760405162461bcd60e51b81526020600482015260136024820152727361666520636865636b206e6f74207061737360681b6044820152606401610a9c565b806008600082825461137b9190612576565b9091555050336000908152600b60205260408120805483929061139f908490612576565b909155506113af90503383611731565b6001546113c6906001600160a01b03163383611767565b7f76d5da03d7f099f74d8d26005a85bffbb26efdbf7cd75d7a4313e616821ec6ad338284426000604051610b92959493929190612589565b6001600160a01b0391821660009081527f52c63247e1f47db19d5ce0460030c497f067ca4cebf71ba98eeadabe20bace016020908152604080832093909416825291909152205490565b600060065460045460055461145b6114cf565b61146591906125f0565b61146f919061261d565b61091d91906125dd565b60006109f28261129f565b61148c611a1a565b6001600160a01b0381166114b657604051631e4fbdf760e01b815260006004820152602401610a9c565b6114bf81611a75565b50565b6114ca611a1a565b600555565b6001546040516370a0823160e01b81523060048201526000916001600160a01b0316906370a0823190602401602060405180830381865afa158015611518573d6000803e3d6000fd5b505050506040513d601f19601f8201168201806040525081019061091d9190612631565b6000610a276115496114cf565b611554906001612576565b6115606000600a61272e565b7f52c63247e1f47db19d5ce0460030c497f067ca4cebf71ba98eeadabe20bace025461158c9190612576565b85919085611cab565b6115a28383836001611cfc565b505050565b60006109f2826001611c51565b6000808260018111156115c9576115c961273d565b03611606576005546115d96114cf565b6115e391906125f0565b6004546006546115f39086612576565b6115fd91906125f0565b111590506109f2565b600182600181111561161a5761161a61273d565b0361164f576005548361162b6114cf565b61163591906125dd565b61163f91906125f0565b6004546006546115fd91906125f0565b5060006109f2565b600061166384846113fe565b905060001981146116b757818110156116a857604051637dc7a0d960e11b81526001600160a01b03841660048201526024810182905260448101839052606401610a9c565b6116b784848484036000611cfc565b50505050565b6001600160a01b0383166116e757604051634b637e8f60e11b815260006004820152602401610a9c565b6001600160a01b0382166117115760405163ec442f0560e01b815260006004820152602401610a9c565b6115a2838383611de3565b60006109f261172a83610d2b565b600061153c565b6001600160a01b03821661175b57604051634b637e8f60e11b815260006004820152602401610a9c565b610c4682600083611de3565b604080516001600160a01b038481166024830152604480830185905283518084039091018152606490920183526020820180516001600160e01b031663a9059cbb60e01b17905291516000928392908716916117c39190612753565b6000604051808303816000865af19150503d8060008114611800576040519150601f19603f3d011682016040523d82523d6000602084013e611805565b606091505b509150915081801561182f57508051158061182f57508080602001905181019061182f919061276f565b6118605760405162461bcd60e51b815260206004820152600260248201526114d560f21b6044820152606401610a9c565b5050505050565b306001600160a01b037f00000000000000000000000000000000000000000000000000000000000000001614806118ee57507f00000000000000000000000000000000000000000000000000000000000000006001600160a01b03166118e26000805160206128dc833981519152546001600160a01b031690565b6001600160a01b031614155b15610d655760405163703e46dd60e11b815260040160405180910390fd5b6114bf611a1a565b816001600160a01b03166352d1902d6040518163ffffffff1660e01b8152600401602060405180830381865afa92505050801561196e575060408051601f3d908101601f1916820190925261196b91810190612631565b60015b61199657604051634c9c8ce360e01b81526001600160a01b0383166004820152602401610a9c565b6000805160206128dc83398151915281146119c757604051632a87526960e21b815260048101829052602401610a9c565b6115a28383611f21565b306001600160a01b037f00000000000000000000000000000000000000000000000000000000000000001614610d655760405163703e46dd60e11b815260040160405180910390fd5b33611a4c7f9016d09d72d40fdae2fd8ceac6b6234c7706214fd39c1cd1e609a0528c199300546001600160a01b031690565b6001600160a01b031614610d655760405163118cdaa760e01b8152336004820152602401610a9c565b7f9016d09d72d40fdae2fd8ceac6b6234c7706214fd39c1cd1e609a0528c19930080546001600160a01b031981166001600160a01b03848116918217845560405192169182907f8be0079c531659141344cd1fd0a4f28419497f9722a3daafe3b4186f6b6457e090600090a3505050565b611aee611f77565b6114bf81611fc0565b611aff611f77565b610c468282611fc8565b610d65611f77565b604080516001600160a01b0385811660248301528481166044830152606480830185905283518084039091018152608490920183526020820180516001600160e01b03166323b872dd60e01b1790529151600092839290881691611b759190612753565b6000604051808303816000865af19150503d8060008114611bb2576040519150601f19603f3d011682016040523d82523d6000602084013e611bb7565b606091505b5091509150818015611be1575080511580611be1575080806020019051810190611be1919061276f565b611c135760405162461bcd60e51b815260206004820152600360248201526229aa2360e91b6044820152606401610a9c565b505050505050565b6001600160a01b038216611c455760405163ec442f0560e01b815260006004820152602401610a9c565b610c4660008383611de3565b6000610a27611c6182600a61272e565b7f52c63247e1f47db19d5ce0460030c497f067ca4cebf71ba98eeadabe20bace0254611c8d9190612576565b611c956114cf565b61158c906001612576565b60006109f282610d2b565b600080611cb9868686612019565b9050611cc4836120dd565b8015611ce0575060008480611cdb57611cdb612607565b868809115b15611cf357611cf0600182612576565b90505b95945050505050565b6000805160206128bc8339815191526001600160a01b038516611d355760405163e602df0560e01b815260006004820152602401610a9c565b6001600160a01b038416611d5f57604051634a1406b160e11b815260006004820152602401610a9c565b6001600160a01b0380861660009081526001830160209081526040808320938816835292905220839055811561186057836001600160a01b0316856001600160a01b03167f8c5be1e5ebec7d5bd14f71427d1e84f3dd0314c0f7b2291e5b200ac8c7c3b92585604051611dd491815260200190565b60405180910390a35050505050565b6000805160206128bc8339815191526001600160a01b038416611e1f5781816002016000828254611e149190612576565b90915550611e919050565b6001600160a01b03841660009081526020829052604090205482811015611e725760405163391434e360e21b81526001600160a01b03861660048201526024810182905260448101849052606401610a9c565b6001600160a01b03851660009081526020839052604090209083900390555b6001600160a01b038316611eaf576002810180548390039055611ece565b6001600160a01b03831660009081526020829052604090208054830190555b826001600160a01b0316846001600160a01b03167fddf252ad1be2c89b69c2b068fc378daa952ba7f163c4a11628f55a4df523b3ef84604051611f1391815260200190565b60405180910390a350505050565b611f2a8261210a565b6040516001600160a01b038316907fbc7cd75a20ee27fd9adebab32041f755214dbc6bffa90cc0225b39da2e5c2d3b90600090a2805115611f6f576115a2828261216f565b610c466121dc565b7ff0c57e16840df040f15088dc2f81fe391c3923bec73e23a9662efc9c229c6a0054600160401b900460ff16610d6557604051631afcd79f60e31b815260040160405180910390fd5b61148c611f77565b611fd0611f77565b6000805160206128bc8339815191527f52c63247e1f47db19d5ce0460030c497f067ca4cebf71ba98eeadabe20bace0361200a84826127d9565b50600481016116b783826127d9565b60008383028160001985870982811083820303915050806000036120505783828161204657612046612607565b0492505050610a27565b8084116120705760405163227bc15360e01b815260040160405180910390fd5b6000848688096000868103871696879004966002600389028118808a02820302808a02820302808a02820302808a02820302808a02820302808a02909103029181900381900460010186841190950394909402919094039290920491909117919091029150509392505050565b600060028260038111156120f3576120f361273d565b6120fd9190612899565b60ff166001149050919050565b806001600160a01b03163b60000361214057604051634c9c8ce360e01b81526001600160a01b0382166004820152602401610a9c565b6000805160206128dc83398151915280546001600160a01b0319166001600160a01b0392909216919091179055565b6060600080846001600160a01b03168460405161218c9190612753565b600060405180830381855af49150503d80600081146121c7576040519150601f19603f3d011682016040523d82523d6000602084013e6121cc565b606091505b5091509150611cf38583836121fb565b3415610d655760405163b398979f60e01b815260040160405180910390fd5b6060826122105761220b82612257565b610a27565b815115801561222757506001600160a01b0384163b155b1561225057604051639996b31560e01b81526001600160a01b0385166004820152602401610a9c565b5080610a27565b8051156122675780518082602001fd5b604051630a12f52160e11b815260040160405180910390fd5b60005b8381101561229b578181015183820152602001612283565b50506000910152565b60208152600082518060208401526122c3816040850160208701612280565b601f01601f19169190910160400192915050565b6000602082840312156122e957600080fd5b5035919050565b80356001600160a01b0381168114610c1b57600080fd5b6000806040838503121561231a57600080fd5b612323836122f0565b946020939093013593505050565b60006020828403121561234357600080fd5b610a27826122f0565b6000806040838503121561235f57600080fd5b8235915060208301356002811061237557600080fd5b809150509250929050565b60008060006060848603121561239557600080fd5b61239e846122f0565b92506123ac602085016122f0565b9150604084013590509250925092565b634e487b7160e01b600052604160045260246000fd5b600080604083850312156123e557600080fd5b6123ee836122f0565b9150602083013567ffffffffffffffff8082111561240b57600080fd5b818501915085601f83011261241f57600080fd5b813581811115612431576124316123bc565b604051601f8201601f19908116603f01168101908382118183101715612459576124596123bc565b8160405282815288602084870101111561247257600080fd5b8260208601602083013760006020848301015280955050505050509250929050565b60008060008060008060c087890312156124ad57600080fd5b6124b6876122f0565b95506124c4602088016122f0565b94506124d2604088016122f0565b9350606087013592506080870135915060a087013590509295509295509295565b6000806040838503121561250657600080fd5b61250f836122f0565b915061251d602084016122f0565b90509250929050565b600181811c9082168061253a57607f821691505b60208210810361255a57634e487b7160e01b600052602260045260246000fd5b50919050565b634e487b7160e01b600052601160045260246000fd5b808201808211156109f2576109f2612560565b6001600160a01b039590951685526020850193909352604084019190915260608301521515608082015260a00190565b6020808252600a908201526937b7363c902930bb32b760b11b604082015260600190565b818103818111156109f2576109f2612560565b80820281158282048414176109f2576109f2612560565b634e487b7160e01b600052601260045260246000fd5b60008261262c5761262c612607565b500490565b60006020828403121561264357600080fd5b5051919050565b600181815b8085111561268557816000190482111561266b5761266b612560565b8085161561267857918102915b93841c939080029061264f565b509250929050565b60008261269c575060016109f2565b816126a9575060006109f2565b81600181146126bf57600281146126c9576126e5565b60019150506109f2565b60ff8411156126da576126da612560565b50506001821b6109f2565b5060208310610133831016604e8410600b8410161715612708575081810a6109f2565b612712838361264a565b806000190482111561272657612726612560565b029392505050565b6000610a2760ff84168361268d565b634e487b7160e01b600052602160045260246000fd5b60008251612765818460208701612280565b9190910192915050565b60006020828403121561278157600080fd5b81518015158114610a2757600080fd5b601f8211156115a2576000816000526020600020601f850160051c810160208610156127ba5750805b601f850160051c820191505b81811015611c13578281556001016127c6565b815167ffffffffffffffff8111156127f3576127f36123bc565b612807816128018454612526565b84612791565b602080601f83116001811461283c57600084156128245750858301515b600019600386901b1c1916600185901b178555611c13565b600085815260208120601f198616915b8281101561286b5788860151825594840194600190910190840161284c565b50858210156128895787850151600019600388901b60f8161c191681555b5050505050600190811b01905550565b600060ff8316806128ac576128ac612607565b8060ff8416069150509291505056fe52c63247e1f47db19d5ce0460030c497f067ca4cebf71ba98eeadabe20bace00360894a13ba1a3210667c828492db98dca3e2076cc3735a920a3ca505d382bbca2646970667358221220c90423db5026f16a7102547666c202b59c9c0223d61a576f6405b3218cb06af464736f6c63430008180033","linkReferences":{}},"methodIdentifiers":{"UPGRADE_INTERFACE_VERSION()":"ad3cb1cc","allowance(address,address)":"dd62ed3e","approve(address,uint256)":"095ea7b3","balanceOf(address)":"70a08231","basePerc()":"77049fc1","convertToAssets(uint256)":"07a2d13a","convertToShares(uint256)":"c6e6f592","decimals()":"313ce567","deposit(uint256)":"b6b55f25","holdLocked(uint256)":"51fe9e3e","initialize(address,address,address,uint256,uint256,uint256)":"728cdbca","maxDeposit()":"6083e59a","maxRedeem(address)":"d905777e","maxWithdraw(address)":"ce96cb77","minDeposit()":"41b3d185","name()":"06fdde03","owner()":"8da5cb5b","post_init(address)":"67e3aa1f","previewDeposit(uint256)":"ef8b30f7","previewRedeem(uint256)":"4cdad506","previewWithdraw(uint256)":"0a28a477","proxiableUUID()":"52d1902d","raven()":"01f5ff68","redeem(uint256)":"db006a75","releaseLocked(uint256)":"b866d193","renounceOwnership()":"715018a6","roundLoss(uint256)":"9afdf2b5","safeCheck(uint256,uint8)":"20a2363c","safeLine()":"9f1f8efc","symbol()":"95d89b41","totalAssets()":"01e1d114","totalDeposits()":"7d882097","totalLocked()":"56891412","totalLockedAsset()":"27a88a79","totalLoss()":"0d457ee1","totalMargin()":"eaa674d1","totalSupply()":"18160ddd","totalWithdraws()":"e91ac268","transfer(address,uint256)":"a9059cbb","transferFrom(address,address,uint256)":"23b872dd","transferOwnership(address)":"f2fde38b","updateMaxDeposit(uint256)":"9f0a5c1b","updateMinDeposit(uint256)":"9a7be471","updateSafeLine(uint256)":"fe931c3d","upgradeToAndCall(address,bytes)":"4f1ef286","usdt()":"2f48ab7d","userDeposits(address)":"0ba36dcd","userWithdraws(address)":"9d0c0f23","withdraw(uint256)":"2e1a7d4d","withdrawLocked(uint256)":"32d342b7"},"id":39}