{"abi":[{"type":"constructor","inputs":[],"stateMutability":"nonpayable"},{"type":"function","name":"UPGRADE_INTERFACE_VERSION","inputs":[],"outputs":[{"name":"","type":"string","internalType":"string"}],"stateMutability":"view"},{"type":"function","name":"allowance","inputs":[{"name":"owner","type":"address","internalType":"address"},{"name":"spender","type":"address","internalType":"address"}],"outputs":[{"name":"","type":"uint256","internalType":"uint256"}],"stateMutability":"view"},{"type":"function","name":"approve","inputs":[{"name":"spender","type":"address","internalType":"address"},{"name":"value","type":"uint256","internalType":"uint256"}],"outputs":[{"name":"","type":"bool","internalType":"bool"}],"stateMutability":"nonpayable"},{"type":"function","name":"balanceOf","inputs":[{"name":"account","type":"address","internalType":"address"}],"outputs":[{"name":"","type":"uint256","internalType":"uint256"}],"stateMutability":"view"},{"type":"function","name":"basePerc","inputs":[],"outputs":[{"name":"","type":"uint256","internalType":"uint256"}],"stateMutability":"view"},{"type":"function","name":"convertToAssets","inputs":[{"name":"shares","type":"uint256","internalType":"uint256"}],"outputs":[{"name":"","type":"uint256","internalType":"uint256"}],"stateMutability":"view"},{"type":"function","name":"convertToShares","inputs":[{"name":"assets","type":"uint256","internalType":"uint256"}],"outputs":[{"name":"","type":"uint256","internalType":"uint256"}],"stateMutability":"view"},{"type":"function","name":"decimals","inputs":[],"outputs":[{"name":"","type":"uint8","internalType":"uint8"}],"stateMutability":"view"},{"type":"function","name":"deposit","inputs":[{"name":"assets","type":"uint256","internalType":"uint256"}],"outputs":[{"name":"shares","type":"uint256","internalType":"uint256"}],"stateMutability":"nonpayable"},{"type":"function","name":"holdLocked","inputs":[{"name":"borrow","type":"uint256","internalType":"uint256"}],"outputs":[],"stateMutability":"nonpayable"},{"type":"function","name":"initialize","inputs":[{"name":"owner_","type":"address","internalType":"address"},{"name":"raven_","type":"address","internalType":"address"},{"name":"usdt_","type":"address","internalType":"address"},{"name":"minDeposit_","type":"uint256","internalType":"uint256"},{"name":"maxDeposit_","type":"uint256","internalType":"uint256"},{"name":"safeLine_","type":"uint256","internalType":"uint256"}],"outputs":[],"stateMutability":"nonpayable"},{"type":"function","name":"maxDeposit","inputs":[],"outputs":[{"name":"","type":"uint256","internalType":"uint256"}],"stateMutability":"view"},{"type":"function","name":"maxRedeem","inputs":[{"name":"owner","type":"address","internalType":"address"}],"outputs":[{"name":"","type":"uint256","internalType":"uint256"}],"stateMutability":"view"},{"type":"function","name":"maxWithdraw","inputs":[{"name":"owner","type":"address","internalType":"address"}],"outputs":[{"name":"","type":"uint256","internalType":"uint256"}],"stateMutability":"view"},{"type":"function","name":"minDeposit","inputs":[],"outputs":[{"name":"","type":"uint256","internalType":"uint256"}],"stateMutability":"view"},{"type":"function","name":"name","inputs":[],"outputs":[{"name":"","type":"string","internalType":"string"}],"stateMutability":"view"},{"type":"function","name":"owner","inputs":[],"outputs":[{"name":"","type":"address","internalType":"address"}],"stateMutability":"view"},{"type":"function","name":"post_init","inputs":[{"name":"raven_","type":"address","internalType":"address"}],"outputs":[],"stateMutability":"nonpayable"},{"type":"function","name":"previewDeposit","inputs":[{"name":"assets","type":"uint256","internalType":"uint256"}],"outputs":[{"name":"","type":"uint256","internalType":"uint256"}],"stateMutability":"view"},{"type":"function","name":"previewRedeem","inputs":[{"name":"shares","type":"uint256","internalType":"uint256"}],"outputs":[{"name":"","type":"uint256","internalType":"uint256"}],"stateMutability":"view"},{"type":"function","name":"previewWithdraw","inputs":[{"name":"assets","type":"uint256","internalType":"uint256"}],"outputs":[{"name":"","type":"uint256","internalType":"uint256"}],"stateMutability":"view"},{"type":"function","name":"proxiableUUID","inputs":[],"outputs":[{"name":"","type":"bytes32","internalType":"bytes32"}],"stateMutability":"view"},{"type":"function","name":"raven","inputs":[],"outputs":[{"name":"","type":"address","internalType":"address"}],"stateMutability":"view"},{"type":"function","name":"redeem","inputs":[{"name":"shares","type":"uint256","internalType":"uint256"}],"outputs":[{"name":"assets","type":"uint256","internalType":"uint256"}],"stateMutability":"nonpayable"},{"type":"function","name":"releaseLocked","inputs":[{"name":"release","type":"uint256","internalType":"uint256"}],"outputs":[],"stateMutability":"nonpayable"},{"type":"function","name":"renounceOwnership","inputs":[],"outputs":[],"stateMutability":"nonpayable"},{"type":"function","name":"safeCheck","inputs":[{"name":"assets","type":"uint256","internalType":"uint256"},{"name":"op","type":"uint8","internalType":"enum IPubVault.OP"}],"outputs":[{"name":"","type":"bool","internalType":"bool"}],"stateMutability":"view"},{"type":"function","name":"safeLine","inputs":[],"outputs":[{"name":"","type":"uint256","internalType":"uint256"}],"stateMutability":"view"},{"type":"function","name":"symbol","inputs":[],"outputs":[{"name":"","type":"string","internalType":"string"}],"stateMutability":"view"},{"type":"function","name":"totalAssets","inputs":[],"outputs":[{"name":"","type":"uint256","internalType":"uint256"}],"stateMutability":"view"},{"type":"function","name":"totalDeposits","inputs":[],"outputs":[{"name":"","type":"uint256","internalType":"uint256"}],"stateMutability":"view"},{"type":"function","name":"totalLocked","inputs":[],"outputs":[{"name":"","type":"uint256","internalType":"uint256"}],"stateMutability":"view"},{"type":"function","name":"totalLockedAsset","inputs":[],"outputs":[{"name":"","type":"uint256","internalType":"uint256"}],"stateMutability":"view"},{"type":"function","name":"totalMargin","inputs":[],"outputs":[{"name":"","type":"uint256","internalType":"uint256"}],"stateMutability":"view"},{"type":"function","name":"totalSupply","inputs":[],"outputs":[{"name":"","type":"uint256","internalType":"uint256"}],"stateMutability":"view"},{"type":"function","name":"totalWithdraws","inputs":[],"outputs":[{"name":"","type":"uint256","internalType":"uint256"}],"stateMutability":"view"},{"type":"function","name":"transfer","inputs":[{"name":"to","type":"address","internalType":"address"},{"name":"value","type":"uint256","internalType":"uint256"}],"outputs":[{"name":"","type":"bool","internalType":"bool"}],"stateMutability":"nonpayable"},{"type":"function","name":"transferFrom","inputs":[{"name":"from","type":"address","internalType":"address"},{"name":"to","type":"address","internalType":"address"},{"name":"value","type":"uint256","internalType":"uint256"}],"outputs":[{"name":"","type":"bool","internalType":"bool"}],"stateMutability":"nonpayable"},{"type":"function","name":"transferOwnership","inputs":[{"name":"newOwner","type":"address","internalType":"address"}],"outputs":[],"stateMutability":"nonpayable"},{"type":"function","name":"updateMaxDeposit","inputs":[{"name":"newMaxDeposit","type":"uint256","internalType":"uint256"}],"outputs":[],"stateMutability":"nonpayable"},{"type":"function","name":"updateMinDeposit","inputs":[{"name":"newMinDeposit","type":"uint256","internalType":"uint256"}],"outputs":[],"stateMutability":"nonpayable"},{"type":"function","name":"updateSafeLine","inputs":[{"name":"newSafeLine","type":"uint256","internalType":"uint256"}],"outputs":[],"stateMutability":"nonpayable"},{"type":"function","name":"upgradeToAndCall","inputs":[{"name":"newImplementation","type":"address","internalType":"address"},{"name":"data","type":"bytes","internalType":"bytes"}],"outputs":[],"stateMutability":"payable"},{"type":"function","name":"usdt","inputs":[],"outputs":[{"name":"","type":"address","internalType":"address"}],"stateMutability":"view"},{"type":"function","name":"userDeposits","inputs":[{"name":"user","type":"address","internalType":"address"}],"outputs":[{"name":"deposits","type":"uint256","internalType":"uint256"}],"stateMutability":"view"},{"type":"function","name":"userWithdraws","inputs":[{"name":"user","type":"address","internalType":"address"}],"outputs":[{"name":"withdraws","type":"uint256","internalType":"uint256"}],"stateMutability":"view"},{"type":"function","name":"withdraw","inputs":[{"name":"assets","type":"uint256","internalType":"uint256"}],"outputs":[{"name":"shares","type":"uint256","internalType":"uint256"}],"stateMutability":"nonpayable"},{"type":"function","name":"withdrawLocked","inputs":[],"outputs":[],"stateMutability":"nonpayable"},{"type":"event","name":"Approval","inputs":[{"name":"owner","type":"address","indexed":true,"internalType":"address"},{"name":"spender","type":"address","indexed":true,"internalType":"address"},{"name":"value","type":"uint256","indexed":false,"internalType":"uint256"}],"anonymous":false},{"type":"event","name":"Initialized","inputs":[{"name":"version","type":"uint64","indexed":false,"internalType":"uint64"}],"anonymous":false},{"type":"event","name":"OwnershipTransferred","inputs":[{"name":"previousOwner","type":"address","indexed":true,"internalType":"address"},{"name":"newOwner","type":"address","indexed":true,"internalType":"address"}],"anonymous":false},{"type":"event","name":"Transfer","inputs":[{"name":"from","type":"address","indexed":true,"internalType":"address"},{"name":"to","type":"address","indexed":true,"internalType":"address"},{"name":"value","type":"uint256","indexed":false,"internalType":"uint256"}],"anonymous":false},{"type":"event","name":"Upgraded","inputs":[{"name":"implementation","type":"address","indexed":true,"internalType":"address"}],"anonymous":false},{"type":"error","name":"AddressEmptyCode","inputs":[{"name":"target","type":"address","internalType":"address"}]},{"type":"error","name":"ERC1967InvalidImplementation","inputs":[{"name":"implementation","type":"address","internalType":"address"}]},{"type":"error","name":"ERC1967NonPayable","inputs":[]},{"type":"error","name":"ERC20InsufficientAllowance","inputs":[{"name":"spender","type":"address","internalType":"address"},{"name":"allowance","type":"uint256","internalType":"uint256"},{"name":"needed","type":"uint256","internalType":"uint256"}]},{"type":"error","name":"ERC20InsufficientBalance","inputs":[{"name":"sender","type":"address","internalType":"address"},{"name":"balance","type":"uint256","internalType":"uint256"},{"name":"needed","type":"uint256","internalType":"uint256"}]},{"type":"error","name":"ERC20InvalidApprover","inputs":[{"name":"approver","type":"address","internalType":"address"}]},{"type":"error","name":"ERC20InvalidReceiver","inputs":[{"name":"receiver","type":"address","internalType":"address"}]},{"type":"error","name":"ERC20InvalidSender","inputs":[{"name":"sender","type":"address","internalType":"address"}]},{"type":"error","name":"ERC20InvalidSpender","inputs":[{"name":"spender","type":"address","internalType":"address"}]},{"type":"error","name":"FailedInnerCall","inputs":[]},{"type":"error","name":"InvalidInitialization","inputs":[]},{"type":"error","name":"MathOverflowedMulDiv","inputs":[]},{"type":"error","name":"NotInitializing","inputs":[]},{"type":"error","name":"OwnableInvalidOwner","inputs":[{"name":"owner","type":"address","internalType":"address"}]},{"type":"error","name":"OwnableUnauthorizedAccount","inputs":[{"name":"account","type":"address","internalType":"address"}]},{"type":"error","name":"UUPSUnauthorizedCallContext","inputs":[]},{"type":"error","name":"UUPSUnsupportedProxiableUUID","inputs":[{"name":"slot","type":"bytes32","internalType":"bytes32"}]}],"bytecode":{"object":"0x60a0604052306080523480156200001557600080fd5b506200002062000026565b620000da565b7ff0c57e16840df040f15088dc2f81fe391c3923bec73e23a9662efc9c229c6a00805468010000000000000000900460ff1615620000775760405163f92ee8a960e01b815260040160405180910390fd5b80546001600160401b0390811614620000d75780546001600160401b0319166001600160401b0390811782556040519081527fc7f505b2f371ae2175ee4913f4499e1f2633a7b5936321eed1cdaeb6115181d29060200160405180910390a15b50565b60805161279e620001046000396000818161170f015281816117380152611879015261279e6000f3fe6080604052600436106102935760003560e01c8063728cdbca1161015a578063b866d193116100c1578063dd62ed3e1161007a578063dd62ed3e146107e4578063e91ac26814610804578063eaa674d11461081a578063ef8b30f71461082f578063f2fde38b1461084f578063fe931c3d1461086f57600080fd5b8063b866d1931461072f578063c6e6f5921461074f578063ce96cb771461076f578063d135cc4b1461078f578063d905777e146107a4578063db006a75146107c457600080fd5b80639d0c0f23116101135780639d0c0f231461065b5780639f0a5c1b146106885780639f1f8efc146106a8578063a9059cbb146106be578063ad3cb1cc146106de578063b6b55f251461070f57600080fd5b8063728cdbca1461059d57806377049fc1146105bd5780637d882097146105d35780638da5cb5b146105e957806395d89b41146106265780639a7be4711461063b57600080fd5b80632f48ab7d116101fe57806352d1902d116101b757806352d1902d14610508578063568914121461051d5780636083e59a1461053257806367e3aa1f1461054857806370a0823114610568578063715018a61461058857600080fd5b80632f48ab7d14610461578063313ce5671461048157806341b3d1851461049d5780634cdad506146104b35780634f1ef286146104d357806351fe9e3e146104e857600080fd5b80630ba36dcd116102505780630ba36dcd1461038a57806318160ddd146103b757806320a2363c146103eb57806323b872dd1461040b57806327a88a791461042b5780632e1a7d4d1461044157600080fd5b806301e1d1141461029857806301f5ff68146102c057806306fdde03146102f857806307a2d13a1461031a578063095ea7b31461033a5780630a28a4771461036a575b600080fd5b3480156102a457600080fd5b506102ad61088f565b6040519081526020015b60405180910390f35b3480156102cc57600080fd5b506000546102e0906001600160a01b031681565b6040516001600160a01b0390911681526020016102b7565b34801561030457600080fd5b5061030d61089e565b6040516102b79190612141565b34801561032657600080fd5b506102ad610335366004612174565b610961565b34801561034657600080fd5b5061035a6103553660046121a4565b610974565b60405190151581526020016102b7565b34801561037657600080fd5b506102ad610385366004612174565b61098c565b34801561039657600080fd5b506102ad6103a53660046121ce565b60096020526000908152604090205481565b3480156103c357600080fd5b507f52c63247e1f47db19d5ce0460030c497f067ca4cebf71ba98eeadabe20bace02546102ad565b3480156103f757600080fd5b5061035a6104063660046121e9565b610997565b34801561041757600080fd5b5061035a61042636600461221d565b6109aa565b34801561043757600080fd5b506102ad60065481565b34801561044d57600080fd5b506102ad61045c366004612174565b6109ce565b34801561046d57600080fd5b506001546102e0906001600160a01b031681565b34801561048d57600080fd5b50604051601281526020016102b7565b3480156104a957600080fd5b506102ad60025481565b3480156104bf57600080fd5b506102ad6104ce366004612174565b610adb565b6104e66104e136600461226f565b610ae6565b005b3480156104f457600080fd5b506104e6610503366004612174565b610b05565b34801561051457600080fd5b506102ad610b49565b34801561052957600080fd5b506006546102ad565b34801561053e57600080fd5b506102ad60035481565b34801561055457600080fd5b506104e66105633660046121ce565b610b66565b34801561057457600080fd5b506102ad6105833660046121ce565b610be6565b34801561059457600080fd5b506104e6610c0e565b3480156105a957600080fd5b506104e66105b8366004612331565b610c22565b3480156105c957600080fd5b506102ad60045481565b3480156105df57600080fd5b506102ad60075481565b3480156105f557600080fd5b507f9016d09d72d40fdae2fd8ceac6b6234c7706214fd39c1cd1e609a0528c199300546001600160a01b03166102e0565b34801561063257600080fd5b5061030d610f05565b34801561064757600080fd5b506104e6610656366004612174565b610f44565b34801561066757600080fd5b506102ad6106763660046121ce565b600a6020526000908152604090205481565b34801561069457600080fd5b506104e66106a3366004612174565b610fa6565b3480156106b457600080fd5b506102ad60055481565b3480156106ca57600080fd5b5061035a6106d93660046121a4565b611008565b3480156106ea57600080fd5b5061030d604051806040016040528060058152602001640352e302e360dc1b81525081565b34801561071b57600080fd5b506102ad61072a366004612174565b611016565b34801561073b57600080fd5b506104e661074a366004612174565b6110d3565b34801561075b57600080fd5b506102ad61076a366004612174565b611122565b34801561077b57600080fd5b506102ad61078a3660046121ce565b61112f565b34801561079b57600080fd5b506104e661113a565b3480156107b057600080fd5b506102ad6107bf3660046121ce565b61118f565b3480156107d057600080fd5b506102ad6107df366004612174565b61119a565b3480156107f057600080fd5b506102ad6107ff366004612390565b61129e565b34801561081057600080fd5b506102ad60085481565b34801561082657600080fd5b506102ad6112e8565b34801561083b57600080fd5b506102ad61084a366004612174565b611319565b34801561085b57600080fd5b506104e661086a3660046121ce565b611324565b34801561087b57600080fd5b506104e661088a366004612174565b61135f565b600061089961136c565b905090565b7f52c63247e1f47db19d5ce0460030c497f067ca4cebf71ba98eeadabe20bace038054606091600080516020612729833981519152916108dd906123c3565b80601f0160208091040260200160405190810160405280929190818152602001828054610909906123c3565b80156109565780601f1061092b57610100808354040283529160200191610956565b820191906000526020600020905b81548152906001019060200180831161093957829003601f168201915b505050505091505090565b600061096e8260006113d9565b92915050565b600033610982818585611432565b5060019392505050565b600061096e82611444565b60006109a38383611451565b9392505050565b6000336109b88582856114f4565b6109c385858561155a565b506001949350505050565b60006109d9336115b9565b821115610a215760405162461bcd60e51b8152602060048201526011602482015270657863656564206d61782061737365747360781b60448201526064015b60405180910390fd5b610a2c826001611451565b610a6e5760405162461bcd60e51b81526020600482015260136024820152727361666520636865636b206e6f74207061737360681b6044820152606401610a18565b610a7782611444565b90508160086000828254610a8b9190612413565b9091555050336000908152600a602052604081208054849290610aaf908490612413565b90915550610abf905033826115ce565b600154610ad6906001600160a01b03163384611604565b919050565b600061096e82610961565b610aee611704565b610af7826117a9565b610b0182826117b1565b5050565b6000546001600160a01b03163314610b2f5760405162461bcd60e51b8152600401610a1890612426565b8060066000828254610b419190612413565b909155505050565b6000610b5361186e565b5060008051602061274983398151915290565b610b6e6118b7565b6001600160a01b038116610bc45760405162461bcd60e51b815260206004820152601860248201527f696e76616c696420726176656e206164647265737328302900000000000000006044820152606401610a18565b600080546001600160a01b0319166001600160a01b0392909216919091179055565b6001600160a01b03166000908152600080516020612729833981519152602052604090205490565b610c166118b7565b610c206000611912565b565b7ff0c57e16840df040f15088dc2f81fe391c3923bec73e23a9662efc9c229c6a008054600160401b810460ff16159067ffffffffffffffff16600081158015610c685750825b905060008267ffffffffffffffff166001148015610c855750303b155b905081158015610c93575080155b15610cb15760405163f92ee8a960e01b815260040160405180910390fd5b845467ffffffffffffffff191660011785558315610cdb57845460ff60401b1916600160401b1785555b6001600160a01b038916610d315760405162461bcd60e51b815260206004820152601760248201527f696e76616c6964207573647420616464726573732830290000000000000000006044820152606401610a18565b60008811610d795760405162461bcd60e51b81526020600482015260156024820152740696e76616c6964206d696e4465706f7369743a203605c1b6044820152606401610a18565b60008711610dc15760405162461bcd60e51b81526020600482015260156024820152740696e76616c6964206d61784465706f7369743a203605c1b6044820152606401610a18565b868810610e105760405162461bcd60e51b815260206004820152601760248201527f6d696e4465706f736974203c206d61784465706f7369740000000000000000006044820152606401610a18565b610e198b611983565b610e666040518060400160405280601081526020016f526176656e20506f6f6c20536861726560801b8152506040518060400160405280600381526020016252505360e81b815250611994565b610e6e6119a6565b600080546001600160a01b03808d166001600160a01b03199283161790925560018054928c169290911691909117905560028890556003879055606460045560058690558315610ef857845460ff60401b19168555604051600181527fc7f505b2f371ae2175ee4913f4499e1f2633a7b5936321eed1cdaeb6115181d29060200160405180910390a15b5050505050505050505050565b7f52c63247e1f47db19d5ce0460030c497f067ca4cebf71ba98eeadabe20bace048054606091600080516020612729833981519152916108dd906123c3565b610f4c6118b7565b600081118015610f5d575060035481105b610fa15760405162461bcd60e51b81526020600482015260156024820152741a5b9d985b1a59081b995dd3585e11195c1bdcda5d605a1b6044820152606401610a18565b600255565b610fae6118b7565b600081118015610fbf575060025481115b6110035760405162461bcd60e51b81526020600482015260156024820152741a5b9d985b1a59081b995dd3585e11195c1bdcda5d605a1b6044820152606401610a18565b600355565b60003361098281858561155a565b6000600254821015801561102c57506003548211155b61106b5760405162461bcd60e51b815260206004820152601060248201526f696e76616c6964206465706f7369747360801b6044820152606401610a18565b61107482611122565b905081600760008282546110889190612413565b909155505033600090815260096020526040812080548492906110ac908490612413565b90915550506001546110c9906001600160a01b03163330856119ae565b610ad63382611ab8565b6000546001600160a01b031633146110fd5760405162461bcd60e51b8152600401610a1890612426565b80600654101561110e57600061111c565b8060065461111c919061244a565b60065550565b600061096e826000611aee565b600061096e826115b9565b6000546001600160a01b031633146111645760405162461bcd60e51b8152600401610a1890612426565b600680546000918290556001549154909161118c916001600160a01b03918216911683611604565b50565b600061096e82611b3d565b60006111a533611b3d565b8211156111e95760405162461bcd60e51b8152602060048201526012602482015271657863656564206d61782072656465656d7360701b6044820152606401610a18565b6111f282610961565b90506111ff816001611451565b6112415760405162461bcd60e51b81526020600482015260136024820152727361666520636865636b206e6f74207061737360681b6044820152606401610a18565b80600860008282546112539190612413565b9091555050336000908152600a602052604081208054839290611277908490612413565b90915550611287905033836115ce565b600154610ad6906001600160a01b03163383611604565b6001600160a01b0391821660009081527f52c63247e1f47db19d5ce0460030c497f067ca4cebf71ba98eeadabe20bace016020908152604080832093909416825291909152205490565b60006006546004546005546112fb61136c565b611305919061245d565b61130f919061248a565b610899919061244a565b600061096e82611122565b61132c6118b7565b6001600160a01b03811661135657604051631e4fbdf760e01b815260006004820152602401610a18565b61118c81611912565b6113676118b7565b600555565b6001546040516370a0823160e01b81523060048201526000916001600160a01b0316906370a0823190602401602060405180830381865afa1580156113b5573d6000803e3d6000fd5b505050506040513d601f19601f82011682018060405250810190610899919061249e565b60006109a36113e661136c565b6113f1906001612413565b6113fd6000600a61259b565b7f52c63247e1f47db19d5ce0460030c497f067ca4cebf71ba98eeadabe20bace02546114299190612413565b85919085611b48565b61143f8383836001611b99565b505050565b600061096e826001611aee565b600080826001811115611466576114666125aa565b036114a35760055461147661136c565b611480919061245d565b6004546006546114909086612413565b61149a919061245d565b1115905061096e565b60018260018111156114b7576114b76125aa565b036114ec57600554836114c861136c565b6114d2919061244a565b6114dc919061245d565b60045460065461149a919061245d565b50600061096e565b6000611500848461129e565b90506000198114611554578181101561154557604051637dc7a0d960e11b81526001600160a01b03841660048201526024810182905260448101839052606401610a18565b61155484848484036000611b99565b50505050565b6001600160a01b03831661158457604051634b637e8f60e11b815260006004820152602401610a18565b6001600160a01b0382166115ae5760405163ec442f0560e01b815260006004820152602401610a18565b61143f838383611c80565b600061096e6115c783610be6565b60006113d9565b6001600160a01b0382166115f857604051634b637e8f60e11b815260006004820152602401610a18565b610b0182600083611c80565b604080516001600160a01b038481166024830152604480830185905283518084039091018152606490920183526020820180516001600160e01b031663a9059cbb60e01b179052915160009283929087169161166091906125c0565b6000604051808303816000865af19150503d806000811461169d576040519150601f19603f3d011682016040523d82523d6000602084013e6116a2565b606091505b50915091508180156116cc5750805115806116cc5750808060200190518101906116cc91906125dc565b6116fd5760405162461bcd60e51b815260206004820152600260248201526114d560f21b6044820152606401610a18565b5050505050565b306001600160a01b037f000000000000000000000000000000000000000000000000000000000000000016148061178b57507f00000000000000000000000000000000000000000000000000000000000000006001600160a01b031661177f600080516020612749833981519152546001600160a01b031690565b6001600160a01b031614155b15610c205760405163703e46dd60e11b815260040160405180910390fd5b61118c6118b7565b816001600160a01b03166352d1902d6040518163ffffffff1660e01b8152600401602060405180830381865afa92505050801561180b575060408051601f3d908101601f191682019092526118089181019061249e565b60015b61183357604051634c9c8ce360e01b81526001600160a01b0383166004820152602401610a18565b600080516020612749833981519152811461186457604051632a87526960e21b815260048101829052602401610a18565b61143f8383611dbe565b306001600160a01b037f00000000000000000000000000000000000000000000000000000000000000001614610c205760405163703e46dd60e11b815260040160405180910390fd5b336118e97f9016d09d72d40fdae2fd8ceac6b6234c7706214fd39c1cd1e609a0528c199300546001600160a01b031690565b6001600160a01b031614610c205760405163118cdaa760e01b8152336004820152602401610a18565b7f9016d09d72d40fdae2fd8ceac6b6234c7706214fd39c1cd1e609a0528c19930080546001600160a01b031981166001600160a01b03848116918217845560405192169182907f8be0079c531659141344cd1fd0a4f28419497f9722a3daafe3b4186f6b6457e090600090a3505050565b61198b611e14565b61118c81611e5d565b61199c611e14565b610b018282611e65565b610c20611e14565b604080516001600160a01b0385811660248301528481166044830152606480830185905283518084039091018152608490920183526020820180516001600160e01b03166323b872dd60e01b1790529151600092839290881691611a1291906125c0565b6000604051808303816000865af19150503d8060008114611a4f576040519150601f19603f3d011682016040523d82523d6000602084013e611a54565b606091505b5091509150818015611a7e575080511580611a7e575080806020019051810190611a7e91906125dc565b611ab05760405162461bcd60e51b815260206004820152600360248201526229aa2360e91b6044820152606401610a18565b505050505050565b6001600160a01b038216611ae25760405163ec442f0560e01b815260006004820152602401610a18565b610b0160008383611c80565b60006109a3611afe82600a61259b565b7f52c63247e1f47db19d5ce0460030c497f067ca4cebf71ba98eeadabe20bace0254611b2a9190612413565b611b3261136c565b611429906001612413565b600061096e82610be6565b600080611b56868686611eb6565b9050611b6183611f7a565b8015611b7d575060008480611b7857611b78612474565b868809115b15611b9057611b8d600182612413565b90505b95945050505050565b6000805160206127298339815191526001600160a01b038516611bd25760405163e602df0560e01b815260006004820152602401610a18565b6001600160a01b038416611bfc57604051634a1406b160e11b815260006004820152602401610a18565b6001600160a01b038086166000908152600183016020908152604080832093881683529290522083905581156116fd57836001600160a01b0316856001600160a01b03167f8c5be1e5ebec7d5bd14f71427d1e84f3dd0314c0f7b2291e5b200ac8c7c3b92585604051611c7191815260200190565b60405180910390a35050505050565b6000805160206127298339815191526001600160a01b038416611cbc5781816002016000828254611cb19190612413565b90915550611d2e9050565b6001600160a01b03841660009081526020829052604090205482811015611d0f5760405163391434e360e21b81526001600160a01b03861660048201526024810182905260448101849052606401610a18565b6001600160a01b03851660009081526020839052604090209083900390555b6001600160a01b038316611d4c576002810180548390039055611d6b565b6001600160a01b03831660009081526020829052604090208054830190555b826001600160a01b0316846001600160a01b03167fddf252ad1be2c89b69c2b068fc378daa952ba7f163c4a11628f55a4df523b3ef84604051611db091815260200190565b60405180910390a350505050565b611dc782611fa7565b6040516001600160a01b038316907fbc7cd75a20ee27fd9adebab32041f755214dbc6bffa90cc0225b39da2e5c2d3b90600090a2805115611e0c5761143f828261200c565b610b01612079565b7ff0c57e16840df040f15088dc2f81fe391c3923bec73e23a9662efc9c229c6a0054600160401b900460ff16610c2057604051631afcd79f60e31b815260040160405180910390fd5b61132c611e14565b611e6d611e14565b6000805160206127298339815191527f52c63247e1f47db19d5ce0460030c497f067ca4cebf71ba98eeadabe20bace03611ea78482612646565b50600481016115548382612646565b6000838302816000198587098281108382030391505080600003611eed57838281611ee357611ee3612474565b04925050506109a3565b808411611f0d5760405163227bc15360e01b815260040160405180910390fd5b6000848688096000868103871696879004966002600389028118808a02820302808a02820302808a02820302808a02820302808a02820302808a02909103029181900381900460010186841190950394909402919094039290920491909117919091029150509392505050565b60006002826003811115611f9057611f906125aa565b611f9a9190612706565b60ff166001149050919050565b806001600160a01b03163b600003611fdd57604051634c9c8ce360e01b81526001600160a01b0382166004820152602401610a18565b60008051602061274983398151915280546001600160a01b0319166001600160a01b0392909216919091179055565b6060600080846001600160a01b03168460405161202991906125c0565b600060405180830381855af49150503d8060008114612064576040519150601f19603f3d011682016040523d82523d6000602084013e612069565b606091505b5091509150611b90858383612098565b3415610c205760405163b398979f60e01b815260040160405180910390fd5b6060826120ad576120a8826120f4565b6109a3565b81511580156120c457506001600160a01b0384163b155b156120ed57604051639996b31560e01b81526001600160a01b0385166004820152602401610a18565b50806109a3565b8051156121045780518082602001fd5b604051630a12f52160e11b815260040160405180910390fd5b60005b83811015612138578181015183820152602001612120565b50506000910152565b602081526000825180602084015261216081604085016020870161211d565b601f01601f19169190910160400192915050565b60006020828403121561218657600080fd5b5035919050565b80356001600160a01b0381168114610ad657600080fd5b600080604083850312156121b757600080fd5b6121c08361218d565b946020939093013593505050565b6000602082840312156121e057600080fd5b6109a38261218d565b600080604083850312156121fc57600080fd5b8235915060208301356002811061221257600080fd5b809150509250929050565b60008060006060848603121561223257600080fd5b61223b8461218d565b92506122496020850161218d565b9150604084013590509250925092565b634e487b7160e01b600052604160045260246000fd5b6000806040838503121561228257600080fd5b61228b8361218d565b9150602083013567ffffffffffffffff808211156122a857600080fd5b818501915085601f8301126122bc57600080fd5b8135818111156122ce576122ce612259565b604051601f8201601f19908116603f011681019083821181831017156122f6576122f6612259565b8160405282815288602084870101111561230f57600080fd5b8260208601602083013760006020848301015280955050505050509250929050565b60008060008060008060c0878903121561234a57600080fd5b6123538761218d565b95506123616020880161218d565b945061236f6040880161218d565b9350606087013592506080870135915060a087013590509295509295509295565b600080604083850312156123a357600080fd5b6123ac8361218d565b91506123ba6020840161218d565b90509250929050565b600181811c908216806123d757607f821691505b6020821081036123f757634e487b7160e01b600052602260045260246000fd5b50919050565b634e487b7160e01b600052601160045260246000fd5b8082018082111561096e5761096e6123fd565b6020808252600a908201526937b7363c902930bb32b760b11b604082015260600190565b8181038181111561096e5761096e6123fd565b808202811582820484141761096e5761096e6123fd565b634e487b7160e01b600052601260045260246000fd5b60008261249957612499612474565b500490565b6000602082840312156124b057600080fd5b5051919050565b600181815b808511156124f25781600019048211156124d8576124d86123fd565b808516156124e557918102915b93841c93908002906124bc565b509250929050565b6000826125095750600161096e565b816125165750600061096e565b816001811461252c576002811461253657612552565b600191505061096e565b60ff841115612547576125476123fd565b50506001821b61096e565b5060208310610133831016604e8410600b8410161715612575575081810a61096e565b61257f83836124b7565b8060001904821115612593576125936123fd565b029392505050565b60006109a360ff8416836124fa565b634e487b7160e01b600052602160045260246000fd5b600082516125d281846020870161211d565b9190910192915050565b6000602082840312156125ee57600080fd5b815180151581146109a357600080fd5b601f82111561143f576000816000526020600020601f850160051c810160208610156126275750805b601f850160051c820191505b81811015611ab057828155600101612633565b815167ffffffffffffffff81111561266057612660612259565b6126748161266e84546123c3565b846125fe565b602080601f8311600181146126a957600084156126915750858301515b600019600386901b1c1916600185901b178555611ab0565b600085815260208120601f198616915b828110156126d8578886015182559484019460019091019084016126b9565b50858210156126f65787850151600019600388901b60f8161c191681555b5050505050600190811b01905550565b600060ff83168061271957612719612474565b8060ff8416069150509291505056fe52c63247e1f47db19d5ce0460030c497f067ca4cebf71ba98eeadabe20bace00360894a13ba1a3210667c828492db98dca3e2076cc3735a920a3ca505d382bbca2646970667358221220010f425d0bafa1da9914611f5e71d86c5859bc9ae2b7889d2cbaf4dc4c7501a164736f6c63430008180033","linkReferences":{}},"methodIdentifiers":{"UPGRADE_INTERFACE_VERSION()":"ad3cb1cc","allowance(address,address)":"dd62ed3e","approve(address,uint256)":"095ea7b3","balanceOf(address)":"70a08231","basePerc()":"77049fc1","convertToAssets(uint256)":"07a2d13a","convertToShares(uint256)":"c6e6f592","decimals()":"313ce567","deposit(uint256)":"b6b55f25","holdLocked(uint256)":"51fe9e3e","initialize(address,address,address,uint256,uint256,uint256)":"728cdbca","maxDeposit()":"6083e59a","maxRedeem(address)":"d905777e","maxWithdraw(address)":"ce96cb77","minDeposit()":"41b3d185","name()":"06fdde03","owner()":"8da5cb5b","post_init(address)":"67e3aa1f","previewDeposit(uint256)":"ef8b30f7","previewRedeem(uint256)":"4cdad506","previewWithdraw(uint256)":"0a28a477","proxiableUUID()":"52d1902d","raven()":"01f5ff68","redeem(uint256)":"db006a75","releaseLocked(uint256)":"b866d193","renounceOwnership()":"715018a6","safeCheck(uint256,uint8)":"20a2363c","safeLine()":"9f1f8efc","symbol()":"95d89b41","totalAssets()":"01e1d114","totalDeposits()":"7d882097","totalLocked()":"56891412","totalLockedAsset()":"27a88a79","totalMargin()":"eaa674d1","totalSupply()":"18160ddd","totalWithdraws()":"e91ac268","transfer(address,uint256)":"a9059cbb","transferFrom(address,address,uint256)":"23b872dd","transferOwnership(address)":"f2fde38b","updateMaxDeposit(uint256)":"9f0a5c1b","updateMinDeposit(uint256)":"9a7be471","updateSafeLine(uint256)":"fe931c3d","upgradeToAndCall(address,bytes)":"4f1ef286","usdt()":"2f48ab7d","userDeposits(address)":"0ba36dcd","userWithdraws(address)":"9d0c0f23","withdraw(uint256)":"2e1a7d4d","withdrawLocked()":"d135cc4b"},"id":39}